:020000040800F2
:10400000D806002001410008A759000805590008FA
:10401000A5590008C54700083D5F000800000000E2
:10402000000000000000000000000000595C0008D3
:10403000C747000800000000575C00085B5C0008F0
:104040001B4100081B4100081B4100081B410008E0
:104050001B4100081B4100081B4100081B410008D0
:104060001B4100081B4100081B4100081B410008C0
:104070001B4100081B4100081B4100081B410008B0
:104080001B4100081B4100081B4100081B410008A0
:104090001B4100081B4100081B4100081B41000890
:1040A0001B4100081B4100081B4100081B41000880
:1040B0001B4100081B4100081B4100081B41000870
:1040C0001B4100081B4100081B4100081B41000860
:1040D0001B410008315F00081B4100081B4100081C
:1040E0001B4100081B4100081B410008DFF80CD0F1
:1040F00000F0A8F80048004739610008D806002001
:104100000648804706480047FEE7FEE7FEE7FEE771
:10411000FEE7FEE7FEE7FEE7FEE7FEE7AF5C00082E
:10412000ED400008202A04DB203A21FA02F00021A9
:10413000704721FA02F3D040C2F1200291400843B7
:1041400019467047D2B201E000F8012B491EFBD29C
:1041500070470022F6E710B513460A460446194692
:10416000FFF7F0FF204610BD30B505462A460B4646
:1041700012F8010B13F8014B08B1A042F8D01CB1A2
:10418000002802D06D1CF1E7284630BD70B5064608
:1041900001F008FF046805460A220021304600F0BD
:1041A00018F82C6070BD30B50B4601460020202267
:1041B000012409E021FA02F59D4205D303FA02F534
:1041C000491B04FA02F52844151EA2F10102F1DC94
:1041D00030BD2DE9F04791460F4680460446002643
:1041E00014F8015B2DB100F03FF80068405DC00796
:1041F000F6D12B2D02D02D2D18D0641E4A463946FB
:10420000204600F035F827B13968A14201D1C7F83E
:10421000008071054FF002040BD54042002803DDF9
:1042200001F0C0FE0460A007BDE8F08746F4806698
:10423000E4E70028F8DA01F0B5FE04606FF0004012
:10424000F2E70000064C074D06E0E06840F001038D
:1042500094E8070098471034AC42F6D3FFF74AFFC2
:1042600054680008746800080048704750680008E7
:104270002DE9F05F82460078002715468B460AF14B
:104280000104B946302801D09DB113E014F8010BA8
:104290000127782803D0582801D045B10AE00DB194
:1042A000102D07D10027102514F8010B02E0082576
:1042B00000E00A250026B0460EE005FB080005FBDD
:1042C00006F1012701EB10461FFA80F8B6F5803F92
:1042D00000D3B94614F8010B294600F018F800285D
:1042E000EBDABBF1000F05D00FB1641E00E05446BD
:1042F000CBF80040B9F1000F06D001F053FE0221C7
:104300000160C81EBDE8F09F48EA0640FAE73A2877
:1043100000D2303820F02002412A01D3A2F1370028
:10432000884201D34FF0FF307047000010B5094CB0
:104330000949A0880988884206D108A001F000FE3A
:1043400004202070002010BD08A001F0F9FD01201C
:1043500010BD0000200000201400002052656320E2
:1043600064617461206F6B0D0A0000005265632068
:1043700064617461206572726F720D0A0000000042
:1043800010B500F00BF906A001F0DAFD00F06CF9B1
:1043900007A001F0D5FD09490220087010BD0000FA
:1043A000466C617368206572617365640D0A000074
:1043B0005541525420696E69740D0A002000002096
:1043C00038B51AA001F0BCFD1FA001F0B9FD24A072
:1043D00001F0B6FD294C0020A31C6080401E009017
:1043E00040222749274800F0C1FF6088002814D0E8
:1043F00025A12348FFF7B8FE050014D024A001F042
:104400009FFDA81DFFF7C2FE0104090CA18005D085
:1044100024A001F095FD0120207038BD25A0BDE845
:10442000384001F08DBD26A0F9E700007265736584
:104430007420626F6F746C6F616465722073746155
:1044400072740D0A0000000077616974207573654D
:10445000722073656E6420646174610D0A0000004F
:1044600073656E64202773746172743A6C656E278D
:1044700020746F2073746172740D0A002000002094
:10448000980200203000002073746172743A0000BA
:10449000476574207374617274207369676E616C10
:1044A0000D0A0000746F74616C206C656E3A2564AF
:1044B0000D0A00006C656E206572720D0A00000026
:1044C0004765742077726F6E67207369676E616CE1
:1044D0000D0A0000124810B5007805281FD2DFE849
:1044E00000F003070B0F1500BDE81040FFF768BF91
:1044F000BDE81040FFF744BFBDE8104000F030B801
:10450000FFF714FF00280AD006A004E000F05EF8D0
:10451000002804D00AA001F013FD01F031FD10BD08
:104520002000002061707020726563206572722C1B
:104530002073797374656D2072657365740D0A005C
:104540006A756D7020617070206572722C207379AD
:104550007374656D2072657365740D0A0000000048
:1045600010B5094C206800280CD000F0DFFB216852
:10457000401AB0F5FA6F05D904A001F0E1FC064934
:104580000320087010BD00001C000020526563204D
:10459000656E640D0A0000002000002000B585B0A3
:1045A00000F0BAFA00200121CDE90001064902918C
:1045B0006021CDE9031004A9684600F00FFA00F06D
:1045C00061FA05B000BD00000080000870B5164E0D
:1045D000356874684FF40050B0EB154F01D013A04C
:1045E00006E0114840422044B0F5C03F04D915A070
:1045F00001F0A6FC012070BD19492020C1F88001FE
:10460000BFF34F8FBFF36F8F0020091F0861486110
:10461000886100F0D3F972B685F308881148066006
:10462000A047002070BD00000080000841505020CD
:10463000537461636B20707472206572726F7221A3
:104640000D0A000041505020526573657420486186
:104650006E646C6572206572726F72210D0A0000C3
:1046600004E000E008ED00E0074882B0006801685F
:10467000416800910168406800904FF4007203495E
:10468000014802B000F0EABE30000020980000208F
:104690002DE9F047484DDFF82491494E6888697844
:1046A0004FF0000A80EA0102D20706D000294FF03D
:1046B000000460D0002857D852E04FF0000401B346
:1046C000002819D94F4629783878A84641EA0022AF
:1046D00004E0002CF7D0381930F8012CD8F8080085
:1046E000002320448119012000F0D6F9A41CB8F859
:1046F0000200A4B28442ECD36988A8680844401C34
:1047000012E04F460AE0381900230288A8682044C6
:104710008119012000F0C0F9A41CA4B26888844269
:10472000F1D36988A8680844A86085F801A0BDE8AD
:10473000F087CCB1611C814203D209EB040030F850
:10474000017CD8F808003A46204481190023012052
:1047500000F0A2F9A41CB8F80200A4B28442E8D385
:104760006988A86808441DE099F800102A78A846CE
:1047700042EA0127E5E74F460DE0611C814208D27D
:10478000381900230288A86820448119012000F00C
:1047900083F9A41CA4B268888442EED36988A8680F
:1047A0000844401E89B2A86009EB010010F8010C12
:1047B000287001206870BAE71000002098000020DF
:1047C00000800008FEE7704706490020C8610648DF
:1047D000016941F004010161016941F04001016199
:1047E000704700007800002000200240064A0021A7
:1047F000D16106490A6942F002020A61486108690A
:1048000040F040000861704778000020002002401E
:10481000044B0022DA61044A136943F00103136177
:1048200001807047780000200020024014480022D8
:10483000C168CB06134904D5CA6942F00202CA61B5
:104840001022C3685B0705D5CB6943F00103CB6138
:1048500042F00402C369DB0707D0CB6943F00403CD
:10486000CB61C16921F00101C161A2F580710139FB
:1048700001D0C2607047C16921F00101C161704778
:10488000002002407800002070B5054600F04EFA86
:104890000646114C09E0681C07D025B100F046FA25
:1048A000801BA84201D9032070BDE068C007F2D187
:1048B000E068800601D52020E060E068C00605D4ED
:1048C000E069C00702D1E068400703D5FFF7AEFFFB
:1048D000012070BD002070BD0020024010B590F88E
:1048E00021100022022905D00421816380F82020B4
:1048F000012010BD01680B6823F00E030B600168F6
:104900000B6823F001030B6090F84030C46B012169
:1049100001FA03F3636080F8211080F8202010462C
:1049200010BD000010B590F821100024022903D01A
:104930000421816301243DE001680A6822F00E022F
:104940000A6001680A6822F001020A601A4A0168D6
:10495000914201D1012121E0174A1432914201D143
:1049600010211BE0144A2832914201D1891515E02B
:10497000114A3C32914201D189140FE00E4A503263
:10498000914202D14FF4803108E00B4A64329142E7
:1049900002D14FF4801101E04FF08071064A083ACD
:1049A0005160012180F82110002180F82010416B16
:1049B00001B18847204610BD08000240064810B5E6
:1049C0004FF0FF31016100220261C160C26000F05E
:1049D000EDF9002010BD0000001002402DE9F04765
:1049E000054626480F460126017E01290FD00121E8
:1049F000814601762868DFF888804CF2503402281E
:104A000008D0A2462046FFF73FFFA8B131E00220C0
:104A1000BDE8F0872046FFF737FF08BB0120FFF70E
:104A2000D3FE2046FFF730FFD8F81010064621F0DD
:104A30000401C8F810101CE04FF0FF303860AC687B
:104A400011E02046FFF7D2FE5046FFF71DFFD8F8D1
:104A50001010060021F00201C8F8101001D03C60CF
:104A600007E004F58064D5E9020100EB8120A04253
:104A7000E7D8002189F818103046C9E778000020EF
:104A8000002002400348016941F0800101610020DB
:104A900070470000002002402DE9F05F07461C48E7
:104AA00088460024017E15461E46012909D00121B1
:104AB000814601764CF2503A5046FFF7E5FE18B1B8
:104AC00022E00220BDE8F09F012F02D0022F00D08B
:104AD0000427D346DFF83CA0220128463146FFF7E1
:104AE00021FB81B208EB4400FFF792FE5846FFF726
:104AF000CBFEDAF8102022F00102CAF8102018B913
:104B0000641CE4B2BC42E7D3002289F81820D9E73C
:104B10007800002000200240064900200A691206A1
:104B200007D5054A4A60054A4A600969090600D561
:104B3000012070470020024023016745AB89EFCD7B
:104B40002DE9F84FDFF8B8910024A9F1040B2346B2
:104B50000F2709F1040AABF1040EC9E00125A540B5
:104B60002A40AA427DD1674ED1F804C0ACEB0608BA
:104B7000B44532D014DCBCF1030F3AD009DCBCF1EF
:104B8000000F2AD0BCF1010F1CD0BCF1020F31D1B3
:104B90001DE0BCF1110F17D0BCF1120F2AD119E0A2
:104BA000B8F5881F19D006DCB8F5803F15D0B8F5E8
:104BB000801F1FD111E0B8F5001F0ED0B8F5041FFB
:104BC00018D10AE0CB6815E0CB681B1D12E0CB685A
:104BD00008330FE0CB680C330CE08B682BB1012B52
:104BE0004FF0080303D0456104E0042302E00561AF
:104BF00000E00023FF2A01D8064601E000F1040688
:104C00004FEA840501D9A5F12005D6F8008007FAFE
:104C100005FC28EA0C0803FA05F548EA0508C6F879
:104C200000804D68ED0062D5374DAE6946F0010653
:104C3000AE61AD6924F0030605F001050095334D22
:104C400006EB050CDCF80850A607360F07FA06F845
:104C500025EA0805DFF8B880404503D14FF0000889
:104C600017E044E0DFF8AC80404502D14FF0010886
:104C70000FE0DFF8A480404502D14FF0020808E0C1
:104C8000DFF89880404502D14FF0030801E04FF073
:104C9000040808FA06F848EA0508CCF808804D68C8
:104CA000D9F80060ED024D4601D5164300E0964369
:104CB0002E604D68DAF80060AD02554601D5164306
:104CC00000E096432E604D68DBF80060AD035D4662
:104CD00001D5164300E096432E604D68DEF8006073
:104CE000ED03754601D5164300E096432E60641C23
:104CF0000D682A46E5407FF431AFBDE8F88F00002B
:104D000008040140000011100010024000000140A2
:104D100000080140000C0140001001400014014057
:104D20000AB1016170470904FBE70000014880688F
:104D3000704700000000002002488168027811449A
:104D40008160704700000020074810B5016841F0FD
:104D500010010160032000F077F80F2000F006F842
:104D600000F026F8002010BD0020024070B50D4D67
:104D700004464FF47A712878B1FBF0F00A490968CB
:104D8000B1FBF0F000F0DEFA48B9102C07D2002297
:104D90002146501E00F038F800206C6070BD0120E4
:104DA00070BD0000000000200C00002070470000D3
:104DB0000C4808B5816941F001018161816901F008
:104DC00001010091C16941F08051C161C06900F0E9
:104DD000805000900448416821F0E06141F000718A
:104DE000416008BD0010024000000140002809DBBE
:104DF00000F01F02012191404009800000F1E020F5
:104E0000C0F8001170470000F0B40E4B1B680C4650
:104E1000C3F30223C3F10705042D00D90425191D8E
:104E2000072901D2002300E0DB1E012606FA05F166
:104E3000491E214099409E40761E16403143F0BCE9
:104E400001F08EB80CED00E0064900F0070208689A
:104E50004FF6FF03184040EA0220034A104308605F
:104E6000704700000CED00E00000FA052DE9F04766
:104E70000F46050061D0434E306800F00700B8428D
:104E800009D2306820F0070038433060306800F005
:104E90000700B84251D128683B4C810712D5400722
:104EA00003D5606840F4E06060602878000703D5AF
:104EB000606840F4605060606068A96820F0F000AD
:104EC000084360602878C00728D06868012810D09F
:104ED0002168022810D0890700292EDA616821F0A4
:104EE000030101436160FFF721FF804641F28839E9
:104EF0000DE021688903EFE78901EDE7FFF716FF71
:104F0000A0EB0801494502D90320BDE8F08760689D
:104F1000696800F00C00B0EB810FEFD1306800F051
:104F20000700B8420BD9306820F0070038433060E2
:104F3000306800F00700B84201D00120E5E728788A
:104F4000400705D56068E96820F4E06008436060C8
:104F50002878000706D56068296920F4605040EA87
:104F6000C100606000F038F86168084AC1F30311BD
:104F7000515CC8400649086006480068FFF7F6FE25
:104F80000020C2E70020024000100240C661000875
:104F90000C0000200400002004480549006849680E
:104FA000044AC1F30221515CC84070470C00002044
:104FB00000100240D66100080448054900684968AD
:104FC000044AC1F3C221515CC84070470C00002064
:104FD00000100240D66100080E4A51680E4801F0E8
:104FE0000C03042B11D0082B0FD10C48C1F38343C1
:104FF000C903C05C0AD55168084AC1F34041921EFA
:10500000515C054A5043B0FBF1F0704704494843F6
:10501000704700000010024000127A00B6610008DC
:1050200000093D002DE9F84F040070D02078C04DF4
:10503000C00749D06868C0F38100012807D06868BC
:10504000C0F38100022809D16868C00306D528682A
:10505000800339D560680028E7D035E06068B0F596
:10506000803F0BD010B1B0F5A02F11D0286820F4EC
:1050700080302860286820F4802002E0286840F40E
:1050800080302860606890B1FFF750FE06460AE065
:10509000286840F480202860F0E700BFFFF746FE54
:1050A000801B642873D828688003F7D50CE0FFF7CD
:1050B0003DFE064605E000BFFFF738FE801B642872
:1050C000F0D828688003F7D420789A4E80074FF0F4
:1050D00001094FF0000839D5686810F00C0F07D0AF
:1050E0006868C0F38100022809D16868C00306D44B
:1050F0002868800714D52069012808D110E02069AC
:10510000B0B1C6F80090FFF711FE074605E00AE1CE
:10511000FFF70CFEC01B0228C4D828688007F7D50B
:105120002868616920F0F80040EAC10028600DE0BD
:10513000C6F80080FFF7FAFD074604E0FFF7F6FD2A
:10514000C01B022823D828688007F7D420780007DE
:105150002CD57948A169D9B1C0F80090FFF7E6FDD8
:10516000074604E0FFF7E2FDC01B02280FD8686A7B
:105170008007F7D571484FF4FA510068B0FBF1F0A1
:10518000009000BF0098411E0091FAD20EE080E02E
:10519000C0F80080FFF7CAFD074604E0FFF7C6FD30
:1051A000C01B022875D8686A8007F7D420784007AA
:1051B00060D5E8690027C00008D4E86940F0805055
:1051C000E861E869012700F0805000905C480168C0
:1051D000C90513D40168834641F480710160FFF76B
:1051E000A5FD824606E000BFFFF7A0FDA0EB0A0088
:1051F00064284ED8DBF80000C005F5D5E06801282A
:105200000AD008B1052813D0286A20F001002862CE
:10521000286A20F0040002E0286A40F001002862B9
:10522000E06841F2883B98B1FFF780FD82460BE0D1
:10523000286A40F004002862EEE700BFFFF776FD21
:10524000A0EB0A0159455AD8286A8007F6D50CE028
:10525000FFF76CFD824605E0FFF768FDA0EB0A0151
:1052600059454CD8286A8007F6D41FB1E86920F068
:105270008050E861E06988B36968C1F3810102295F
:1052800044D00228C6F8608004D0FFF74FFD0446E2
:1052900038E034E0FFF74AFD074604E0FFF746FD3B
:1052A000C01B02282BD828688001F7D4206AB0F5EB
:1052B000803F05D16868A16820F400300843686029
:1052C000D4E908010843696821F47411084368604F
:1052D000C6F86090FFF72AFD044606E025E000BF0F
:1052E000FFF724FD001B022809D828688001F7D5A4
:1052F0001BE000BFFFF71AFD001B022802D90320A4
:10530000BDE8F88F28688001F4D40EE00128F7D0BA
:105310006868226A00F48031914204D1616A00F425
:105320007010884201D00120EAE70020E8E7000081
:105330000010024000004242800442420C00002063
:105340000070004010B5401EB0F1807F01D30120F5
:1053500010BD4FF0E02460610F21601700F000FEE7
:105360000020A06107202061002010BD2DE9F84F2A
:10537000044690F84200DDF828901F4615460E4678
:10538000202802D00220BDE8F88FF6B1EDB14FF031
:105390000008C4F84480222184F8421001212163CE
:1053A000C4F83480FFF7C2FCA5858246E585A06875
:1053B0004FF4805B584501D1206940B13546002645
:1053C000A7F800804FF020083AE00120DBE7002535
:1053D000F6E720680168C9060AD5016841680091AE
:1053E000398829B10220606384F842800020CAE72E
:1053F0000168890618D525B1A168594528D031B171
:1054000007E04068C0F3080026F8020B06E02169B7
:10541000F1B1406800F07F0005F8010B3888401CAE
:105420003880E08D401EE085B9F1FF3F08D0FFF7DE
:105430007DFCA0EB0A0149450CD8B9F1000F09D059
:10544000E08D0028C5D1A08DE18D401A3880CBE7D2
:105450004068E1E784F84280032094E718B50346EA
:1054600090F84200202801D0022018BD61B15AB145
:105470000120186300205863184600F005FD00283D
:10548000F3D1196B012901D0012018BD19680A68F0
:105490004968009119680C3151E8002F42F0100260
:1054A00041E80024002CF5D118BD000038B5006893
:1054B000124A904220D1124C6180A0880844A080FA
:1054C000FFF72AFBFFF7E4F8FFF7DCFA4FF400756B
:1054D00029460C48FEF73DFE0B480068016841680C
:1054E00000910168406800902A4606490648FFF787
:1054F000B5FFFFF71BFCE06038BD0000003801403D
:1055000010000020980000203000002070470000AC
:10551000F8B5016804460868CA684B6910F00F0FB7
:105520004FF0000559D003F0010602F4907737439D
:1055300065D0C10705D0D10503D5616C41F00101EB
:105540006164410705D5D90703D0616C41F00201C0
:105550006164810705D5D90703D0616C41F004016E
:105560006164010707D502F02001314303D0616C6B
:1055700041F008016164616C00293AD0800604D5CD
:10558000900602D5204600F0C2FB20684069616C9D
:10559000C0F38010090700D460B3204600F090FBF0
:1055A00020684069400621D52068143050E8001F6B
:1055B00021F0400140E80012002AF5D1E06BA8B1CB
:1055C0006D494163E06BFFF7ADF9002811D0E06B46
:1055D000416B01B0BDE8F040084783060FD5930644
:1055E0000DD52046BDE8F84000F091BB2046FFF7FE
:1055F0008DFFF8BD2046FFF789FF6564F8BD266B77
:105600002023012E7CD1C6067AD5D60678D5086827
:105610004868009048694FF00206400640D5E16BAB
:10562000086840680004000CE8D0A28D8242E5D9E9
:10563000E085886920282DD020680C3050E8001FB4
:1056400021F4807140E80012002AF5D1206814305E
:1056500050E8001F21F0010140E80012002AF5D1B6
:105660002068143050E8001F21F0400140E800128B
:10567000002AF5D184F84230256320680C3050E8C8
:10568000001F21F0100140E80012002AF5D1E06B64
:10569000FFF724F96663A08DE18D401A81B22AE0FC
:1056A000A08DE18D401A81B2E08D0028A6D000299E
:1056B000A4D022680C3252E8000F20F4907042E827
:1056C0000007002FF5D12068143050E8002F22F099
:1056D000010240E80027002FF5D184F8423025630D
:1056E00020680C3050E8002F22F0100240E8002320
:1056F000002BF5D166632046FFF7D8FEF8BDFFE723
:1057000005062BD5150629D594F841002128F5D199
:10571000A068B0F5805F01D12069B0B1206A411C5A
:105720002162216800784860E08C401E0004000C73
:10573000E084E3D12068C16821F08001C160206865
:10574000C16841F04001C160D8E7206A0088C0F319
:1057500008004860206A801C2062E5E74006CDD53D
:105760005006CBD5CA68204622F04002CA6084F8B1
:10577000413000F0C6F8C1E7B15C000870B5040024
:1057800004D094F84100002510B106E0012070BD5E
:1057900084F84050204600F023F8242084F841008B
:1057A0002068C16821F40051C160204600F010FB60
:1057B0002068016921F4904101612068416921F06C
:1057C0002A0141612068C16841F40051C1606564EB
:1057D000202084F8410084F842006563002070BDF9
:1057E00030B585B0002400940194029403940068BD
:1057F000184988422CD11848816941F4804181615F
:10580000816901F480410491816941F00401816161
:105810008069124D00F0040004904FF40070009075
:10582000022001900320039069462846FFF788F97B
:105830002815CDE90004694628460294FFF780F94F
:10584000002211462520FFF7DFFA2520FFF7CEFAC8
:1058500005B030BD00380140001002400008014092
:1058600070472DE9F843044690F8410098461646E3
:105870000D46202802D00220BDE8F88385B17EB114
:1058800000206064212084F84100FFF74FFAA684CD
:105890008146E684A0682027B0F5805F02D003E04F
:1058A0000120E9E7206910B12E4600250EE0002610
:1058B0000CE08021204600F002FBA8B9C6B116F822
:1058C000010B21684860E08C401EE084E08C4B4670
:1058D0004FF00002CDF800800028EAD14FF04001DF
:1058E000204600F0ECFA40B184F841700320C3E791
:1058F00035F8020BC0F30800E3E784F8417000209C
:10590000BAE77047FEE700002DE9F04186B00024B9
:1059100021480094019402940394816941F010019C
:105920008161816901F010010491816941F00401F4
:105930008161816901F004010491816941F00801EC
:1059400081618069012200F00800144F5503049022
:1059500029463846FFF7E4F9DFF844804FF44076F3
:10596000012231464046FFF7DBF901200095CDE9E1
:1059700001040320039069463846FFF7E1F811203F
:105980000096CDE901040220039069464046FFF7E6
:10599000D7F806B0BDE8F0810010024000100140C9
:1059A000000C0140FEE7FEE770B500240021204610
:1059B00000F0D6F80025002000F03CF96D1CEDB297
:1059C000802DF8D3641CE4B2082CEFD370BD000026
:1059D00010B5064C012211022046FFF7A1F920461E
:1059E0000122BDE810405102FFF79AB9000C0140B6
:1059F0002DE9F047144E002407464FF080084FF47D
:105A00000079B51528FA04F23A4049463046FFF7C6
:105A100087F9012229463046FFF782F900222946FC
:105A20003046FFF77DF9641CE4B2082CEAD301226A
:105A300029463046FFF774F929463046BDE8F0475D
:105A40000022FFF76DB90000000C014070B5012283
:105A50000B4D540221462846FFF762F90122160237
:105A600031462846FFF75CF9002221462846FFF719
:105A700057F931462846BDE870400022FFF750B97B
:105A8000000C014070B50A4D4FF40074002221460D
:105A90002846FFF745F9012211022846FFF740F991
:105AA00021462846BDE870400122FFF739B90000C1
:105AB000000C014010B500204FF47A720021491CFF
:105AC0009142FCD3401C9042F8D3FFF781FFAE20F7
:105AD00000F09FF8D52000F09CF8802000F099F8A5
:105AE000A82000F096F83F2000F093F8D32000F0B3
:105AF00090F8002000F08DF8402000F08AF8A120F6
:105B000000F087F8C82000F084F8DA2000F081F86F
:105B1000122000F07EF8812000F07BF8CF2000F00A
:105B200078F8D92000F075F8F12000F072F8DB2049
:105B300000F06FF8302000F06CF8A42000F069F855
:105B4000A62000F066F88D2000F063F8142000F025
:105B500060F8AF2000F05DF8BDE81040FFF724BF0B
:105B600010B50C4640F0B00000F053F8102040EAA9
:105B7000141000F04EF804F00F00BDE8104000F0E3
:105B800048B800002DE9F0410746CE004000083E2D
:105B9000801E15464FF0FF38F1B2C0B2FFF7E0FFAC
:105BA0001148002400EB05152819A0F5805090F845
:105BB000000E00F03FF8641CE4B2082CF4D308EBAC
:105BC0004700F1B2C0B2FFF7CBFF00242819A0F5BF
:105BD000805090F8080E00F02DF8641CE4B2082CF8
:105BE000F4D3BDE8F0810000DE6100082DE9F0414A
:105BF00015460E460746002406E03019C1B2384665
:105C0000FFF7C0FF641CE4B22A5D002AF5D1BDE8AD
:105C1000F08110B50446FFF719FF7820FFF7E8FE82
:105C20000020FFF7E5FE2046FFF7E2FEBDE810404A
:105C3000FFF728BF10B50446FFF708FF7820FFF7ED
:105C4000D7FE4020FFF7D4FE2046FFF7D1FEBDE887
:105C50001040FFF717BF70477047FFF76DB810B5DA
:105C600090B028216846FEF774FA14210AA8FEF7BE
:105C700070FA02200090012004901020002405906A
:105C800007946846FFF7CEF908B172B6FEE70F2019
:105C9000CDE90A040C940D9400210AA80E94FFF794
:105CA000E5F8002801D072B6FEE710B010BD7047CD
:105CB00010B5406A0021C185C184FFF727FC10BDE3
:105CC00001680C3151E8002F22F4907241E8002362
:105CD000002BF5D10168143151E8002F22F00102A8
:105CE00041E80023002BF5D1016B012909D101689E
:105CF0000C3151E8002F22F0100241E80023002B64
:105D0000F5D1202180F8421000210163704708B5C9
:105D100090F84210222901D0022008BD82684FF479
:105D200080539A4201D1016921B1816A9A421BD004
:105D30004AB10AE00268816A5268C2F308020A8026
:105D4000816A891C08E0026972B10268526802F037
:105D50007F020A70816A491C8162C18D491E090453
:105D6000090CC18503D01BE002685268F1E70168A5
:105D7000CA6822F02002CA600168CA6822F48072F0
:105D8000CA6001684A6922F001024A61202180F854
:105D9000421000214163026B012A03D0FFF760FD2E
:105DA000002008BD016301680C3151E8002F22F08A
:105DB000100241E80023002BF5D101680A68D206E1
:105DC00002D50A6849680091818DFFF76FFBE7E70C
:105DD00070B5044600680169E26821F4405111433E
:105DE00001612169A0680843616908432168CA68A4
:105DF00041F20C639A430243CA6020684169A26978
:105E000021F44071114341611E492068884202D14A
:105E1000FFF7D2F801E0FFF7BFF800EBC00101EB9C
:105E20000012606864218000B2FBF0F3B3FBF1F371
:105E30006FF018067343B2FBF0F5B2FBF0F605EB1A
:105E40008305322303EB0515B5FBF1F5B6FBF1F63F
:105E500005F0F00505EB0615B2FBF0F6B2FBF0F02D
:105E6000B0FBF1F06FF01802504306EB800003EB3B
:105E70000010B0FBF1F0216800F00F0028448860AA
:105E800070BD00000038014081628285C28500211A
:105E90004164222180F84210016921B10168CA6879
:105EA00042F48072CA6001684A6942F001024A61A4
:105EB0000068C16841F02001C160002070472DE9F1
:105EC000F843984617460D460446089E24E0701C89
:105ED00022D0FEF72BFFA0EB0800B0421AD8CEB1BB
:105EE0002068C168490717D5802D15D0402D13D0E3
:105EF0000168C94309070FD4016800254068009074
:105F00002046FFF7DDFE0820606484F84050012041
:105F1000BDE8F8830320FBE72068006835EA00004D
:105F200004D00020B842D2D00020F1E70120F9E7E8
:105F30000148FFF7EDBA000030000020FEE7000046
:105F40000FB4054B10B503A9044A029800F03EF8BF
:105F500010BC5DF814FB000021610008280000203F
:105F60000907090E002804DB00F1E02080F8001486
:105F7000704700F00F0000F1E02080F8141D70471A
:105F8000BFF34F8F05480168054A01F4E0611143F2
:105F90000160BFF34F8F00BFFDE700000CED00E094
:105FA0000400FA05004870472C00002002E008C8F1
:105FB000121F08C1002AFAD170477047002001E083
:105FC00001C1121F002AFBD1704700002DE9FF4FCD
:105FD00089B09B460446002506E025280BD05A468A
:105FE0000B999047641C6D1C20780028F5D10DB0EA
:105FF0002846BDE8F08F0027B8460122474900E057
:10600000074314F8013F203B02FA03F00842F7D19E
:1060100020782E2819D114F8010F47F004072A28F8
:106020000ED06FF02F022078A0F1300109290CD892
:1060300008EB880102EB410100EB0108641CF2E768
:106040000A98641C50F8048B0A9020780028CED05F
:10605000642808D0692806D075281ED05A460B99A6
:1060600090476D1C58E00A994FF00A0901C90A913E
:10607000002802DA40422D2102E0390504D52B2107
:106080008DF82010012103E0F90704D02021F7E763
:106090008A4608AE0DE00021FAE70A994FF00A0996
:1060A00001C90A91F7E74946FEF77DF8303106F855
:1060B000011D0028F7D1ADEB060000F1200978079B
:1060C00001D44FF00108C84502DDA8EB090000E04B
:1060D00000208046002706E008A85A46C05D0B99BC
:1060E00090476D1C7F1C5745F6DB04E030205A4674
:1060F0000B9990476D1CB8F10001A8F10108F5DC7F
:1061000005E016F8010B5A460B9990476D1CB9F142
:106110000001A9F10109F4DC641C65E7092801000C
:1061200013B54FF0FF33012269460248FFF799FB90
:1061300000981CBD3000002072B61748174908604F
:1061400062B6FEF701FEFFF78AFDFFF7DDFB15489B
:1061500013490C2201604FF4E1314160002181605C
:10616000C160C0E904128161C161FFF707FB08B19A
:1061700072B6FEE700224FF400510B48FEF7D0FD47
:10618000FFF798FC012109A20846FFF72FFD00BF89
:10619000FEF7A0F9FCE700000040000808ED00E071
:1061A0000038014030000020001001407265736526
:1061B00074000000010202030405060708090A0B27
:1061C0000C0D0E0F10100000000000000000010276
:1061D0000304060708090000000001020304000090
:1061E00000000000000000000000000000000000AF
:1061F00000F8000000000000003330000000001034
:106200000C06100C0600000000000000000040C05A
:106210007840C0784000043F04043F04040000704C
:1062200088FC08300000001820FF211E0000F00844
:10623000F000E018000000211C031E211E0000F0E9
:106240000888700000001E21232419272110101631
:106250000E00000000000000000000000000000030
:1062600000E01804020000000007182040000002AF
:106270000418E00000000040201807000000404023
:1062800080F0804040000202010F01020200000085
:1062900000F0000000000101011F010101000000E9
:1062A00000000000000080B070000000000000004E
:1062B00000000000000000010101010101010000D7
:1062C000000000000000003030000000000000006E
:1062D000000080601804006018060100000000E063
:1062E00010080810E000000F102020100F00001010
:1062F00010F8000000000020203F20200000007067
:10630000080808887000003028242221300000305E
:106310000888884830000018202020110E00000056
:10632000C02010F8000000070424243F240000F8D7
:106330000888880808000019212020110E0000E0BC
:10634000108888180000000F112020110E0000385E
:106350000808C83808000000003F00000000007076
:10636000880808887000001C222121221C0000E0FF
:1063700010080810E0000000312222110F00000078
:1063800000C0C0000000000000303000000000002D
:10639000008000000000000080600000000000009D
:1063A0008040201008000001020408102000404036
:1063B0004040404040000404040404040400000879
:1063C000102040800000002010080402010000702E
:1063D00048080808F0000000003036010000C03016
:1063E000C828E810E0000718272423140B00000039
:1063F000C038E0000000203C23020227382008F8C3
:10640000888888700000203F202020110E00C030B6
:10641000080808083800071820202010080008F88D
:1064200008080810E000203F202020100F0008F886
:106430008888E8081000203F20202320180008F852
:106440008888E8081000203F200003000000C030CA
:1064500008080838000007182020221E020008F84B
:1064600008000008F808203F210101213F20000812
:1064700008F8080800000020203F2020000000004D
:106480000808F8080800C08080807F00000008F835
:1064900088C028180800203F20012638200008F86E
:1064A000080000000000203F20202020300008F8D5
:1064B000F800F8F80800203F003F003F200008F8EF
:1064C00030C00008F808203F200007183F00E01007
:1064D00008080810E0000F10202020100F0008F816
:1064E00008080808F000203F210101010000E01029
:1064F00008080810E0000F18242438504F0008F84E
:10650000888888887000203F2000030C30200070AD
:106510008808080838000038202121221C001808AB
:1065200008F8080818000000203F2000000008F8C4
:1065300008000008F808001F202020201F0008780D
:10654000880000C83808000007380E010000F8086D
:1065500000F80008F800033C0700073C0300081897
:1065600068808068180820302C03032C30200838FD
:10657000C800C83808000000203F200000001008B4
:106580000808C838080020382621202018000000FC
:1065900000FE020202000000007F40404000000CAC
:1065A00030C000000000000000010638C0000002FA
:1065B0000202FE000000004040407F00000000009A
:1065C00004020202040000000000000000000000BD
:1065D00000000000000080808080808080800002B9
:1065E00002040000000000000000000000000000A5
:1065F0008080808000000019242222223F2008F899
:10660000008080000000003F112020110E000000DB
:10661000008080800000000E11202020110000006A
:1066200000808088F800000E112020103F2000001C
:10663000808080800000001F222222221300008020
:1066400080F0888888180020203F2020000000006B
:10665000808080808000006B94949493600008F8A0
:10666000008080800000203F210000203F2000802B
:106670009898000000000020203F2020000000002B
:1066800000809898000000C08080807F000008F89B
:10669000000080808000203F24022D302000000870
:1066A00008F8000000000020203F2020000080802B
:1066B000808080808000203F20003F20003F80803D
:1066C000008080800000203F210000203F2000004B
:1066D000808080800000001F202020201F008080FC
:1066E00000808000000080FFA12020110E0000002B
:1066F000008080808000000E112020A0FF8080801C
:1067000080008080800020203F21200001000000C8
:10671000808080808000003324242424190000809D
:1067200080E0808000000000001F202000008080AA
:10673000000000808000001F202020103F2080806B
:1067400080000080808000010E30080601008080FB
:106750000080008080800F300C030C300F00008020
:106760008000808080000020312E0E31200080804B
:1067700080000080808080818E701806010000807B
:106780008080808080000021302C22213000000099
:106790000000807C020200000000003F404000003A
:1067A0000000FF00000000000000FF0000000002E9
:1067B000027C800000000040403F00000000000616
:1067C000010102020404000000000000000000407B
:1067D00040404040404040404141414141404040B4
:1067E00040404040404040404040404040404005E4
:1067F000020202020202020202020202020202205B
:10680000202020202020202020020202020202025A
:106810009090909090901010101010101010101078
:1068200010101010101010101010020202020202BC
:1068300088888888888808080808080808080808D8
:1068400008080808080808080808020202024000B0
:10685000CF670008746800080000002030000000C6
:10686000AC5F0008A468000830000020A806000003
:10687000BC5F0008010000001000000000000000E4
:1068800000127A000000000000000000000000007C
:1068900000000000000000000000000000000000F8
:0468A00000000000F4
:04000005080040EDC2
:00000001FF
