:020000040800F2
:1000000058420020990100084D4600084D3F000865
:10001000E1450008AD10000871560008000000001E
:1000200000000000000000000000000001010008C6
:10003000851300080000000045010008594F000822
:10004000B3010008B3010008B3010008B3010008C0
:10005000B3010008B3010008B3010008B3010008B0
:10006000B3010008B3010008B3010008B3010008A0
:10007000B3010008B3010008B3010008B301000890
:10008000B3010008B3010008B3010008B301000880
:10009000B3010008B3010008B3010008B301000870
:1000A000B3010008B3010008B3010008B301000860
:1000B000B3010008B3010008FD4F0008B3010008B8
:1000C000B3010008B3010008B3010008B301000840
:1000D000B3010008B301000861560008B30100082D
:1000E00087130008B3010008B3010008DFF80CD043
:1000F00000F0F6FC00480047D16E0008584200208E
:10010000224B19680868B0E8F00F80F30988BFF344
:100110006F8F4FF0000080F311884EF00D0E704786
:100120000000000006480068006880F3088862B696
:1001300061B6BFF34F8FBFF36F8F00DF00BF00BF0B
:1001400008ED00E0EFF30980BFF36F8F0F4B1A68E3
:1001500020E9F00F106008B54FF0500080F31188CF
:10016000BFF34F8FBFF36F8F09F0EAF84FF0000035
:1001700080F31188BDE8084019680868B0E8F00FFE
:1001800080F30988BFF36F8F704700BF1400002011
:10019000EFF3058070470000064880470648004797
:1001A000FEE7FEE7FEE7FEE7FEE7FEE7FEE7FEE727
:1001B000FEE7FEE7FB4F0008ED0000082DE9F05FC9
:1001C0000546002092469B468846064681464024C6
:1001D0001BE0284641464746224600F020F8534699
:1001E0005A46C01A914110D311461846224600F0D3
:1001F00067FB2D1A67EB01084F46224601200021BC
:1002000000F05EFB17EB00094E41201EA4F1010433
:10021000DFDC484631462A464346BDE8F09F202AA7
:1002200004DB203A21FA02F00021704721FA02F3A0
:10023000D040C2F12002914008431946704740EA7D
:1002400001039B0703D009E008C9121F08C0042A54
:10025000FAD203E011F8013B00F8013B521EF9D23B
:100260007047D2B201E000F8012B491EFBD2704763
:100270000022F6E710B513460A4604461946FFF772
:10028000F0FF204610BD30B505462A460B4612F851
:10029000010B13F8014B08B1A042F8D01CB10028A3
:1002A00002D06D1CF1E7284630BD421C10F8011B3E
:1002B0000029FBD1801A704710B5002200E0521CC3
:1002C000835C8C5CA34201D1002BF8D1D8B2E1B29F
:1002D000401A10BD0FB400B58DB010A909900B9055
:1002E00000914FF0FF300A9000200C9005480690D6
:1002F000054807906A4609A80F9900F017FB0DB052
:100300005DF814FB49090008670900082DE9FF5F43
:100310001D464FF0FF3BD5E9014691465F464FF041
:100320000008A9697F1C01988847296A8246884786
:100330000028F6D1BAF1FF3F0CD024F4C064002E9F
:1003400019DD600614D5BAF12B0F09D0BAF12D0FC3
:100350000ED103E0584604B0BDE8F09F44F4806439
:10036000A9697F1C01988847761E8246002E02DD0F
:10037000BAF1300F03D0B9F1000F26D032E0A969ED
:10038000761E44F400747F1C019888478246002E34
:1003900005DDBAF1780F06D0BAF1580F03D0B9F1E4
:1003A000000F10D01EE0B9F1000F02D0B9F1100F0C
:1003B00018D1A969761E24F400747F1C019888471F
:1003C0008246102002E0082000E00A20814609E071
:1003D00008FB0908A969761E44F400747F1C019883
:1003E00088478246002E05DD4946504600F089FACE
:1003F0000028EDDAE96901988847A00502D46FF07A
:100400000100A8E7E00725D1600613D5600502D5F5
:10041000C8F1000000E0404629680A1D2A6009680A
:10042000220501D5087015E0220701D5088011E0EA
:1004300008600FE02868011D29600068210502D5C9
:1004400080F8008006E0210702D5A0F8008001E0D6
:10045000C0F8008038467EE72DE9FE4F804681EAED
:100460000300C00F0C46009021F0004123F000452E
:10047000B8EB0200A94105D24046214690461C46F1
:100480000B46024623F00040104347D0270DC7F328
:100490000A00C3F30A510290401A019040286BDA17
:1004A000C3F3130040F4801B0098924620B1002350
:1004B000D2EB030A63EB0B0B01985946C0F14002E3
:1004C000504600F0FDF906460D4650465946019A41
:1004D00000F005FA10EB08006141002487EA115290
:1004E00084EAE7731A4340D0009A62B3019A012A62
:1004F0004FEA075215DC001B61EB02014FF000428E
:1005000002EA0752CDE90042001C41F58011324653
:100510002B4600F07FFA03B0BDE8F08F404621463D
:10052000F9E7001B61EB0201001C41F58013001884
:100530005B412018A2F5001747EB030140EAD57094
:10054000B6196D4111E06D084FEA360645EAC075EF
:100550004FEA0752001B61EB0201001C41F58011BC
:1005600049084FEA30000019514132462B4603B08A
:10057000BDE8F04F00F03FBA009801224000002390
:10058000D0EB020263EBE073009821464FEAE0747F
:10059000B8EB000061EB0401E9E783F000435BE79F
:1005A00081F0004158E72DE9FE4F81EA030404F091
:1005B000004421F0004100944FF0000B23F0004371
:1005C00050EA01045ED052EA03045BD0C3F30A543C
:1005D000C1F30A552C44A4F2F3340194A0FB025455
:1005E000C1F3130141F48011C3F3130343F48013E7
:1005F00001FB024400FB034E840A970A44EA81543B
:1006000047EA8357A4FB076802958D0A05FB078517
:100610004FEA932C04FB0C542705029D4FEA065821
:1006200047EA1637B5EB08056EEB070C870E920EFE
:1006300047EA811742EA8312A7FB0201B6EB0B01DE
:1006400064EB00042B0D43EA0C335E1844EB1C50A2
:10065000DA465146E7FB0201C5F313044FEA0B33B8
:1006600043EA14534FEA0432019C43EA0603A4F11F
:100670000C040294009CCDE900B400F0CBF903B067
:10068000BDE8F08F00200146F9E72DE9F04D81EA41
:10069000030404F0004B21F0004514464FF0000A1B
:1006A00023F0004150EA050220D054EA01021DD097
:1006B000C5F30A570246C5F31303C1F31300C1F390
:1006C0000A5640F4801543F48013A7EB0608101B6C
:1006D000D64608F2FD3873EB050002D308F1010895
:1006E00001E092185B41B8F1000F03DA00200146E7
:1006F000BDE8F08D00204FF48011064684460EE0E0
:10070000171B73EB050705D3121B63EB05030643A9
:100710004CEA010C49084FEA300092185B4150EA5C
:100720000107EDD152EA030012D082EA040083EA05
:100730000501084305D0101BAB4106D2012200235E
:1007400006E000224FF0004302E06FF00102531078
:100750001AEB06004CEB085110EB0A0041EB0B01C1
:10076000BDE8F04D00F047B90EB5C10F80EAE0706A
:100770000844CA07002140F233438DE80E000A46C0
:100780000B4600F047F903B000BD0EB540F233410F
:1007900002910021CDE900110A460B4600F03AF91A
:1007A00003B000BDC1F30A5210B5C1F3130140F20A
:1007B000FF3341F480119A4201DA002010BD40F26B
:1007C00033439A42A2F2334203DC5242FFF727FD41
:1007D00010BD904010BD00F0004230F000400AD043
:1007E000C10D01F56071C0F3160042EA0151C20863
:1007F00040071143704700200146704730B5041E82
:1008000071F1000404DB4FF00044404264EB01014D
:10081000141E73F1000405DB1C464FF000435242E6
:1008200063EB04038B4208BF824230BD30B5041E27
:1008300071F1000404DB4FF00044404264EB01011D
:10084000141E73F1000405DB1C464FF000435242B6
:1008500063EB0403994208BF904230BD01F00043AE
:1008600030B421F0004150EA010206D00A0DA2F591
:100870006072C1F31301002A02DC30BC0020704713
:10088000440F44EAC104C100E01830BC00EBC25080
:1008900000F07AB830B50B46014600202022012432
:1008A00009E021FA02F59D4205D303FA02F5491B3E
:1008B00004FA02F52844151EA2F10102F1DC30BD54
:1008C000202A04DB203A00FA02F100207047914010
:1008D000C2F1200320FA03F3194390407047202A05
:1008E00006DBCB17203A41FA02F043EAE07306E058
:1008F00041FA02F3D040C2F1200291400843194668
:1009000070473A2800D2303820F02002412A01D323
:10091000A2F13700884201D34FF0FF30704700004A
:10092000026811441378016018467047D160044989
:1009300051610449116200211161114600F0E8B8CB
:1009400021090008050B0008426842B1016811F84E
:10095000013B23B1521EC0E9001218467047012125
:10096000C160881E704742685AB1C368016843B9C4
:1009700083688B4205D0491E521CC0E9001200203A
:1009800070474FF0FF3070470029A8BF7047401CE8
:10099000490008BF20F00100704710B4B0FA80FC95
:1009A00000FA0CF050EA010404BF10BC704749B1D2
:1009B000CCF1200421FA04F411FA0CF118BF012142
:1009C00021430843A3EB0C01CB1D4FEA00614FEA22
:1009D000102042BF002010BC704700EBC3501044F1
:1009E0000029A4BF10BC7047401C490008BF20F07C
:1009F000010010BC704710B5141E73F1000408DA32
:100A0000401C41F1000192185B411A4301D120F0D2
:100A1000010010BD2DE9F04D92469B4611B1B1FA8F
:100A200081F202E0B0FA80F220329046FFF748FFF0
:100A300004460F4640EA0A0041EA0B0153465A4673
:100A4000084313D0114653EA010019D0C8F14002FF
:100A50005046FFF7E4FB05460E46504659464246CF
:100A6000FFF72EFF084305D0012004E02046394659
:100A7000BDE8F08D0020054346EAE0762C4337437D
:100A80000A986305E40AA0EB08000022FD0A44EA84
:100A900047540A3002D500200146E9E70105101944
:100AA0006941DDE9084500196941BDE8F04DA2E75B
:100AB000C1F30A52C1F3130140F2FF3341F4801134
:100AC0009A4202DA00200146704740F233439A42CC
:100AD000A2F2334202DC5242FFF7A1BBFFF7F0BEA5
:100AE000064C074D06E0E06840F0010394E807007B
:100AF00098471034AC42F6D3FFF7FCFA8CBA0008E2
:100B0000ACBA0008C0B24FF4F05100F097B9000041
:100B10002DE9F34F8BB04FF0000801F10C000C46AB
:100B20004FF0010B46460DF1080A01906269012160
:100B300001989047051E2DD0252D2CD0216A88477D
:100B4000C0B16269012101989047216A8847002855
:100B5000F7D1411E62690198904700E0761CA169B7
:100B60000B988847216A88470028F7D1E1690B98DC
:100B70008847DBE7A1690B9888470746A84201D15F
:100B8000761CD3E7E1690B9888477F1C02D1B8F146
:100B9000000F6FD046E1002762693D463946019853
:100BA00090472A2804D162690121019890470125C4
:100BB000DFF884926269012101989047A0F1300129
:100BC0000A290AD24F45E5DC07EB870100EB410714
:100BD000303FDFD445F01005ECE7E90601D46FF0B3
:100BE00000476C280AD04C2814D0682815D06A28F1
:100BF0000DD074281CD07A281AD01DE0626901211A
:100C0000019890476C2802D045F0040514E045F0A7
:100C100002050DE045F020050AE062690121019816
:100C20009047682802D045F0080505E045F40065C6
:100C30006269012101989047C4E9015765283DD0B8
:100C400019DC58287AD00CDC452837D004DC25285C
:100C500026D0412831D131E046282FD047282CD149
:100C60002CE05B2877D0612828D063287CD06428CA
:100C700023D15AE0D0E06F2848D008DC66281DD088
:100C800067281BD0692821D06E2816D127E070284C
:100C900045D0732868D0752847D078280DD14DE00D
:100CA000A1690B988847054625283FF469AFE1699B
:100CB0000B9888476D1C3FF46AAFB3E023466A4641
:100CC0006FF001000B99AFF300809EE045F040000B
:100CD0006060A80723464FF0000236D43EE0E807E4
:100CE0007FF447AF2068011D21600068290501D508
:100CF00006701BE7290701D5068017E7A90703D56A
:100D0000F117C0E9006111E706600FE745F0400008
:100D10006060A80723464FF0080216D41EE040F694
:100D20000E0125EA0100606016E045F040006060B9
:100D3000A80723464FF00A0207D40FE045F0400011
:100D40006060A80708D5234610226FF001000B99B8
:100D5000AFF3008059E007E0234610226FF0010056
:100D60000B99FFF7D3FA50E04FF000094F464B467E
:100D7000632802D05B2806D040E0E80601D40120B9
:100D8000A06001273AE062690121019890475E283E
:100D900005D14FF0010962694946019890472169E0
:100DA00039B900210A46534643F82120491C082935
:100DB000FADBB0B3216969B9C11700EBD1625311F5
:100DC0000AEB830122F01F02821A01200B68904077
:100DD00003430B6062690121019890475D28E8D1C7
:100DE000B9F1000F09D00020514651F82020D2431C
:100DF00041F82020401C0828F7DB02AB2246009770
:100E00006FF001000B99AFF3008000280CDA401C52
:100E100008D1BBF1000F05D04FF0FF300DB0BDE899
:100E2000F08FFFE74046F9E7E90701D108F1010833
:100E300006444FF0000B79E6CCCCCC0C7F2801D9CE
:100E4000002208E0064A02EB5002C007127800D1E7
:100E5000120902F00F020120904008407047000084
:100E60008AB8000870B5044600252068806800F044
:100E7000010018B32068806820F0010021688860B4
:100E800001F06AF8054613E001F066F8401B0228FD
:100E90000ED92068806800F0010048B1A06A40F0D7
:100EA0001000A062E06A40F00100E062012070BD25
:100EB0002068806800F001000028E5D10020F6E7F6
:100EC00070B505466C6AA06A00F05000E0B9A06AEF
:100ED00040F40070A0622068806800F46020B0F5E3
:100EE000602F0DD1207B58B9A06A20F48070A062D9
:100EF000A06A00F4805018B9A06A40F00100A06216
:100F0000204600F0B1FB03E0206A016B28468847C9
:100F100070BD70B505466C6AA06A40F04000A062E2
:100F2000E06A40F00400E062204600F09FFB70BDE4
:100F300070B50446656A284600F097FB70BD000056
:100F400038B504460025002000902068806800F035
:100F5000010078BB2068806840F00100216888604B
:100F6000194800681949B0FBF1F0009002E00098C0
:100F7000401E009000980028F9D100F0EDFF0546D2
:100F800019E000F0E9FF401B022814D920688068AE
:100F900000F0010078B9A06A40F01000A062E06A99
:100FA00040F00100E06200BF002084F8240000BF90
:100FB000012038BD05E02068806800F001000028AD
:100FC000DFD00020F5E700001000002040420F00B5
:100FD0000146024830F811007047000094000020DC
:100FE00010B5044800F002FA02220349014800F05B
:100FF00039FC10BDFC0000209400002010B5042135
:10100000024802F03BFC00F025F810BD1002002061
:101010002DE9F041804614461D46DDE906670021B2
:1010200084EA0100694008430BD0094800688462E3
:10103000404600F015F8304607F0B2FF00F00AF81D
:1010400004E000F007F8304607F0AAFFBDE8F081A1
:101050001002002000B5002000F002F800BD0000E2
:101060000149096888637047100200202DE9F05F8C
:101070000020FFF7ADFF83465846FFF786FB80460A
:101080000022084BFFF701FB06464FF06632064B85
:10109000FFF789FA0446FFF7E1FB82465046BDE8B8
:1010A000F09F00000000B04066660A4000BFFEE707
:1010B0001CB504464FF4FA7100205A220346CDE9CC
:1010C00000102046FFF7A4FF4FF4FA7100207222AF
:1010D0000346CDE900102046FFF79AFF1CBD1CB562
:1010E00004466421002098220346CDE900102046E2
:1010F000FFF78EFF642100205A220346CDE900103D
:101100002046FFF785FF1CBD10B500221146FF20C9
:1011100000F022F8642007F043FF00221146104639
:1011200000F01AF8642007F03BFF10BD10B5002155
:10113000084802F0A3FB0421064802F09FFB0821A7
:10114000044802F09BFB00221146104600F004F810
:1011500010BD000058020020044B1B685863034B6D
:101160001B689963014B1B68DA63704758020020C3
:101170007CB505460E4600F0BBF81E2007F05CFD6E
:1011800000F050F850BB012000F0D6F8002000F02D
:10119000D3F8002407E000F053F8C4F104010DF87F
:1011A0000100601CC4B2052CF5DB9DF804009DF81D
:1011B000031008449DF8021008449DF801100844EB
:1011C0009DF80010884207D19DF8040028709DF812
:1011D0000200307000207CBD0220FCE70120FAE70D
:1011E0001CB5002001900090694601A8FFF7C0FFE0
:1011F000002009E09DF80410054A11549DF80010E4
:10120000044A1154411CC8B20528F3DB1CBD000080
:101210009D0000209800002010B5012000F07AF811
:1012200010BD000010B51021044800F087FE012811
:1012300001D1012400E00024204610BD0008014037
:1012400070B50025002414E0012000F075F8282076
:1012500007F0F2FCFFF7E6FF48B1601CC0F108019F
:10126000012088402843C5B2002000F065F8601CCA
:10127000C4B2082CE8DB284670BD00002DE9F0411F
:1012800004460D4600260027164A174B1B78D11836
:10129000164A154B1B78D018FFF76AFF48B9124859
:1012A0000078401C052190FBF1F201FB12000E4971
:1012B0000870002009E00D49095C31448EB20949EB
:1012C000095C39448FB2411CC8B20528F3DB052004
:1012D00096FBF0F02070052097FBF0F02870BDE839
:1012E000F081000098000020A20000209D00002056
:1012F00010B5012000F00EF80A2007F09DFC002038
:1013000000F008F8142005F00FFE012000F002F8AC
:1013100010BD000010B504462CB101221021054873
:1013200000F014FE04E000221021024800F00EFE3E
:1013300010BD00000008014070B5044642F210756F
:1013400004E0681E85B20DB9002070BDFFF76AFF8A
:10135000A042F6D10120F8E730B590F840500124C2
:10136000AC40C56B6C60046863604468102C04D1A9
:101370000468A2600468E16003E00468A160046896
:10138000E26030BD704710B54FF4806000F038FC6B
:1013900010BD72B600BFFEE710B509A10C48FEF7FC
:1013A00072FF20B90BA10A48FEF76DFF20B105F0CE
:1013B0009DF800200C4908700B48007810BD000013
:1013C0005749464920444953434F4E4E45435400E4
:1013D000543900204D515454444953434F4E4E45C7
:1013E0004354454400000000A7000020F8B504461F
:1013F00000260020009000BF94F82400012801D1AD
:101400000220F8BD012084F8240000BF2046FFF729
:1014100029FD06462046FFF793FD0646002E69D1BA
:10142000A06A20F4885040F00200A062022000F080
:10143000A5FE34490968B1FBF0F04000009002E0DD
:101440000098401E009000980028F9D1206880681C
:1014500040F008002168886000F07EFD054616E037
:1014600000F07AFD401B0A2811D92068806800F03E
:10147000080060B1A06A20F0020040F01000A062F5
:1014800000BF002084F8240000BF0120B9E72068D5
:10149000806800F008000028E2D12068806840F0F1
:1014A00004002168886000F057FD054616E000F052
:1014B00053FD401B0A2811D92068806800F0040001
:1014C00060B1A06A20F0020040F01000A06200BFEE
:1014D000002084F8240000BF012092E72068806883
:1014E00000F004000028E2D1A06A20F0020040F0E1
:1014F0000100A06200BF002084F8240000BF304635
:101500007FE700001000002038B5024600230020CD
:10151000009000BF92F82400012801D1022038BDBC
:10152000012082F8240000BF4868072812D2106802
:10153000406B0C79641E04EB84051F24AC40A0436F
:101540000D796D1E05EB85050C68AC4020431468D1
:10155000606327E048680D2812D21068006B0C7990
:10156000E41F04EB84051F24AC40A0430D79ED1F5C
:1015700005EB85050C68AC4020431468206311E03E
:101580001068C06A0C790D3C04EB84051F24AC4044
:10159000A0430D790D3D05EB85050C68AC4020435B
:1015A0001468E06208680A2812D31068C0680C78D2
:1015B0000A3C04EB44050724AC40A0430D780A3DE7
:1015C00005EB45058C68AC4020431468E0600FE0F3
:1015D000106800690C7804EB44050724AC40A04374
:1015E0000D7805EB45058C68AC40204314682061FC
:1015F0000868102802D00868112827D1174C1068F5
:10160000A0421ED11068806800F40000F0B9106894
:10161000806840F400001468A0600868102815D1A4
:101620000F4800680F4CB0FBF4F000EB8000400066
:10163000009002E00098401E009000980028F9D128
:1016400004E0906A40F020009062012300BF002077
:1016500082F8240000BF184661E700000024014022
:101660001000002040420F00704770477047000094
:101670002DE9F0410446002700250026A84614B9AC
:101680000120BDE8F081A06810B1207D00B100BF4D
:10169000A06A30B90020E06284F82400204600F0FF
:1016A00089F82046FFF7DEFB0746A06A00F010002D
:1016B000002873D1002F71D1A06A20F4885040F027
:1016C0000200A062E16960680843217B40EA4100B2
:1016D0000643A068B0F5807F02D0A068012802D13F
:1016E0004FF4807000E000200543207D012811D1D7
:1016F000207B38B9A069401E4FF4006141EA4030B8
:10170000054307E0A06A40F02000A062E06A40F0D4
:101710000100E0622068406820F4694028432168A5
:10172000486020688068214908403043216888600B
:10173000A068B0F5807F02D0A068012802D14FF4E4
:10174000807000E00020B0F5807F03D1208A401E29
:101750004FEA00582068C06A20F4700040EA080090
:101760002168C8622068806811490840B04208D1E9
:101770000020E062A06A20F0020040F00100A062B8
:1017800011E0A06A20F0020040F01000A062E06AC0
:1017900040F00100E062012705E0FFE7A06A40F0A9
:1017A0001000A062012738466BE70000FDF7E1FF5B
:1017B000FE0E1FFF10B586B0044600200290039075
:1017C000049005902249206888423ED100BF2148FC
:1017D000806940F400701F4988610846806900F400
:1017E0000070019000BF00BF00BF0846806940F054
:1017F000040088610846806900F00400019000BF81
:1018000000BF212002900320039002A9124800F09B
:1018100005FA12481249086000204860002110486B
:1018200081608021C16049000161890041612021FE
:101830008161C901C16100F059F908B1FFF7A9FD43
:1018400000BF07482062446200BF06B010BD000020
:10185000002401400010024000080140080002403E
:101860002C0100202DE9F04104460D4616460027C4
:1018700057492068884203D056492068884205D1DC
:101880005348001D006800F4702000E0002000288C
:101890007ED100BF94F82400012802D10220BDE8C7
:1018A000F081012084F8240000BF2046FFF748FBA8
:1018B0000746002F6DD1A06A40F60161884340F4CD
:1018C0008070A06243492068884209D14048001DC9
:1018D000006800F4702008B9012002E0002000E058
:1018E000012078B1A06A20F48010A06220684068CE
:1018F00000F4806000B3A06A20F4005040F48050EF
:10190000A06219E0A06A40F48010A062304920680B
:10191000884203D02F492068884205D12C48001DF9
:10192000006800F4806000E0002028B1A06A20F484
:10193000005040F48050A062A06A00F4805020B1B2
:10194000E06A20F00600E06201E00020E06200BFF3
:10195000002084F8240000BF1F48216A88621F48C5
:10196000216AC8621E48216A08636FF0020021687C
:1019700008602068806840F4807021688860226870
:1019800002F14C0133462A46206A00F0E3F801E0F8
:101990001AE014E02068806800F46020B0F5602F41
:1019A00006D12068806840F4A000216888600CE0BF
:1019B0002068806840F480102168886005E000BFDE
:1019C000002084F8240000E00127384667E7000083
:1019D0000024014000280140C10E0008310F00081A
:1019E000130F00080146002291F82100022808D0B8
:1019F0000420886300BF002081F8200000BF012080
:101A000070470868006820F00E000B6818600868CE
:101A1000006820F001000B68186091F84030012048
:101A20009840CB6B5860012081F8210000BF002056
:101A300081F8200000BF1046E2E7000070B50446C0
:101A4000002594F82100022803D00420A06301257A
:101A500048E02068006820F00E00216808602068D7
:101A6000006820F00100216808601F492068884252
:101A700001D1012026E01C4914312068884201D19F
:101A800010201FE0184928312068884201D18015B4
:101A900018E015493C312068884201D1801411E0DA
:101AA000114950312068884202D14FF4803009E05A
:101AB0000D4964312068884202D14FF4801001E062
:101AC0004FF08070084908394860012084F82100EF
:101AD00000BF002084F8200000BF606B10B12046DA
:101AE000616B8847284670BD08000240014600220D
:101AF00009B901207047164B0868C01A1423B0FBBF
:101B0000F3F08000086412480838C863022081F8A6
:101B100021000868026843F6F0708243D1E90103AE
:101B20001843CB6818430B6918434B6918438B69FA
:101B30001843CB6918430243086802600020886399
:101B4000012081F82100002081F8200000BFD1E7AA
:101B5000080002402DE9F04104460D4616461F4696
:101B60004FF0000800BF94F82000012802D10220A5
:101B7000BDE8F081012084F8200000BF94F8210026
:101B800001282CD1022084F821000020A0632068C5
:101B9000006820F00100216808603B463246294673
:101BA0002046FFF7D9FBE06A30B12068006840F0BA
:101BB0000E00216808600BE02068006820F0040037
:101BC000216808602068006840F00A002168086009
:101BD0002068006840F001002168086006E000BF4E
:101BE000002084F8200000BF4FF002084046BFE705
:101BF00010B50446B4F5806F01D102F0A9F910BD0B
:101C000010B5044604480068204020B10248046032
:101C10002046FFF7EDFF10BD140401402DE9F84701
:101C20000346002294466EE14FF0010808FA02F4E0
:101C3000D1F8008008EA0400A0427DD1DFF8DCA2E0
:101C4000D1F80480A8EB0A09D0453AD014DCB8F1E9
:101C5000030F50D009DCB8F1000F31D0B8F1010FFB
:101C60001CD0B8F1020F49D120E0B8F1110F18D003
:101C7000B8F1120F42D11EE0B9F5881F25D006DC5D
:101C8000B9F5803F20D0B9F5801F37D11AE0B9F5FA
:101C9000001F18D0B9F5041F30D117E0D1F80CC0DF
:101CA0002DE0D1F80C8008F1040C28E0D1F80C806C
:101CB00008F1080C23E0D1F80C8008F10C0C1EE0B0
:101CC00000BF00BF00BF00BF00BF00BFD1F8088049
:101CD000B8F1000F02D14FF0040C0BE0D1F80880EE
:101CE000B8F1010F03D14FF0080C1C6102E04FF076
:101CF000080C5C6103E04FF0000C00E000BF00BF87
:101D0000FF2801D8984601E003F104084646FF2861
:101D100002D84FEA820803E0A2F108084FEA8808D7
:101D20004746D6F800804FF00F0909FA07F928EA6C
:101D300009080CFA07F900E088E048EA0908C6F843
:101D40000080D1F8048008F08058B8F1805F7DD120
:101D500000BFDFF8CC81D8F8188048F00108DFF820
:101D6000C091C9F81880C846D8F8188008F0010852
:101D7000CDF8008000BF00BF4FEAB9384FEA9209A2
:101D800058F829504FEA82784FEA18794FF00F0837
:101D900008FA09F825EA0805DFF88881434502D1E9
:101DA0004FF0000816E0DFF88081434502D14FF084
:101DB00001080FE0DFF87481434502D14FF00208BB
:101DC00008E0DFF86C81434502D14FF0030801E0E1
:101DD0004FF004084FEA82794FEA197908FA09F8B6
:101DE00048EA0505DFF84C814FEA920948F8295086
:101DF000D1F8048008F48018B8F5801F0AD1DFF804
:101E00003881D8F8008048EA0008DFF82C91C9F83A
:101E1000008009E0DFF82081D8F8008028EA000877
:101E2000DFF81491C9F80080D1F8048008F4001894
:101E3000B8F5001F10D1DFF8008108F10408D8F8C8
:101E4000008048EA0008DFF8F09000E05AE009F16D
:101E50000409C9F800800DE0DFF8DC8008F104080F
:101E6000D8F8008028EA0008DFF8CC9009F10409CE
:101E7000C9F80080D1F8048008F40038B8F5003FB4
:101E80000ED1DFF8B480A8F10408D8F8008048EA41
:101E90000008DFF8A490A9F10409C9F800800DE05A
:101EA000DFF89480A8F10408D8F8008028EA000838
:101EB000DFF88490A9F10409C9F80080D1F8048002
:101EC00008F48038B8F5803F0ED1DFF86C80A8F1B7
:101ED0000808D8F8008048EA0008DFF85C90A9F10B
:101EE0000809C9F800800DE0DFF84C80A8F1080867
:101EF000D8F8008028EA0008DFF83C90A9F108092A
:101F0000C9F80080521CD1F8008028FA02F8B8F114
:101F1000000F7FF489AEBDE8F887000000001110C3
:101F20000010024000080140000C01400010014078
:101F30000014014008000140080401400246936873
:101F40000B400BB1012000E0002070470AB1016195
:101F500001E00B040361704701480068704700000E
:101F60000400002003480068034909780844014937
:101F700008607047040000200C00002010B50848DD
:101F8000006840F0100006490860032000F0E2F805
:101F90000F2000F007F800F05FF8002010BD0000EF
:101FA000002002402DE9F04188B004460027B846E1
:101FB000002600BF2348C06940F004002149C861E1
:101FC0000846C06900F00400019000BF00BF02A9EC
:101FD00003A800F0AFFA069F1FB900F0D3FA054638
:101FE00002E000F0CFFA45001748B5FBF0F0A0F191
:101FF000010816481649086040F2E7311448C160EC
:10200000C0F80480002101618160816101F0EAF87B
:10201000064696B90E4801F08DF906466EB91E20A7
:1020200000F04AF8102C07D2002221461E2000F0B2
:1020300053F80848046000E00126304608B0BDE8C7
:10204000F08100000010024040420F0000080040F4
:10205000300300200800002008B500BF1448806944
:1020600040F00100124988610846806900F00100D3
:10207000009000BF00BF00BF0846C06940F080501C
:10208000C8610846C06900F08050009000BF00BFE2
:1020900000220F21901E00F01FF800BF054948687C
:1020A00020F0E06040F00070486000BF08BD000014
:1020B000001002400000014001460846002809DBEC
:1020C00000F01F0301229A4043099B0003F1E02323
:1020D000C3F8002100BF70472DE9F05F80460D4630
:1020E0001646002703F0BEFB074639462A4633460C
:1020F00001F00700C0F1070ABAF1040F02D94FF04E
:10210000040A01E0C0F1070AD14600F1040ABAF15D
:10211000070F02D24FF0000A01E0A0F1030AD446F3
:102120004FF0010A0AFA09FAAAF1010A0AEA020AB8
:102130000AFA0CFA4FF0010B0BFA0CFBABF1010B96
:102140000BEA030B4AEA0B042146404603F092FBDC
:10215000BDE8F09F00BF00F00702064B19684FF67C
:10216000FF031940044B0B4343EA0221014B196062
:1021700000BF70470CED00E00000FA052DE9F047C4
:1021800006464FF00008002500270024A146012E36
:1021900031D0022E56D0102E5FD1324844680068EC
:1021A00000F0807008B33048C4F38341475C04F406
:1021B000803078B12B484068C0F340402B4911F87B
:1021C000008004F4803040B12948B0FBF8F000FBF7
:1021D00007F502E0274807FB00F52248406800F4B5
:1021E0008000B0F5800F01D1A94603E0680003210B
:1021F000B0FBF1F932E01B48046A04F44070B0F51A
:10220000807F05D104F0020010B14FF4004918E0BE
:1022100004F44070B0F5007F07D11248406A00F026
:10222000020010B149F640490BE004F44070B0F5EB
:10223000407F06D10B48006800F4003008B14FF22F
:1022400024490BE000F0AEF906494968C1F3813139
:10225000491C4900B0FBF1F900E000BF00BF48464F
:10226000BDE8F08700100240CEA70008DEA70008F6
:1022700000127A0000093D00F8B50446002600254A
:10228000207800F0010000286BD000274348C06987
:1022900000F0805070B900BF4048C06940F08050E5
:1022A0003E49C8610846C06900F08050009000BFF8
:1022B00000BF01273A48006800F48070B0B9384880
:1022C000006840F4807036490860FFF745FE064616
:1022D00006E0FFF741FE801B642801D90320F8BD0A
:1022E0002F48006800F480700028F2D02B48006A64
:1022F00000F440752DB3A08800F44070A84220D0AF
:102300002648006A20F44075012026490860002014
:1023100008602248056205F0010090B1FFF71CFE3D
:10232000064608E0FFF718FE801B41F2883188421C
:1023300001D90320D3E71948006A00F00200002801
:10234000F0D01648006A20F44070616808431349D1
:102350000862012F04D10846C06920F08050C8618E
:1023600000BF207800F00200022807D10B48406827
:1023700020F44040A168084308494860207800F0F4
:102380001000102807D10548406820F48000E1685B
:102390000843024948600020A1E700000010024005
:1023A000007000404004424270B504460D460CB92E
:1023B000012070BD5A48006800F00700A8420ED204
:1023C0005748006820F00700284355490860084630
:1023D000006800F00700A84201D00120E9E720785A
:1023E00000F0020002281DD1207800F0040004282B
:1023F00005D14C48406840F4E0604A494860207884
:1024000000F00800082805D14648406840F46050B4
:10241000444948604348406820F0F000A168084300
:1024200040494860207800F0010078B360680128D6
:1024300006D13C48006800F4003090B90120B8E7AC
:102440006068022806D13748006800F0007040B983
:102450000120AEE73348006800F0020008B901200F
:10246000A7E73048406820F00300616808432D4921
:102470004860FFF771FD064609E0FFF76DFD801B20
:1024800041F28831884202D9032092E707E02548CB
:10249000406800F00C006168B0EB810FEDD120487E
:1024A000006800F00700A8420ED91D48006820F01F
:1024B000070028431A4908600846006800F0070032
:1024C000A84201D0012074E7207800F0040004281D
:1024D00007D11448406820F4E060E16808431149DE
:1024E0004860207800F00800082808D10D484068AE
:1024F00020F46050216940EAC1000A49486000F0B8
:1025000061F808494968C1F30311074A515CC840A2
:102510000649086006480068FFF744FD002048E7C8
:102520000020024000100240E0A700081000002038
:10253000080000200F2202600D4A526802F00302D8
:1025400042600B4A526802F0F0028260084A526808
:1025500002F4E062C260064A526802F46052D20895
:102560000261044A126802F007020A607047000024
:10257000001002400020024001480068704700003F
:102580001000002000B5FFF7F7FF04494968C1F3C8
:102590000221034A515CC84000BD00000010024007
:1025A000F0A7000800B5FFF7E7FF04494968C1F349
:1025B000C221034A515CC84000BD00000010024027
:1025C000F0A7000870B5002100220024002300209D
:1025D000134D696801F00C05F5B1042D02D0082DEA
:1025E00019D101E00F4819E00F4DC1F38346AB5DEF
:1025F00001F4803555B10A4D6D68C5F340450B4E69
:10260000725D084D5D43B5FBF2F402E0084D03FB3B
:1026100005F4204602E000BF024800BF00BF70BDC5
:102620000010024000127A00BCA70008CCA70008E6
:1026300000093D00F8B504460CB90120F8BD20782A
:1026400000F00100002878D0F848406800F00C0045
:1026500004280CD0F548406800F00C00082811D17F
:10266000F248406800F48030B0F5803F0AD1EF486E
:10267000006800F4003000285FD0606800285CD15A
:102680000120DBE700BF6068B0F5803F06D1E74876
:10269000006840F48030E549086028E0606858B977
:1026A000E248006820F48030E0490860084600688D
:1026B00020F4802008601AE06068B0F5A02F0BD1EC
:1026C000DA48006840F48020D8490860084600686D
:1026D00040F4803008600AE0D448006820F480307C
:1026E000D24908600846006820F48020086000BFD6
:1026F000606888B1FFF730FC054606E0FFF72CFC68
:10270000401B642801D9032098E7C848006800F4FA
:1027100000300028F2D010E0FFF71EFC054606E06E
:10272000FFF71AFC401B642801D9032086E7BF4845
:10273000006800F400300028F2D1207800F0020098
:10274000022857D1B948406800F00C0050B1B74892
:10275000406800F00C00082818D1B448406800F424
:10276000803098B9B148006800F0020020B12069BB
:10277000012801D0012061E7AC48006820F0F80092
:10278000616940EAC100A949086033E02069E8B105
:102790000120A7490860FFF7DFFB054606E0FFF7C9
:1027A000DBFB401B022801D9032047E79F48006854
:1027B00000F002000028F2D09C48006820F0F800E9
:1027C000616940EAC1009949086013E00020984916
:1027D0000860FFF7C1FB054606E0FFF7BDFB401BA5
:1027E000022801D9032029E79048006800F0020080
:1027F0000028F2D1207800F0080008282DD1A06927
:10280000B8B101208B490860FFF7A6FB054606E03A
:10281000FFF7A2FB401B022801D903200EE78348E3
:10282000406A00F002000028F2D0012002F0BEFA57
:1028300013E000207F490860FFF78EFB054606E0A5
:10284000FFF78AFB401B022801D90320F6E67748F0
:10285000406A00F002000028F2D1207800F0040065
:10286000042873D100277148C06900F0805070B906
:1028700000BF6E48C06940F080506C49C86108468E
:10288000C06900F08050009000BF00BF01276A4877
:10289000006800F48070B0B96748006840F4807048
:1028A00065490860FFF758FB054606E0FFF754FB53
:1028B000401B642801D90320C0E65F48006800F48B
:1028C00080700028F2D000BFE068012806D1574888
:1028D000006A40F001005549086227E0E06858B9F5
:1028E0005248006A20F00100504908620846006A18
:1028F00020F00400086219E0E06805280BD14B487D
:10290000006A40F00400494908620846006A40F045
:10291000010008620AE04548006A20F001004349CE
:1029200008620846006A20F00400086200BFE06800
:10293000A0B1FFF711FB054609E0FFF70DFB401BB7
:1029400041F28831884202D9032077E622E03748F5
:10295000006A00F002000028EFD012E0FFF7FCFA56
:10296000054608E0FFF7F8FA401B41F2883188423B
:1029700001D9032062E62D48006A00F00200002819
:10298000F0D1012F05D12948C06920F08050274996
:10299000C86100BFE069C8B32448406800F00C007B
:1029A000082860D0E069022848D100202049086644
:1029B000FFF7D2FA054606E0FFF7CEFA401B0228E1
:1029C00001D903203AE61948006800F00070002899
:1029D000F2D1206AB0F5803F07D11448406820F456
:1029E0000030A168084311494860D4E90801084350
:1029F0000E49496821F4741108430C4948600120CC
:102A00000B490866FFF7A8FA054607E03DE0FFF727
:102A1000A3FA401B022801D903200FE603480068EF
:102A200000F000700028F2D02FE0000000100240FB
:102A300000004242800442420070004000201449DD
:102A40000866FFF789FA054606E0FFF785FA401B9E
:102A5000022801D90320F1E50E48006800F000705B
:102A60000028F2D111E0E069012800D1E6E509482B
:102A7000466806F48031206A814204D106F4701160
:102A8000606A814201D00120D8E50020D6E500002F
:102A9000000042420010024010B504460CB901206B
:102AA00010BD606A38B96068B0F5827F00D105E07A
:102AB0000021E16102E00021216161610021A16248
:102AC00094F8510028B9002084F85000204600F006
:102AD00043F8022084F851002068006820F040008C
:102AE00021680860A08800F48270218901F4044103
:102AF0000843A18901F400610843217C01F002012F
:102B00000843217D01F001010843218B01F400718C
:102B10000843217F01F0380108432021095D01F0BD
:102B200080010843218D01F40051084321680860A9
:102B30000421A06901EA1040216848602068C0694A
:102B400020F400602168C86100206065012084F8DD
:102B500051000020A4E7000010B586B00446002014
:102B600002900390049005901A49206888422FD162
:102B700000BF1948C06940F480401749C861084641
:102B8000C06900F48040019000BF00BF00BF08464C
:102B9000806940F0080088610846806900F00800FC
:102BA000019000BF00BF4FF420400290022003902C
:102BB0000320059002A90948FFF730F84FF4804040
:102BC000029000200390049002A90448FFF726F821
:102BD00006B010BD0038004000100240000C01405B
:102BE0002DE9F8430446884616461D464FF0000975
:102BF00094F85100012802D04FF00209A8E0606863
:102C0000B0F5827F0DD1A06858B9042084F8510036
:102C10003346424641462046009500F07EF9BDE825
:102C2000F88300BF94F85000012801D10220F6E794
:102C3000012084F8500000BFFFF78EF90746B8F175
:102C4000000F00D016B94FF0010981E0042084F88C
:102C5000510000206065C4F83880A687E6872063AD
:102C6000A086E08620646064A068B0F5004F0BD1B8
:102C70002068006820F04000216808602068006833
:102C800020F48040216808602068006800F040005F
:102C9000402805D02068006840F0400021680860A6
:102CA000E06810BB1DE02068806800F0010050B1B2
:102CB0002068007BA16B0870A06B401CA063E08FB4
:102CC000401EE0870DE0FFF747F9C01BA84201D383
:102CD000681C00B92DB94FF00309012084F8510098
:102CE00036E0E08F0028DED121E01DE0206880681A
:102CF00000F0010050B12068C068A16B0880A06B93
:102D0000801CA063E08F401EE0870DE0FFF724F9F0
:102D1000C01BA84201D3681C00B92DB94FF00309AC
:102D2000012084F8510013E0E08F0028DED13A46FC
:102D30002946204602F04EF808B120206065606DFB
:102D400010B14FF0010902E0012084F8510000BFEA
:102D500000BF002084F8500000BF48465FE72DE91F
:102D6000F84F0446884616461D464FF0000A00BF3D
:102D700094F85000012802D10220BDE8F88F01200C
:102D800084F8500000BFFFF7E7F80746B14694F813
:102D90005100012802D04FF0020AB7E0B8F1000F4D
:102DA00000D016B94FF0010AB0E0032084F85100BA
:102DB00000206065C4F83080A686E686A063A08700
:102DC000E08760642064A068B0F5004F0BD12068F4
:102DD000006820F04000216808602068006840F426
:102DE0008040216808602068006800F040004028AA
:102DF00005D02068006840F0400021680860E06865
:102E0000B0F5006F32D1606810B1B9F1010F09D18E
:102E1000206B00882168C860206B801C2063E08ED6
:102E2000401EE0861EE02068806800F00200022854
:102E30000AD1206B00882168C860206B801C206349
:102E4000E08E401EE0860DE0FFF786F8C01BA8422A
:102E500001D3681C00B92DB94FF0030A012084F892
:102E6000510053E0E08E0028DDD131E0606810B100
:102E7000B9F1010F09D1206B007821680873206B2C
:102E8000401C2063E08E401EE0861EE020688068C3
:102E900000F0020002280AD1206B00782168087334
:102EA000206B401C2063E08E401EE0860DE0FFF7A3
:102EB00053F8C01BA84201D3681C00B92DB94FF0CC
:102EC000030A012084F8510020E0E08E0028DDD1C3
:102ED0003A462946204601F0B9FF08B12020606536
:102EE000A06850B900BF002000902068C068009022
:102EF00020688068009000BF00BF606D10B14FF087
:102F0000010A02E0012084F8510000BF00BF002048
:102F100084F8500000BF50462FE72DE9FF5F0446BC
:102F2000884691461D460E9E012002900020019089
:102F300000BF94F85000012803D1022004B0BDE87E
:102F4000F09F012084F8500000BFFFF705F8074606
:102F500094F851B060680390AA46BBF1010F0BD002
:102F60000398B0F5827F04D1A06810B9BBF1040FBB
:102F700002D002200190E9E0B8F1000F03D0B9F1CE
:102F8000000F00D015B901200190DFE094F8510046
:102F9000042802D0052084F8510000206065C4F8A0
:102FA0003890E587A587C4F83080E586A58620643B
:102FB00060642068006800F04000402805D0206868
:102FC000006840F0400021680860E068B0F5006FDC
:102FD0004DD1606810B1BAF1010F09D1206B0088A2
:102FE0002168C860206B801C2063E08E401EE08654
:102FF00036E02068806800F00200022810D1E08EE0
:1030000070B1029801280BD1206B00882168C8603C
:10301000206B801C2063E08E401EE0860020029022
:103020002068806800F0010068B1E08F58B1206826
:10303000C068A16B0880A06B801CA063E08F401E5D
:10304000E08701200290FEF787FFC01BB04207D344
:10305000701C28B103200190012084F8510075E014
:10306000E08E0028C5D1E08F0028C2D14DE0606815
:1030700010B1BAF1010F09D1206B007821680873F3
:10308000206B401C2063E08E401EE08637E0206805
:10309000806800F00200022810D1E08E70B1029822
:1030A00001280BD1206B007821680873206B401C2D
:1030B0002063E08E401EE086002002902068806839
:1030C00000F0010068B1E08F58B12068C068A16BC2
:1030D0000870A06B401CA063E08F401EE0870120B9
:1030E0000290FEF739FFC01BB04201D3701C00B93B
:1030F0002EB903200190012084F8510026E0E08ED3
:103100000028C4D1E08F0028C1D13A46314620467C
:1031100001F09CFE20B1012001902020606515E0A7
:10312000A06850B900BF002000902068C0680090DF
:1031300020688068009000BF00BF606D10B1012062
:10314000019002E0012084F8510000BF00BF002080
:1031500084F8500000BF0198F0E670477047000007
:1031600030B502460B4600BF92F83C00012801D161
:10317000022030BD012082F83C0000BF022082F80E
:103180003D00106844681068816824F07004186875
:10319000044310684460104D1068A8420BD01068BA
:1031A000B0F1804F07D00D4D1068A84203D00C4DF0
:1031B0001068A84205D121F08001586801431068C9
:1031C0008160012082F83D0000BF002082F83C00B1
:1031D00000BF00BFCDE70000002C0140000400400C
:1031E0000008004010B504460CB9012010BD94F849
:1031F0003D0028B9002084F83C00204600F026F865
:10320000022084F83D00211D206801F0FFFE01200E
:1032100084F8460000BF84F83E0001213F2001559C
:10322000402001554120015500BF00BF012084F816
:10323000420043200155442001554520015500BF5F
:10324000012084F83D000020D0E7000008B51B4AAB
:10325000016891420DD100BF1949896941F40061AB
:10326000174A91611146896901F40061009100BF1C
:1032700023E00168B1F1804F0DD100BF1049C96949
:1032800041F001010E4AD1611146C96901F0010105
:10329000009100BF11E00B4A016891420DD100BFBF
:1032A0000749C96941F00201054AD1611146C9695E
:1032B00001F00201009100BF00BF08BD002C0140D9
:1032C0000010024000040040014691F83D00012832
:1032D00001D001207047022081F83D00124B0868A0
:1032E00098420BD00868B0F1804F07D00F4B0868A8
:1032F000984203D00E4B086898420CD10868806849
:1033000000F00702062A0CD00868006840F00100AF
:103310000B68186005E00868006840F001000B6861
:1033200018600020D6E70000002C01400004004097
:1033300000080040014691F83D00012801D001201D
:103340007047022081F83D000868C06840F0010025
:103350000B68D860124B086898420BD00868B0F12F
:10336000804F07D00F4B0868984203D00E4B086877
:1033700098420CD10868806800F00702062A0CD039
:103380000868006840F001000B68186005E00868F4
:10339000006840F001000B6818600020D0E70000D2
:1033A000002C014000040040000800402DE9F041DD
:1033B00004460D46002700BF94F83C00012802D1C6
:1033C0000220BDE8F081012084F83C0000BF02200B
:1033D00084F83D002068866826F0770626F47F464C
:1033E000206886602868502833D00CDC202850D014
:1033F00004DC00284BD0102851D149E0302849D0B6
:1034000040284CD139E060282DD0702807D0B0F585
:10341000805F03D0B0F5005F41D10DE041E0D5E918
:1034200002136A68206801F03CFE2068866846F056
:1034300077062068866034E0D5E902136A68206860
:1034400001F02FFE2068806840F480402168886089
:1034500027E0EA686968206801F0F4FE50212068DE
:1034600001F02AFE1DE0EA686968206801F0FDFEAF
:103470006021206801F020FE13E0EA686968206896
:1034800001F0E0FE4021206801F016FE09E000BFD7
:1034900000BF00BF2968206801F00EFE01E001278F
:1034A00000BF00BF012084F83D0000BF002084F869
:1034B0003C0000BF384684E7704710B504462068DA
:1034C0000069C0F34000D8B12068C068C0F3400074
:1034D000B0B16FF0020021680861012020772068F8
:1034E000806900F0030018B12046FFF7E5FF05E012
:1034F000204600F00BF9204600F0BFF900202077AD
:1035000020680069C0F38000D8B12068C068C0F3AB
:103510008000B0B16FF004002168086102202077BC
:103520002068806900F4407018B12046FFF7C4FF9E
:1035300005E0204600F0EAF8204600F09EF9002061
:10354000207720680069C0F3C000D8B12068C06847
:10355000C0F3C000B0B16FF008002168086104201A
:1035600020772068C06900F0030018B12046FFF7FB
:10357000A3FF05E0204600F0C9F8204600F07DF9E1
:103580000020207720680069C0F30010D8B12068BF
:10359000C068C0F30010B0B16FF01000216808617E
:1035A000082020772068C06900F4407018B12046D8
:1035B000FFF782FF05E0204600F0A8F8204600F063
:1035C0005CF9002020772068006900F0010058B104
:1035D0002068C06800F0010030B16FF00100216880
:1035E0000861204600F0B4F920680069C0F3C010FB
:1035F00058B12068C068C0F3C01030B16FF08000CF
:10360000216808612046FFF7A8FD20680069C0F323
:10361000801058B12068C068C0F3801030B16FF0DE
:10362000400021680861204600F09EF9206800698A
:10363000C0F3401058B12068C068C0F3401030B1EA
:103640006FF02000216808612046FFF787FD10BD5C
:1036500010B586B0044600200290039004900590B7
:103660002068B0F1804F16D100BF2448806940F037
:103670000400224988610846806900F00400019036
:1036800000BF00BF022002900390059002A91C48D1
:10369000FEF7C4FA30E01B49206888422CD100BFF5
:1036A0001648806940F00400144988610846806922
:1036B00000F00400019000BF00BF00BF0846806911
:1036C00040F0080088610846806900F00800019019
:1036D00000BF00BFC020029002200390059002A905
:1036E0000748FEF79BFA0320029002200390059002
:1036F00002A90548FEF792FA06B010BD001002407C
:103700000008014000040040000C014070472DE912
:10371000F04104460D461646002700BF94F83C00D1
:10372000012802D10220BDE8F081012084F83C008C
:1037300000BF36B1042E1BD0082E31D00C2E5ED126
:1037400045E02946206801F0C1FC2068806940F00E
:103750000800216888612068806920F004002168E1
:10376000886120688069296908432168886148E088
:103770002946206801F0DAFC2068806940F4006086
:10378000216888612068806920F4806021688861F0
:1037900020688069296940EA01202168886130E059
:1037A0002946206801F0F6FC2068C06940F0080056
:1037B0002168C8612068C06920F004002168C861E0
:1037C0002068C069296908432168C86119E0294651
:1037D000206801F013FD2068C06940F40060216892
:1037E000C8612068C06920F480602168C8612068D1
:1037F000C069296940EA01202168C86101E0012708
:1038000000BF00BF00BF002084F83C0000BF384666
:1038100089E710B504460CB9012010BD94F83D00AD
:1038200028B9002084F83C00204600F025F802204A
:1038300084F83D00211D206801F0E8FB012084F898
:10384000460000BF84F83E0001213F200155402082
:1038500001554120015500BF00BF012084F84200FE
:1038600043200155442001554520015500BF01204A
:1038700084F83D000020D0E77047704770B50446DB
:103880000D4615B994F83E000BE0042D02D13F20FF
:10389000005D06E0082D02D14020005D01E04120DE
:1038A000005D012801D0012070BD1DB9022084F8FF
:1038B0003E000EE0042D03D102213F20015508E017
:1038C000082D03D102214020015502E002214120B0
:1038D000015501222946206801F0D2FB19492068D0
:1038E000884201D1012000E0002028B12068406C0E
:1038F00040F40040216848641249206888420BD097
:103900002068B0F1804F07D00F492068884203D06B
:103910000E49206888420CD12068806800F00706B4
:10392000062E0CD02068006840F001002168086075
:1039300005E02068006840F0010021680860002070
:10394000B2E70000002C01400004004000080040E5
:1039500010B5044603492068884201D1FEF702FBF6
:1039600010BD00000008004070477047704700001D
:103970002DE9F84F0446206805682068C66820686D
:1039800047694FF00009CA4605F00F09B9F1000F69
:103990000AD105F0200038B106F0200020B1204601
:1039A00001F0C7FCBDE8F88FB9F1000F7BD007F03C
:1039B000010018B906F49070002874D005F00100D9
:1039C00030B106F4807018B1606C40F001006064A2
:1039D00005F0040030B107F0010018B1606C40F050
:1039E0000200606405F0020030B107F0010018B178
:1039F000606C40F00400606405F0080048B106F017
:103A0000200010B907F0010018B1606C40F0080008
:103A10006064606C002845D005F0200028B106F0F5
:103A2000200010B1204601F084FC20684069C0F3FA
:103A3000801A606C00F0080010B9BAF1000F2CD0A9
:103A4000204601F030FC2068406900F0400000B3DF
:103A500000BF00BF2168143151E8001F21F0400071
:103A60002168143141E80002002AF3D100BFE06B65
:103A700050B17748E16B4863E06BFDF7DFFF88B139
:103A8000E06B416B88470DE02046FFF76FFF09E0D0
:103A900009E02046FFF76AFF04E02046FFF766FFD3
:103AA000002060647EE7206B012877D105F01000CC
:103AB000002873D006F010000028FAD000BF0020C4
:103AC000009020680068009020684068009000BF67
:103AD00000BF2068406900F0400000285FD0E06B24
:103AE000006840681FFA80F8B8F1000F55D0A08D2B
:103AF000404552DDA4F82E80E06B8069202843D039
:103B000000BF00BF21680C3151E8001F21F4807014
:103B100021680C3141E80002002AF3D100BF00BF48
:103B200000BF2168143151E8001F21F00100216815
:103B3000143141E80002002AF3D100BF00BF00BFEA
:103B40002168143151E8001F21F040002168143130
:103B500041E80002002AF3D100BF202084F842008F
:103B60000020206300BF00BF21680C3151E8001F16
:103B700021F0100021680C3141E80002002AF3D145
:103B800000BFE06BFDF72EFF02206063A08DE28D89
:103B9000801A81B22046FFF7E8FE03E742E0A08DDD
:103BA000E18D401A1FFA80F8E08DD0B3B8F1000F14
:103BB00037D000BF00BF21680C3151E8001F21F44D
:103BC000907021680C3141E80002002AF3D100BF57
:103BD00000BF00BF2168143151E8001F21F001002F
:103BE0002168143141E80002002AF3D100BF2020EF
:103BF00084F842000020206300BF00BF21680C3120
:103C000051E8001F21F0100021680C3141E800024A
:103C1000002AF3D100BF0220606341462046FFF72F
:103C2000A4FEBFE605F0800030B106F0800018B1B8
:103C3000204601F09BFCB5E605F0400030B106F0EF
:103C4000400018B1204601F064FBABE600BFA9E6D6
:103C50009352000810B504460CB9012010BDA069AC
:103C600000B100E000BF94F8410028B9002084F8BA
:103C70004000204600F02AF8242084F84100206803
:103C8000C06820F400502168C860204601F0D0FBD5
:103C90002068006920F4904021680861206840692C
:103CA00020F02A00216848612068C06840F4005074
:103CB0002168C86000206064202084F8410084F8F6
:103CC00042000020606300BFC8E7000010B586B066
:103CD0000446002002900390049005903749206824
:103CE00088422FD100BF3648806940F48040344973
:103CF00088610846806900F48040019000BF00BFE1
:103D000000BF0846806940F0040088610846806969
:103D100000F00400019000BF00BF4815029002208F
:103D200003900320059002A92648FDF777FF4FF482
:103D30008060029000200390049002A92148FDF7C2
:103D40006DFF39E020492068884235D100BF1C480A
:103D5000C06940F400301A49C8610846C06900F4DF
:103D60000030019000BF00BF00BF0846806940F0EE
:103D7000040088610846806900F00400019000BFDB
:103D800000BF04200290022003900320059002A9A6
:103D90000C48FDF743FF0820029000200390049098
:103DA00002A90848FDF73AFF002205212620FEF768
:103DB00093F92620FEF780F906B010BD00380140C7
:103DC00000100240000801400044004070B5044665
:103DD0000D46164694F8420020280BD105B10EB9C5
:103DE000012070BD0020206332462946204601F0A4
:103DF0009DFBF6E70220F4E710B504461F48844215
:103E00003AD11F4800787B2803D101201D49087052
:103E100006E01B4800787D2802D10020194908706F
:103E20001848007888B9164800781749174A127858
:103E3000885416480078401C1449087008460078D9
:103E4000802817D30020087014E00E48007801285D
:103E500010D10B4801780E480E4A127881540D4853
:103E60000078401C0B49087008460078802801D370
:103E70000020087002F0D6FD10BD0000E80200200E
:103E8000A6000020A300002054390020A500002037
:103E9000D4390020A40000202DE9F84F04460E4636
:103EA000174699464FF0000A94F8410020284AD15D
:103EB00006B117B90120BDE8F88F00206064212009
:103EC00084F84100FEF748F88246A784E784A0689A
:103ED000B0F5805F04D1206910B90025B04602E03A
:103EE00035464FF000081BE0534600228021204653
:103EF000CDF8009001F06AFB08B10320DBE745B97B
:103F0000B8F80000C0F308002168486008F1020812
:103F100003E02878216848606D1CE08C401EE08436
:103F2000E08C0028E0D15346002240212046CDF805
:103F3000009001F04BFB08B10320BCE7202084F87F
:103F400041000020B7E70220B5E7704700BFFEE759
:103F5000F0B5744B1B783BB90023734C2468636243
:103F60000123704C2370DBE06E4B1B78012B30D1AA
:103F70006D4B1B68586A002100236B4C24686362F8
:103F800043F2C824041B71F1000309D343F2B06467
:103F90000023241A8B4103D30223624C2370BFE019
:103FA00042F6F824041B71F100030ED342F6E064DC
:103FB0000023241A8B4108D301235C4C23705C4CF2
:103FC00023700023574C2370AAE00023574C237022
:103FD000A6E0544B1B78022BC5D1534B1B68586A83
:103FE00000210023504C2468636240F2CC64041B1F
:103FF00071F1000328D340F6B4240023241A8B4126
:1040000022D34C4D2B78DD1703EB5575ED104A4E3E
:10401000755D484E3478E61704EB5676F610A4EB3F
:10402000C606C6F107070126BE403543414E337828
:10403000DE1703EB5676F6103F4FBD553D4B1B7810
:104040005B1C3C4C23703FE04FF41B74041B71F16C
:10405000000328D340F254640023241A8B4122D356
:10406000344D2B78DD1703EB5575ED10324E755D31
:10407000304E3478E61704EB5676F610A4EBC606FD
:10408000C6F107070126BE40B5432A4E3378DE1736
:1040900003EB5676F610284FBD55264B1B785B1C5C
:1040A000244C237010E00023224C23701F4C2370FB
:1040B000002204E00023204CA354531CDAB2042A4B
:1040C000F8DB0023174C23701A4B1B78202B27DBBF
:1040D000194B1B78184C6478E443E4B2A3420ED128
:1040E000154B9B78144CE478E443E4B2A34206D128
:1040F00001230E4C237000230D4C23700BE0002293
:1041000004E000230C4CA354531CDAB2042AF8DB5D
:104110000023064C23700023064C2370014C2370AF
:10412000F0BD0000AE000020C8010020A800002063
:10413000AD000020AF000020A90000200548007855
:1041400028B1002003490870034880787047002098
:10415000FCE70000A8000020A9000020014800782A
:1041600070470000AD00002010B50248FFF7ACF822
:1041700010BD0000C801002070B50120FCF728FF29
:104180000446C4F58051642201FB02F0C11700EB24
:104190001151C1F30735284670BD00000EB500204F
:1041A000009001900290184818490860811517483E
:1041B000816001210173002101754FF46021C1610B
:1041C000002012494860022110480161FDF750FAB1
:1041D00008B1FDF7DEF800200090012001900520D5
:1041E000029069460948FDF78FF908B1FDF7D1F84B
:1041F000052000900220019069460448FDF784F9EB
:1042000008B1FDF7C6F80EBD00240140FC000020F7
:1042100008B500BF0648406940F001000449486104
:104220000846406900F00100009000BF00BF08BDD3
:104230000010024000B585B000200190029003906C
:10424000049000BF3948806940F004003749886114
:104250000846806900F00400009000BF00BF00BF66
:104260000846806940F0080088610846806900F0CF
:104270000800009000BF00BF012210212C48FDF76C
:1042800065FE01224FF498512A48FDF75FFE002297
:104290004FF4C0512648FDF759FE1020019011201F
:1042A0000290002003900320049001A92048FDF70C
:1042B000B5FC4FF4806001901F48029000200390ED
:1042C00001A91C48FDF7AAFC4FF480500190012081
:1042D0000290002003900320049001A91548FDF7E7
:1042E0009DFC4FF4C05001900120029000200390EB
:1042F0000320049001A90E48FDF790FC4FF4407094
:10430000019011200290002003900320049001A945
:104310000848FDF783FC002205212820FDF7DCFE7C
:104320002820FDF7C9FE05B000BD000000100240C6
:1043300000080140000C01400000211010B50E489B
:104340000E4908604FF48270486000210B4881607C
:10435000C160016141614FF4007181610021C1615F
:104360000162416281620A21C162FEF795FB08B1D8
:10437000FDF70FF810BD000000380040700100206C
:1043800000B587B00020039004900590069001903E
:10439000029015481549086007204860002113481D
:1043A00081604FF6FF71C160002101614161802190
:1043B0008161FEF717FF08B1FCF7EBFF4FF4805067
:1043C000039003A90948FEF7F1FF08B1FCF7E1FFEC
:1043D00000200190029001A90448FEF7C1FE08B137
:1043E000FCF7D7FF07B000BD002C0140C80100203A
:1043F00000B58DB0002009900A900B900C900790AA
:1044000008901C216846FBF733FF4FF0804020499D
:1044100008600720486000211D4881606321C16059
:104420000021016180218161FEF7DCFE08B1FCF70B
:10443000B0FF4FF48050099009A91548FEF7B6FF68
:1044400008B1FCF7A6FF1248FFF7E3F908B1FCF743
:10445000A0FF00200790089007A90D48FEF780FEF6
:1044600008B1FCF796FF6020009000200190022028
:10447000029000200490042269460548FFF747F99E
:1044800008B1FCF786FF0248FFF7E2F80DB000BD67
:104490001002002000B58DB0002009900A900B900A
:1044A0000C90079008901C216846FBF7E1FE2E480F
:1044B0002E4908601E20486000212C488160FE21A2
:1044C000C1600021016180218161FEF78BFE08B18E
:1044D000FCF75FFF4FF48050099009A92348FEF7CD
:1044E00065FF08B1FCF755FF2048FFF792F908B1C6
:1044F000FCF74FFF00200790089007A91B48FEF724
:104500002FFE08B1FCF745FF6020009000200190CD
:104510000220029000200490002269461348FFF711
:10452000F6F808B1FCF735FF042269460F48FFF79B
:10453000EEF808B1FCF72DFF082269460B48FFF79B
:10454000E6F808B1FCF725FF002002900C2269462E
:104550000648FFF7DCF808B1FCF71BFF0348FFF73C
:1045600077F80DB000BD00000004004058020020A4
:1045700010B50B480B4908604FF4E130486000214A
:1045800008488160C16001610C21416100218161A5
:10459000C161FFF75FFB08B1FCF7FBFE10BD000037
:1045A00000380140A002002010B50B480B490860FC
:1045B0004FF4E1304860002108488160C16001612A
:1045C0000C21416100218161C161FFF743FB08B10A
:1045D000FCF7DFFE10BD000000440040E8020020B0
:1045E00000BFFEE710B50C210148FFF747F910BDE9
:1045F0005802002010B50446642C00DD6424C4EB8E
:104600000420642190FBF1F0C4B20E4800680464F9
:104610005CB100224FF400610B48FDF797FC0122CA
:1046200011030948FDF792FC0BE000224FF40061F2
:104630000548FDF78BFC00224FF480510248FDF73E
:1046400085FC10BD580200200008014000BFFEE7B5
:1046500000200CE0002106E00022064B03EBC01313
:104660005A544A1CD1B28029F6DB421CD0B2082829
:10467000F0DB7047543A00202DE9F04304460D4624
:1046800016461F46284638E0224631E0002A2DDB38
:104690007F2A2BDC002829DB3F2827DC4FEAE07C3F
:1046A00000EB5C7C4FEAEC0CDFF8588008EBCC1C8C
:1046B0001CF802C003464FEAE07800EB58784FEA56
:1046C000E808A0EBC8094FF0010808FA09F82CEA3D
:1046D000080C01464FEAE07800EB58784FEAE8080A
:1046E000DFF8209009EBC81808F802C0511C0AB284
:1046F000A1199142CADC411C08B2E9198142C3DC0C
:10470000BDE8F083543A00202DE9F04F07460E46ED
:1047100091469A46C9F1010B00254C46321911B257
:104720007A1910B200F0A0F8321B11B27A1B10B245
:1047300000F09AF8721911B23A1910B200F094F818
:10474000721B11B23A1B10B200F08EF8BAF1000FD2
:104750000FD060420FFA80F809E006EB080001B2C2
:10476000384600F081F808F101000FFA80F8A04502
:10477000F3DB75E0681C05B2BBF1000F05DA6800D9
:10478000401C58440FFA80FB07E0601E04B2281B4F
:104790004000401C58440FFA80FB321911B27A19BC
:1047A00010B200F061F8721911B23A1910B200F0AB
:1047B0005BF8321B11B27A1B10B200F055F8721B75
:1047C00011B23A1B10B200F04FF8321B11B27A1935
:1047D00010B200F049F8721B11B23A1910B200F091
:1047E00043F8321911B27A1B10B200F03DF8721979
:1047F00011B23A1B10B200F037F8BAF1000F2FD007
:1048000060420FFA80F811E006EB080211B27A1943
:1048100010B200F029F806EB080211B27A1B10B2B0
:1048200000F022F808F101000FFA80F8A045EBDB58
:1048300068420FFA80F811E006EB080211B23A1B49
:1048400010B200F011F806EB080211B23A1910B2DA
:1048500000F00AF808F101000FFA80F8A845EBDB38
:10486000A54287DBBDE8F08F70B50346002B20DB47
:104870007F2B1EDC00291CDB3F291ADCCC1701EB47
:104880005474E4100B4D05EBC414E45C0A46CD17D8
:1048900001EB5575ED10A1EBC5060125B5402C4384
:1048A0000846CD1701EB5575ED10024E06EBC51508
:1048B000EC5470BD543A002070B50546002411E058
:1048C00080212141294009B1012100E00021084651
:1048D00000F038FA012000F029FA002000F026FA52
:1048E000601CC4B2082CEBDB012000F01FFA002092
:1048F00000F01CFA70BD10B5012000F023FA012071
:1049000000F014FA002000F01DFA002000F00EFA6A
:1049100010BD10B5002000F015FA012000F006FAD5
:10492000012000F00FFA10BD10B5AE2000F016FA0D
:10493000D52000F013FA802000F010FAA82000F033
:104940000DFA3F2000F00AFAD32000F007FA002009
:1049500000F004FA402000F001FAA12000F0FEF976
:10496000C82000F0FBF9DA2000F0F8F9122000F07E
:10497000F5F9812000F0F2F9CF2000F0EFF9D9200D
:1049800000F0ECF9F12000F0E9F9DB2000F0E6F9A5
:10499000302000F0E3F9A42000F0E0F9A62000F0B8
:1049A000DDF98D2000F0DAF9142000F0D7F9AF20FE
:1049B00000F0D4F9FFF74CFE00F0A4F910BD0FB4DD
:1049C00070B5C2B005460E4614464AA8019002A82A
:1049D000019A499900F034FF00200190234602AA71
:1049E0003146284600F006F942B070BC5DF814FB71
:1049F0002DE9F04304460D4616461F46284638E08A
:104A0000224631E0002A2DDB7F2A2BDC002829DB1F
:104A10003F2827DC4FEAE07C00EB5C7C4FEAEC0CA3
:104A2000DFF8588008EBCC1C1CF802C003464FEAA4
:104A3000E07800EB58784FEAE808A0EBC8094FF09F
:104A4000010808FA09F88CEA080C01464FEAE078F8
:104A500000EB58784FEAE808DFF8209009EBC81817
:104A600008F802C0511C0AB2A1199142CADC411CCB
:104A700008B2E9198142C3DCBDE8F083543A002052
:104A800070B505460C4645F0B00000F067F91021FE
:104A900041EA141000F062F904F00F0000F05EF932
:104AA00070BD0000F8B506460F4614461D46082D99
:104AB0000CD1A4F120000E4901EB001010230822B4
:104AC00039460090304600F017F80FE0062D0DD162
:104AD000A4F1200000EB4000064901EB4000082350
:104AE000062239460090304600F006F8F8BD000076
:104AF000F8A70008E8AD00082DE9FF4F80460E46F4
:104B00009146DDF834B0002500244A46314640463F
:104B1000039BFFF7B1FD00BF5EE0002558E008EB06
:104B20000500002852DB08EB05007F284EDC3046EC
:104B3000F11706EB5171C9100FB2F11706EB517165
:104B4000C910A6EBC10A002E05DA781E07B20AF1D9
:104B500008000FFA80FA3819002817DB38190728DF
:104B600014DC3819224901EBC01008EB0501405C48
:104B700004FB09511BF8011001FA0AF10843391925
:104B80001B4A02EBC11108EB050288543819401C7E
:104B900000281BDB3819401C072817DC3819401C7B
:104BA000134901EBC01008EB0501405C04FB0951FF
:104BB0001BF80110CAF10802114108433919491CB8
:104BC0000B4A02EBC11108EB05028854681CC5B200
:104BD0004D45A4DB601CC4B20399481EC11700EB0D
:104BE0005171012202EBE101A14296DCBDE8FF8F89
:104BF000543A00202DE9FE4F07468A46144698464F
:104C00000025AB46002672E0605D00F0800058B9D8
:104C10004FF0010B2846691C8DB2205C8DF8040012
:104C200000208DF8050013E04FF0020B2846691CA8
:104C30008DB2205C8DF80400605D00B95AE0284612
:104C4000691C8DB2205C8DF8050000208DF80600EF
:104C5000BBF1010F0BD19DF80420B91908B24346EE
:104C60005146FFF71FFF06EB080086B23FE04FF00A
:104C700000090EE0C9EBC90101EB81011F4A881848
:104C800001A9FBF719FB00B90EE009F101001FFAB9
:104C900080F9C9EBC90101EB8101184A881818A1F4
:104CA000FBF70AFB0028E5D100BFB8F1080F12D1CD
:104CB000C9EBC90000EB800010490844C01CB919B9
:104CC000009008B210231A465146FFF715FF06F16F
:104CD000100086B20BE0B8F1060F08D1B91908B27E
:104CE00006233F225146FFF7DDFEB01D86B2605D10
:104CF000002889D100BFBDE8FE8F000022B0000867
:104D00000000000010B500240BE000212046FFF752
:104D1000B7FE054901EBC410802100F02FF8601C9C
:104D2000C4B2082CF1DB10BD543A002010B5044683
:104D300022464FF480710248FDF708F910BD0000CB
:104D4000000C014010B5044622464FF400710248A1
:104D5000FDF7FCF810BD0000000C014010B5044642
:104D6000FFF7C9FD7820FFF7A7FD0020FFF7A4FD9E
:104D70002046FFF7A1FDFFF7CCFD10BD70B505463D
:104D80000E46FFF7B8FD7820FFF796FD4020FFF7AD
:104D900093FD002404E0285DFFF78EFD601CC4B283
:104DA000B442F8DBFFF7B5FD70BD000008B5084957
:104DB0000968C9084FF47A72B1FBF2F141430091DE
:104DC00000BF00BF00994A1E00920029F9D108BD1A
:104DD00010000020F8B504460E4615466068B0F590
:104DE000827F0DD1A068B0F5004F03D0A068B0F568
:104DF000806F05D12068006820F0400021680860BD
:104E00006068B0F5827F11D1A068B0F5806F0DD1D8
:104E10003346002201212046009500F02BF898B17E
:104E2000606D40F0200060650320F8BD334600222D
:104E300080212046009500F01DF828B1606D40F0FB
:104E4000200060650320F0E70020EEE7F8B5044697
:104E50000D4616462B46002280212046009600F083
:104E600009F828B1606D40F0200060650320F8BDAE
:104E70000020FCE72DE9F84F04460D4690461E46FB
:104E8000DDF82890FDF768F8A0EB0900371AFDF768
:104E900063F882462C480068C0F3CB30784300901A
:104EA00045E0701C002842D0FDF756F8A0EB0A0040
:104EB000B84200D2A7BB2068406820F0E00021681B
:104EC00048606068B0F5827F0DD1A068B0F5004FF2
:104ED00003D0A068B0F5806F05D12068006820F08D
:104EE000400021680860A06AB0F5005F0DD100BFE6
:104EF0002068006820F4005021680860206800687D
:104F000040F400502168086000BF012084F851007F
:104F100000BF002084F8500000BF0320BDE8F88FD8
:104F2000FFE7009800B900270098401E0090206815
:104F300080682840A84201D1012000E000204045BF
:104F4000AFD10020EAE700001000002000BF0120E0
:104F500001F0F6FFFBE7000010B500BF502080F322
:104F60001188BFF34F8FBFF36F8F00BF05F032F989
:104F700018B14FF080500449086000BF002080F352
:104F8000118800BF10BD000004ED00E000B593B033
:104F9000282109A8FBF76CF9142104A8FBF768F98C
:104FA00000200090019002900390022009900120BF
:104FB0000D9010200E900020109009A8FDF73AFBEC
:104FC00008B1FCF7E6F90F20049000200590069048
:104FD00007900890002104A8FDF7E6F908B1FCF756
:104FE000D8F902200090002002906846FDF744F9AD
:104FF00008B1FCF7CEF913B000BD704710B50248F8
:10500000FEF75BFA10BD00003003002010B5026807
:10501000184B984208D0B0F1804F05D0164B9842FB
:1050200002D0164B984203D122F070024B681A430B
:10503000104B984208D0B0F1804F05D00E4B9842EB
:1050400002D00E4B984203D122F44072CB681A432F
:1050500022F080034C6943EA040202608B68C36259
:105060000B688362034B984201D10B6903630123F0
:10507000436110BD002C01400004004000080040C6
:1050800030B501F01F05012404FA05F3046A9C43BE
:105090000462046A01F01F0502FA05F52C4304625C
:1050A00030BD30B50C46816821F47F4142EA0325CA
:1050B00025432943816030BD0A46816821F0700193
:1050C00042F00703194381607047000030B5026A5F
:1050D000056A25F0010505624368846924F07004BF
:1050E00024F003040D682C4322F002028D682A4349
:1050F0000D4DA84206D100BF22F00802CD682A4318
:1051000022F00402084DA84207D123F4807323F44F
:1051100000734D692B438D692B43436084614D6857
:105120004563026230BD0000002C014030B5026AC8
:10513000056A25F0100505624368846924F4E0449B
:1051400024F440740D6844EA052422F020028D689E
:1051500042EA05120E4DA84207D100BF22F080029C
:10516000CD6842EA051222F04002094DA84209D159
:1051700023F4806323F400634D6943EA85038D695A
:1051800043EA8503436084614D688563026230BDF4
:10519000002C014030B5026A056A25F4807505626D
:1051A0004368C46924F0700424F003040D682C43A0
:1051B00022F400728D6842EA05220F4DA84207D101
:1051C00000BF22F40062CD6842EA052222F4806228
:1051D000094DA84209D123F4805323F400534D69AB
:1051E00043EA05138D6943EA05134360C4614D68C2
:1051F000C563026230BD0000002C014030B5036A77
:10520000056A25F4805505624468C26922F4E042CB
:1052100022F440720D6842EA052223F400538D689F
:1052200043EA0533064DA84204D124F480444D6975
:1052300044EA85144460C2614D680564036230BD70
:10524000002C014030B50B461446026A056A25F071
:1052500001050562816921F0F00141EA041122F0A3
:105260000A021A438161026230BD30B50B46144612
:10527000026A056A25F010050562816921F4704112
:1052800041EA043122F0A00242EA03128161026283
:1052900030BD70B505466C6A0020E085E08420468C
:1052A000FEF764FB70BD00BF00BF02680C3252E81D
:1052B000002F22F4907102680C3242E80013002B98
:1052C000F3D100BF00BF00BF0268143252E8002FC4
:1052D00022F001010268143242E80013002BF3D1DE
:1052E00000BF016B01290ED100BF00BF02680C3264
:1052F00052E8002F22F0100102680C3242E800133D
:10530000002BF3D100BF202180F84210002101635F
:10531000704710B504462068C06820F0400021683E
:10532000C860202084F841002046FEF70EFE0020D1
:1053300010BDF8B5044694F84200222875D1A06843
:10534000B0F5805F0CD1206950B90025A66A2068AD
:105350004068C0F308003080A06A801CA06215E09D
:10536000A56A0026A068B0F5805F03D0A06828B9C0
:10537000206918B920684068287004E020684068F7
:1053800000F07F002870A06A401CA062E08D401EE3
:1053900080B2E085002846D12068C06820F0200057
:1053A0002168C8602068C06820F480702168C860E7
:1053B0002068406920F0010021684861202084F8BD
:1053C000420000206063206B012826D1002020636A
:1053D00000BF00BF21680C3151E8001F21F0100010
:1053E00021680C3141E80002002AF3D100BF206897
:1053F000006800F0100010280AD100BF00200090C3
:1054000020680068009020684068009000BF00BFDE
:10541000A18D2046FEF7A9FA02E02046FEF7ECFC3B
:105420000020F8BD01E00020FBE70220F9E70000C2
:1054300070B504462168096921F44051E2681143BE
:10544000226811612269A1681143626941EA02057B
:105450002168C96841F20C62914329432268D160F6
:105460002168496921F44071A269114322685161A0
:105470002D4A2168914202D1FDF794F801E0FDF731
:1054800081F800EBC00101EB001162689200B1FBF2
:10549000F2F100EBC00202EB001263689B00B2FB6A
:1054A000F3F26423B2FBF3F202EBC20303EB02124A
:1054B000A1EB8201322202EB01116422B1FBF2F175
:1054C00001F0F00100EBC00202EB001263689B00E8
:1054D000B2FBF3F26423B2FBF3F201EB021200EB36
:1054E000C00101EB001163689B00B1FBF3F100EB1D
:1054F000C00303EB00136668B600B3FBF6F3642643
:10550000B3FBF6F303EBC30606EB0313A1EB830136
:10551000322303EB01116423B1FBF3F101F00F011E
:1055200011442268916070BD0038014010B50346F7
:1055300099629A85DA8500205864222083F8420017
:10554000186928B11868C06840F480701C68E06071
:105550001868406940F001001C6860611868C06804
:1055600040F020001C68E060002010BD014691F86A
:105570004100212828D18868B0F5805F0BD10869E7
:1055800048B90A6A1088C0F308000B685860086AB6
:10559000801C086205E00B6A581C086218780B68CA
:1055A0005860C88C401E80B2C88458B90868C0686A
:1055B00020F080000B68D8600868C06840F04000A8
:1055C0000B68D860002070470220FCE72DE9F0410D
:1055D00004460D4617469846069E34E0701C88B374
:1055E0002EB1FCF7B9FCA0EB0800B0422BD900BFEC
:1055F00000BF21680C3151E8001F21F4D0702168F0
:105600000C3141E80002002AF3D100BF00BF00BF07
:105610002168143151E8001F21F001002168143184
:1056200041E80002002AF3D100BF202084F84100A5
:1056300084F8420000BF002084F8400000BF03202F
:10564000BDE8F081FFE7206800682840A84201D14A
:10565000012000E00020B842C0D00020F0E70000A8
:1056600010B50248FEF784F910BD0000E8020020E2
:1056700000BFFEE770B5054600F086F800F060F860
:10568000202000F051F8002409E0C4F10201C90013
:1056900025FA01F1C8B200F047F8601CC4B2032C2F
:1056A000F3DB00F057F800F05FF870BD08B54FF07D
:1056B000FF33012269460348FDF792FA9DF8000086
:1056C00008BD00007001002010B50122110302483E
:1056D000FCF73CFC10BD0000000C01402DE9F0413E
:1056E00005460E46174600F02BF8032000F01CF884
:1056F000002409E0C4F10201C90025FA01F1C8B291
:1057000000F012F8601C84B2032CF3DB002404E0E8
:10571000FFF7CCFF3055601C84B2BC42F8DB00F0D0
:1057200019F8BDE8F081000001B54FF0FF33012208
:1057300069460248FDF713FB08BD00007001002018
:1057400010B500224FF480510148FCF7FFFB10BD5B
:10575000000C014010B5012211030248FCF7F6FBD2
:1057600010BD0000000C014010B5FFF7E9FF052057
:10577000FFF7DAFF00BFFFF799FF00F001000028F4
:10578000F9D1FFF7E7FF10BD10B5FFF7D9FF0620ED
:10579000FFF7CAFFFFF7DEFF10BD2DE9F041064617
:1057A0000F461546FFF7F0FFFFF7CAFF0220FFF78D
:1057B000BBFF002409E0C4F10201C90026FA01F18F
:1057C000C8B2FFF7B1FF601C84B2032CF3DBB5F560
:1057D000807F01DD4FF48075002404E0385DFFF721
:1057E000A3FF601C84B2AC42F8DBFFF7B3FFFFF706
:1057F000BBFFBDE8F08100000FB4054B10B503A955
:10580000044A029800F024F910BC5DF814FB000073
:10581000B16E0008F80000200FB4084B10B504A9C1
:1058200002AA039800F014F9044602A9002000F02F
:10583000A6FC204610BC5DF814FB00007F61000848
:1058400037B514460846064B6A46214600F000F973
:1058500004466946002000F092FC20463EBD000050
:105860007F61000802480068C0F302207047000012
:105870000CED00E010B5002804DB0A07130E054A02
:10588000135406E00A07140E034A00F00F031B1F0F
:10589000D45410BD00E400E018ED00E0EFF31180F7
:1058A0007047EFF305807047EFF31080704702E018
:1058B00008C8121F08C1002AFAD17047704700209B
:1058C00001E001C1121F002AFBD170472DE9FF5FE3
:1058D00082B00021DDE90430020DDDF840B0034361
:1058E00018D044F61050A2F2FF324243151411981A
:1058F00001281FD0A5EB0B00401C5FEA000A4FF007
:1059000000064E4FDFF83891B046504615D5CAF123
:10591000000413E0119801244AA3012801D16FEA81
:105920000B010298119AC0E90031C0E9024206B0A9
:10593000BDE8F09FCBF10000DFE704460021404ABC
:10594000491842EB0450CDE9001012E0E00707D0FF
:1059500032463B4640464946FAF725FE8046894690
:1059600032463B4610461946FAF71DFE06460F46DC
:105970006410002CEAD1DDE90401DDE90023BAF16D
:10598000000F06DAFAF70FFE42464B46FAF70BFE17
:1059900005E0FAF77AFE42464B46FAF776FE0446F1
:1059A0000E460022284BFAF741FF03D84FF0FF3094
:1059B000014607E00022254B20463146FAF74CFD10
:1059C000FBF776F8102409E0002C0ADB0A220023FA
:1059D000FAF7F4FB039B30321A55641E50EA0102B9
:1059E000F2D1641C039AC4F111031444119A012AE0
:1059F00003D0012208430DD10AE0084304D000205F
:105A00004FF0110B119072E7A3EB0B056D1E0DE02B
:105A10005B4504DD4FF0000205F1010504E003DA07
:105A20004FF00002A5F10105002AECD0029811996F
:105A3000C0E90231C0E9004579E7000000001440E8
:105A40000000F03F300000000000F0430000E03FA5
:105A50002DE9FF4F95B09B468946064600250FE28B
:105A6000252877D100242746F84A0121059400E033
:105A7000044316F8013F203B01FA03F01042F7D12E
:105A800030782A2811D06FF02F033078A0F130023F
:105A9000092A16D8059A44F0020402EB820203EBAD
:105AA00042021044761C0590EFE759F8042B05924A
:105AB000002A03DA504244F40054059044F00204F2
:105AC000761C30782E2816D116F8010F44F0040405
:105AD0002A280DD06FF02F023078A0F13003092B67
