:020000040800F2
:10800000484E00209981000899C50008C1BA0008AF
:1080100039C5000881910008B9E00008000000009F
:1080200000000000000000000000000001810008C6
:108030002D9400080000000045810008E9D90008DF
:10804000B3810008B3810008B3810008B381000840
:10805000B3810008B3810008B3810008B381000830
:10806000B3810008B3810008B3810008B381000820
:10807000B3810008B3810008B3810008B381000810
:10808000B3810008B3810008B3810008B381000800
:10809000B3810008B3810008B3810008B3810008F0
:1080A000B3810008B3810008B3810008B3810008E0
:1080B000B3810008B381000881DA0008B3810008A9
:1080C000B3810008B3810008B3810008B3810008C0
:1080D000B3810008B3810008ADE00008B381000857
:1080E0004D980008B3810008B3810008DFF80CD078
:1080F00000F028FD0048004781EE0008484E0020AF
:10810000224B19680868B0E8F00F80F30988BFF3C4
:108110006F8F4FF0000080F311884EF00D0E704706
:108120000000000006480068006880F3088862B616
:1081300061B6BFF34F8FBFF36F8F00DF00BF00BF8B
:1081400008ED00E0EFF30980BFF36F8F0F4B1A6863
:1081500020E9F00F106008B54FF0500080F311884F
:10816000BFF34F8FBFF36F8F08F0D4FD4FF00000C7
:1081700080F31188BDE8084019680868B0E8F00F7E
:1081800080F30988BFF36F8F704700BF1400002091
:10819000EFF3058070470000064880470648004717
:1081A000FEE7FEE7FEE7FEE7FEE7FEE7FEE7FEE7A7
:1081B000FEE7FEE77DDA0008ED8000082DE9F05FBC
:1081C0000546002092469B46884606468146402446
:1081D0001BE0284641464746224600F020F8534619
:1081E0005A46C01A914110D311461846224600F053
:1081F00061FB2D1A67EB01084F4622460120002142
:1082000000F058FB17EB00094E41201EA4F10104B9
:10821000DFDC484631462A464346BDE8F09F202A27
:1082200004DB203A21FA02F00021704721FA02F320
:10823000D040C2F12002914008431946704740EAFD
:1082400001039B0703D009E008C9121F08C0042AD4
:10825000FAD203E011F8013B00F8013B521EF9D2BB
:108260007047D2B201E000F8012B491EFBD27047E3
:108270000022F6E710B513460A4604461946FFF7F2
:10828000F0FF204610BD30B505462A460B4612F8D1
:10829000010B13F8014B08B1A042F8D01CB1002823
:1082A00002D06D1CF1E7284630BD421C10F8011BBE
:1082B0000029FBD1801A704710B5002200E0521C43
:1082C000835C8C5CA34201D1002BF8D1D8B2E1B21F
:1082D000401A10BD0FB400B58DB010A909900B90D5
:1082E00000914FF0FF300A9000200C900548069056
:1082F000054807906A4609A80F9900F011FB0DB0D8
:108300005DF814FB3D8900085B8900082DE9FF5FDB
:108310001D464FF0FF3BD5E9014691465F464FF0C1
:108320000008A9697F1C01988847296A8246884706
:108330000028F6D1BAF1FF3F0CD024F4C064002E1F
:1083400019DD600614D5BAF12B0F09D0BAF12D0F43
:108350000ED103E0584604B0BDE8F09F44F48064B9
:10836000A9697F1C01988847761E8246002E02DD8F
:10837000BAF1300F03D0B9F1000F26D032E0A9696D
:10838000761E44F400747F1C019888478246002EB4
:1083900005DDBAF1780F06D0BAF1580F03D0B9F164
:1083A000000F10D01EE0B9F1000F02D0B9F1100F8C
:1083B00018D1A969761E24F400747F1C019888479F
:1083C0008246102002E0082000E00A20814609E0F1
:1083D00008FB0908A969761E44F400747F1C019803
:1083E00088478246002E05DD4946504600F083FA54
:1083F0000028EDDAE96901988847A00502D46FF0FA
:108400000100A8E7E00725D1600613D5600502D575
:10841000C8F1000000E0404629680A1D2A6009688A
:10842000220501D5087015E0220701D5088011E06A
:1084300008600FE02868011D29600068210502D549
:1084400080F8008006E0210702D5A0F8008001E056
:10845000C0F8008038467EE770B5064605F032FF6A
:10846000046805460A220021304600F087FA2C6095
:1084700070BD2DE9FE4F804681EA0300C00F0C4617
:10848000009021F0004123F00045B8EB0200A94123
:1084900005D24046214690461C460B46024623F034
:1084A0000040104347D0270DC7F30A00C3F30A5119
:1084B0000290401A019040286BDAC3F3130040F495
:1084C000801B0098924620B10023D2EB030A63EB95
:1084D0000B0B01985946C0F14002504600F0EAF9F2
:1084E00006460D4650465946019A00F0F2F910EB47
:1084F00008006141002487EA115284EAE7731A43B5
:1085000040D0009A62B3019A012A4FEA075215DC63
:10851000001B61EB02014FF0004202EA0752CDE975
:108520000042001C41F5801132462B4600F0A4FAAF
:1085300003B0BDE8F08F40462146F9E7001B61EB30
:108540000201001C41F5801300185B412018A2F5C0
:10855000001747EB030140EAD570B6196D4111E0F1
:108560006D084FEA360645EAC0754FEA0752001B10
:1085700061EB0201001C41F5801149084FEA30000F
:108580000019514132462B4603B0BDE8F04F00F0D0
:1085900064BA0098012240000023D0EB020263EB92
:1085A000E073009821464FEAE074B8EB000061EBFD
:1085B0000401E9E783F000435BE781F0004158E7FD
:1085C0002DE9FE4F81EA030404F0004421F000414C
:1085D00000944FF0000B23F0004350EA01045ED0FA
:1085E00052EA03045BD0C3F30A54C1F30A552C4486
:1085F000A4F2F3340194A0FB0254C1F3130141F43B
:108600008011C3F3130343F4801301FB024400FB06
:10861000034E840A970A44EA815447EA8357A4FB2D
:10862000076802958D0A05FB07854FEA932C04FB2A
:108630000C542705029D4FEA065847EA1637B5EB5A
:1086400008056EEB070C870E920E47EA811742EA87
:108650008312A7FB0201B6EB0B0164EB00042B0DA8
:1086600043EA0C335E1844EB1C50DA465146E7FBF4
:108670000201C5F313044FEA0B3343EA14534FEAE4
:108680000432019C43EA0603A4F10C040294009C0A
:10869000CDE900B400F0F0F903B0BDE8F08F0020A0
:1086A0000146F9E72DE9F04D81EA030404F0004B9F
:1086B00021F0004514464FF0000A23F0004150EA33
:1086C000050220D054EA01021DD0C5F30A57024624
:1086D000C5F31303C1F31300C1F30A5640F4801528
:1086E00043F48013A7EB0608101BD64608F2FD38AA
:1086F00073EB050002D308F1010801E092185B4119
:10870000B8F1000F03DA00200146BDE8F08D00202B
:108710004FF48011064684460EE0171B73EB0507E5
:1087200005D3121B63EB050306434CEA010C490811
:108730004FEA300092185B4150EA0107EDD152EA4E
:10874000030012D082EA040083EA0501084305D041
:10875000101BAB4106D20122002306E000224FF09D
:10876000004302E06FF0010253101AEB06004CEBDD
:10877000085110EB0A0041EB0B01BDE8F04D00F091
:108780006CB970B521F0004303430CD0C1F30A5516
:108790000024D5EB040564EB0403D617AD1AB341EE
:1087A00002DB0020014670BD201841EB025170BD74
:1087B0000EB5C10F80EAE0700844CA07002140F2FC
:1087C00033438DE80E000A460B4600F055F903B01E
:1087D00000BD0EB540F2334102910021CDE90011F8
:1087E0000A460B4600F048F903B000BDC1F30A5237
:1087F00010B5C1F3130140F2FF3341F480119A42E6
:1088000001DA002010BD40F233439A42A2F2334213
:1088100003DC5242FFF703FD10BD904010BD000085
:1088200030B5041E71F1000404DB4FF000444042F7
:1088300064EB0101141E73F1000405DB1C464FF0CC
:108840000043524263EB0403994208BF904230BD9B
:1088500001F0004330B421F0004150EA010206D09B
:108860000A0DA2F56072C1F31301002A02DC30BCCC
:1088700000207047440F44EAC104C100E01830BC36
:1088800000EBC25000F0B2B830B50B4601460020F4
:108890002022012409E021FA02F59D4205D303FAC2
:1088A00002F5491B04FA02F52844151EA2F1010243
:1088B000F1DC30BD202A04DB203A00FA02F100206E
:1088C00070479140C2F1200320FA03F3194390400E
:1088D0007047202A06DBCB17203A41FA02F043EA20
:1088E000E07306E041FA02F3D040C2F12002914069
:1088F0000843194670473A2800D2303820F0200249
:10890000412A01D3A2F13700884201D34FF0FF3052
:1089100070470000026811441378016018467047E0
:10892000D16004495161044911620021116111466D
:1089300000F028B915890008718B0008426842B11F
:10894000016811F8013B23B1521EC0E9001218461C
:1089500070470121C160881E704742685AB1C368E0
:10896000016843B983688B4205D0491E521CC0E997
:108970000012002070474FF0FF3070472DE9F0479C
:1089800091460F4680460446002614F8015B2DB13F
:1089900000F0EAF80068405DC007F6D12B2D02D048
:1089A0002D2D18D0641E4A463946204600F080FA24
:1089B00027B13968A14201D1C7F8008071054FF095
:1089C00002040BD54042002803DD05F07BFC046067
:1089D000A007BDE8F08746F48066E4E70028F8DAEF
:1089E00005F070FC04606FF00040F2E70029A8BFBA
:1089F0007047401C490008BF20F00100704710B4C8
:108A0000B0FA80FC00FA0CF050EA010404BF10BC7C
:108A1000704749B1CCF1200421FA04F411FA0CF1A9
:108A200018BF012121430843A3EB0C01CB1D4FEAE2
:108A300000614FEA102042BF002010BC704700EBDD
:108A4000C35010440029A4BF10BC7047401C49000B
:108A500008BF20F0010010BC704710B5141E73F160
:108A6000000408DA401C41F1000192185B411A43EE
:108A700001D120F0010010BD2DE9F04D92469B463A
:108A800011B1B1FA81F202E0B0FA80F220329046E0
:108A9000FFF710FF04460F4640EA0A0041EA0B01C7
:108AA00053465A46084313D0114653EA010019D0E1
:108AB000C8F140025046FFF7B2FB05460E4650464D
:108AC00059464246FFF7F6FE084305D0012004E070
:108AD00020463946BDE8F08D0020054346EAE076A1
:108AE0002C4337430A986305E40AA0EB08000022F0
:108AF000FD0A44EA47540A3002D500200146E9E75E
:108B0000010510196941DDE9084500196941BDE811
:108B1000F04DA2E7C1F30A52C1F3130140F2FF3353
:108B200041F480119A4202DA00200146704740F277
:108B300033439A42A2F2334202DC5242FFF76FBB48
:108B4000FFF7B8BE064C074D06E0E06840F00103B1
:108B500094E8070098471034AC42F6D3FFF7CAFAFE
:108B6000AC310108CC31010800487047B02D010834
:108B700010B50446FFF7F8FF0068005D00F0010043
:108B800010BD00002DE9F34F8BB04FF0000801F14C
:108B90000C000C464FF0010B46460DF1080A0190FF
:108BA0006269012101989047051E2DD0252D2CD0FA
:108BB000216A8847C0B16269012101989047216A02
:108BC00088470028F7D1411E62690198904700E06C
:108BD000761CA1690B988847216A88470028F7D13D
:108BE000E1690B988847DBE7A1690B98884707463E
:108BF000A84201D1761CD3E7E1690B9888477F1C16
:108C000002D1B8F1000F6FD046E1002762693D46FE
:108C10003946019890472A2804D1626901210198B8
:108C200090470125DFF884926269012101989047FD
:108C3000A0F130010A290AD24F45E5DC07EB870194
:108C400000EB4107303FDFD445F01005ECE7E906C3
:108C500001D46FF000476C280AD04C2814D0682843
:108C600015D06A280DD074281CD07A281AD01DE09F
:108C700062690121019890476C2802D045F00405F3
:108C800014E045F002050DE045F020050AE06269B8
:108C9000012101989047682802D045F0080505E0B9
:108CA00045F400656269012101989047C4E90157C4
:108CB00065283DD019DC58287AD00CDC452837D0FF
:108CC00004DC252826D0412831D131E046282FD098
:108CD00047282CD12CE05B2877D0612828D0632846
:108CE0007CD0642823D15AE0D0E06F2848D008DC3B
:108CF00066281DD067281BD0692821D06E2816D180
:108D000027E0702845D0732868D0752847D0782888
:108D10000DD14DE0A1690B988847054625283FF401
:108D200069AFE1690B9888476D1C3FF46AAFB3E007
:108D300023466A466FF001000B99AFF300809EE076
:108D400045F040006060A80723464FF0000236D48B
:108D50003EE0E8077FF447AF2068011D216000680E
:108D6000290501D506701BE7290701D5068017E7FD
:108D7000A90703D5F117C0E9006111E706600FE705
:108D800045F040006060A80723464FF0080216D463
:108D90001EE040F60E0125EA0100606016E045F095
:108DA00040006060A80723464FF00A0207D40FE096
:108DB00045F040006060A80708D5234610226FF0F8
:108DC00001000B99AFF3008059E007E02346102221
:108DD0006FF001000B99FFF799FA50E04FF000098E
:108DE0004F464B46632802D05B2806D040E0E80699
:108DF00001D40120A06001273AE0626901210198B5
:108E000090475E2805D14FF00109626949460198F3
:108E10009047216939B900210A46534643F8212079
:108E2000491C0829FADBB0B3216969B9C11700EB05
:108E3000D16253110AEB830122F01F02821A012032
:108E40000B68904003430B606269012101989047D1
:108E50005D28E8D1B9F1000F09D00020514651F842
:108E60002020D24341F82020401C0828F7DB02AB29
:108E7000224600976FF001000B99AFF300800028A5
:108E80000CDA401C08D1BBF1000F05D04FF0FF30C9
:108E90000DB0BDE8F08FFFE74046F9E7E90701D1E3
:108EA00008F1010806444FF0000B79E6CCCCCC0C5D
:108EB0002DE9F05F82460078002715468B460AF1BF
:108EC0000104B946302801D09DB113E014F8010B1C
:108ED0000127782803D0582801D045B10AE00DB108
:108EE000102D07D10027102514F8010B02E00825EA
:108EF00000E00A250026B0460EE005FB080005FB51
:108F000006F1012701EB10461FFA80F8B6F5803F05
:108F100000D3B94614F8010B2946FFF7ECFC0028F2
:108F2000EBDABBF1000F05D00FB1641E00E0544630
:108F3000CBF80040B9F1000F06D005F0C3F90221CB
:108F40000160C81EBDE8F09F48EA0640FAE730B568
:108F50008C1810F8012B12F00F0301D110F8013B0F
:108F6000120906D110F8012B03E010F8015B01F89B
:108F7000015B5B1EF9D101E001F8013B521EFBD100
:108F8000A142E6D3002030BD70B504460068816878
:108F9000C943C90717D1816821F00101816001F03F
:108FA00099F805460AE000BF01F094F8401B02283A
:108FB00004D920688068C043C00706D02068806854
:108FC000C043C007F0D0002070BDA06A40F0100080
:108FD000A062E06A40F00100E062012070BD10B5BF
:108FE0000146406A826A12F0500F05D0006A026B97
:108FF000BDE8104008461047816A41F40071816263
:1090000001688968C1F3424107290CD1017B51B93C
:10901000816A21F480718162816AC90403D4816A02
:1090200041F00101816200F001FD10BD10B5406A00
:10903000816A41F040018162C16A41F00401C1626C
:1090400000F0F6FC10BD10B5406A00F0F0FC10BD59
:10905000F8B500260446009600688168C943C90730
:109060002DD0816841F001018160164816490068E1
:10907000B0FBF1F000E0401E00900028FBD101F0B1
:1090800029F8054616E000BF01F024F8401B02282D
:1090900010D920688068C043C0070BD0A06A40F098
:1090A0001000A062E06A40F00100E06284F82460F1
:1090B0000120F8BD20688068C043C007E4D10020CB
:1090C000F8BD00001000002040420F00014931F8B7
:1090D000100070479400002010B5054800F0BCFB5C
:1090E000BDE8104002220349014800F079BD0000AC
:1090F0002C0100209400002010B50421034802F048
:10910000DFF9BDE8104000F01DB80000FC010020B0
:1091100010B552EA0301029C0BD009490B689A6210
:1091200009688863204607F097FCBDE8104000F00E
:1091300009B800F007F82046BDE8104007F08CBCE5
:10914000FC01002002490020096888637047000084
:10915000FC01002010B50020FFF7B8FFFFF739FB36
:109160006FF00B02FFF70DFB4FF06632034BFFF77A
:1091700027FABDE81040FFF76BBB000066660A40A7
:10918000FEE71CB5044600214FF4FA70CDE900015A
:109190005A220B462046FFF7BBFF00214FF4FA701E
:1091A000CDE9000172220B462046FFF7B1FF1CBD3E
:1091B0001CB5044600216420CDE9000198220B462D
:1091C0002046FFF7A5FF00216420CDE900015A22C7
:1091D0000B462046FFF79CFF1CBD10B50022114630
:1091E000FF2000F023F8642007F036FC002211462F
:1091F000104600F01BF8BDE81040642007F02CBCBE
:1092000010B50021084802F05BF90421064802F07D
:1092100057F90821044802F053F90022BDE8104034
:109220001146104600F002B844020020044B10B56D
:109230001C686063186881631868C26310BD000011
:10924000440200202DE9FC410D46064600F0AAF834
:109250001E2007F0A7FA00F04BF800284FF001009D
:1092600021D100F0BDF8002000F0BAF800246F46CC
:1092700000F04AF8C4F10401641CE4B27854052CEF
:10928000F6D39DF804109DF803009DF801300A18EC
:109290009DF8020003441A449DF800309A4204D11C
:1092A000317028700020BDE8FC810220FBE700003F
:1092B0001CB500208DF800008DF8040001A9684657
:1092C000FFF7C0FF074A0020B2F105019DF800300A
:1092D00013549DF804300B54401CC0B20528F5D33C
:1092E0001CBD00009E000020012000F06DB80000B1
:1092F00010B51021034800F0E3FE012800D0002043
:1093000010BD0000000801402DE9F04100252C4669
:109310000127012000F064F8282007F043FAFFF746
:10932000E7FF40B1C4F1070007FA00F62E43F5B29B
:10933000002000F055F8641CE4B2082CE9D328465C
:10934000BDE8F0812DE9F047154E8146771E8A462B
:1093500038780025311806F105082C464044FFF7FF
:1093600071FF052130B93878401CB0FBF1F201FBE8
:109370001200387000204246135C2B449DB2335CCF
:10938000401C2344C0B29CB20528F5D3B5FBF1F0D4
:1093900089F80000B4FBF1F08AF80000BDE8F0871E
:1093A0009900002010B5012000F00EF80A2007F007
:1093B000F9F9002000F008F8142005F0D3FDBDE80D
:1093C00010400120AFF30080044B08B1012200E0FF
:1093D00000221021184600F078BE0000000801406D
:1093E00070B5054642F2107403E0641E2404240C98
:1093F00005D0FFF77DFFA842F7D1012070BD002006
:1094000070BD30B590F840500124AC40C56B6C6025
:10941000046863604368102B036803D09960006898
:10942000C26030BD9A600068C16030BD7047000006
:1094300003490020C8804FF400710248FEF718BFAE
:10944000AC000020C84200204FF4C0610148FEF784
:109450000FBF0000C83C002070B500F08FF900F08D
:109460007FF9FFF7E5FF37A000F020F941F28835DA
:10947000294637A000F0CEF9012804D035A004F029
:10948000D9FE012070BD39A004F0D4FE4FF4FA6477
:10949000204605F067FD00F071F900F061F9FFF773
:1094A000C7FF37A000F002F9214629A000F0B2F969
:1094B000012804D034A004F0BDFE022070BD37A006
:1094C00004F0B8FEFFF7B4FF39A000F0EFF8214632
:1094D0001FA000F09FF9012804D037A004F0AAFED5
:1094E000032070BD3BA004F0A5FEFFF7A1FF3FA045
:1094F00000F0DCF8214616A000F08CF9012804D019
:109500003EA004F097FE042070BD43A004F092FE3C
:10951000FFF78EFF46A249A14BA000F0C7F82946ED
:109520000BA000F077F9012804D04DA004F082FED2
:10953000052070BD51A004F07DFE57A004F07AFE16
:10954000002070BD41542B5253540D0A00000000FE
:109550004F4B000045535030315320524553455432
:10956000204552524F520D0A000000004553503022
:109570003153205245534554204F4B0D0A000000F3
:1095800041540D0A0000000045535030315320541F
:10959000455354204552524F520D0A004553503006
:1095A00031532054455354204F4B0D0A0000000006
:1095B000415445300D0A000045535030315320438B
:1095C0004C4F5345204543484F204552524F520D72
:1095D0000A00000045535030315320434C4F53454F
:1095E000204543484F204F4B0D0A000041542B4368
:1095F000574D4F44453D310D0A0000004553503052
:1096000031532057494649204D4F44452045525239
:109610004F520D0A0000000045535030315320577F
:10962000494649204D4F4445204F4B0D0A0000004C
:10963000313233343534333200000000637A682726
:10964000735749464900000041542B43574A415043
:109650003D222573222C222573220D0A00000000D2
:1096600045535030315320434F4E4E4543542057BD
:10967000494649204552524F520D0A004553503039
:10968000315320434F4E4E454354205749464920BD
:109690004F4B0D0A00000000455350303153204914
:1096A0004E4954204F4B0D0A000000000FB44FF4F8
:1096B000007100B5ADF5017D83AB6846829A04F078
:1096C000C9FD6846FEF7F1FD82B24FF0FF336946EF
:1096D000034802F0A7F90DF5017D5DF814FB0000C9
:1096E000D402002010B500F017F800280ED0094869
:1096F0000749828801F560648B5CC1886354491C0A
:10970000C180521CC2F30A018180012010BD0000FB
:10971000C8340020AC0000200C4841884A1CC2F329
:109720000A038288934202D14FF4006070470748D1
:1097300083884088C01A914201D980B2704702D212
:1097400000F50060F9E74FF000007047AC00002022
:1097500000B5FFF7E1FFC0F5006080B200BD00007A
:1097600004480021418081804FF400610248FEF7E7
:109770007FBD0000AC000020C83400200A4882B041
:1097800000680168416800910168406800900748DE
:109790000068016821F0040101604FF4C0620449CF
:1097A000014802B001F0E5BED402002060030020B1
:1097B000C83C002070B50D460646FFF7C9FFA84219
:1097C00023D9124C124861884A19B2F5006F07D2AA
:1097D00008442A463146FEF732FD6088284413E0EB
:1097E000C1F5006208443146FEF729FD60882A1859
:1097F000311A074801F50061A2F50062FEF71FFD6E
:1098000060882844C0F30A00608070BDAC0000206E
:10981000C834002070B50D46064600F05BFC0446D7
:109820000AE000BFFFF75EFF30B131460648FEF7A1
:109830002AFD08B1012070BD00F04CFC001BA842BD
:10984000F0D3002070BD0000C84200204FF48060BB
:1098500000F03ABB72B6FEE7F8B500250446009565
:1098600090F8240001280BD0012084F82400204621
:10987000FFF78AFB2046FFF7EBFB060002D050E023
:109880000220F8BDA06A20F4885040F00200A062D7
:10989000022000F0EFFC25490968B1FBF0F0400020
:1098A00000E0401E00900028FBD12068816841F054
:1098B0000801816000F00EFC074608E000F00AFC99
:1098C000C01B0A2803D920688068000715D42068C7
:1098D00080680007F2D42068816841F0040181604B
:1098E00000F0F8FB074612E000F0F4FBC01B0A286A
:1098F0000DD920688068400709D5A06A20F00200D1
:1099000040F01000A06284F824500120F8BD2068C7
:1099100080684007E8D4A06A20F0020040F001000F
:10992000A06284F824503046F8BD000010000020EA
:10993000F8B50024009490F824202546012A12D07E
:10994000012280F824204A681F23072A0DD20668C6
:10995000776B521E02EB820293409F430B68934049
:109960001F43776319E00220F8BD06680D2A0AD26A
:10997000376BD21F02EB820293409F430B689340E8
:109980001F43376309E0F76A0D3A02EB8202934006
:109990009F430B6893401F43F7620A6807230668DA
:1099A0000A2A0AD3F7680A3A02EB420293409F431D
:1099B0008B6893401F43F76008E0376902EB42026F
:1099C00093409F438B6893401F4337610A68102A76
:1099D00001D0112A20D1124B02689A4217D1936804
:1099E0001B0219D4936843F400039360096810299B
:1099F00012D10C490C4A0968B1FBF2F101EB81016B
:109A0000490000E0491E00910029FBD104E0816A71
:109A100041F020018162012480F824502046F8BDE5
:109A2000002401401000002040420F0070477047A2
:109A3000704700002DE9F0414FF0000704003D465B
:109A40007ED0A06A002628B9E66284F82460204609
:109A500000F07EF82046FFF797FAA16AC90600D405
:109A600020B1A06A40F01000A06269E0A16A21F470
:109A7000885141F00201A1626268E169237B0A43D7
:109A800047EA43010A43A1684FF48077B94209D0FD
:109A9000012907D05FF0000194F814C0BCF1010F58
:109AA00002D00AE03946F7E7F3B1A36A43F0200396
:109AB000A362E36A43F00103E3622368D3F804C0BE
:109AC0002CF4694C4CEA010CC3F804C021688B6883
:109AD000DFF870C003EA0C0313438B60A168B9423E
:109AE0000BD0012909D00CE0DFF85CC0A3690CEBB6
:109AF00043330B4343F40061DFE7218A0D05A5F5ED
:109B000080152168CB6A23F470032B43CB62216854
:109B100089680E4B1940914208D1E662A16A21F092
:109B2000020141F00101A162BDE8F081A06A20F0CC
:109B3000020040F01000A062E06A40F00100E06224
:109B40000120F1E7FDF7E1FF00E0FFFFFE0E1FFF40
:109B500070B586B0002605460096019602960396DB
:109B600000681A4988422FD11949886940F4007069
:109B70008861886900F400700490886940F00400EE
:109B800088618869694600F00400049021200090F3
:109B9000032001900F4800F0A3F9104C0E48C4E9CF
:109BA00000068020C4E902604000206180006061FE
:109BB0002020A061C001E061204600F007F908B153
:109BC000FFF748FE2C62656206B070BD00240140BC
:109BD0000010024000080140080002401C03002061
:109BE0002DE9F047894604463B4900683B4F0E1D6E
:109BF0009046884201D0B84207D1306810F4702FE7
:109C000003D001252846BDE8F08794F824000128F8
:109C10000CD0012084F824002046FFF719FA050033
:109C20004FF0000004D084F82400EBE70220EAE7BC
:109C3000A16A40F60162914341F48071A1622168FA
:109C4000B94218D1326812F4702F14D0A16A41F4CD
:109C50008011A1623168490505D5A16A21F400513E
:109C600041F48051A162A16AC9040AD5E16A21F0D8
:109C70000601E16206E0A26A22F48012A26249684B
:109C8000E9E7E06284F82400216A15488862216AC5
:109C90001448C862216A1448086321686FF0020002
:109CA00008602068816841F48071816021684346C2
:109CB0004A464C31206A00F0B7F820688168C1F349
:109CC00042410729816803D041F48011816099E7FE
:109CD00041F4A001FAE700000024014000280140FF
:109CE000DF8F0008479000082D90000810B590F80D
:109CF00021100022022905D00421816380F8202050
:109D0000012010BD01680B6823F00E030B60016891
:109D10000B6823F001030B6090F84030C46B012105
:109D200001FA03F3636080F8211080F820201046C8
:109D300010BD000010B590F821100024022903D0B6
:109D40000421816301243DE001680A6822F00E02CB
:109D50000A6001680A6822F001020A601A4A016872
:109D6000914201D1012121E0174A1432914201D1DF
:109D700010211BE0144A2832914201D1891515E0C7
:109D8000114A3C32914201D189140FE00E4A5032FF
:109D9000914202D14FF4803108E00B4A6432914283
:109DA00002D14FF4801101E04FF08071064A083A69
:109DB0005160012180F82110002180F82010416BB2
:109DC00001B18847204610BD0800024030B528B3D5
:109DD00008C8134914221944B1FBF2F18900C16388
:109DE00010498163022141771A6843F6F0718A4372
:109DF000D0E900142143D0E902452C4321430469F2
:109E0000214344692143846921431143196000219E
:109E10004163012242770177084630BD012030BD01
:109E2000F8FFFDBF0000024070B5044690F8200026
:109E3000002501280CD0012084F8200094F821602E
:109E40000020012E06D084F820000225284670BD8F
:109E5000022070BD022684F82160A0632068066895
:109E600026F0010606602046FFF7CBFAE06A0028DC
:109E70002068016802D041F00E0106E021F00401E3
:109E800001602068016841F00A01016020680168F2
:109E900041F001010160D9E770B5044600F01AF9FC
:109EA0000546601C02D004480078044400F012F912
:109EB000401BA042FAD370BD04000020B0F5806FB3
:109EC00001D101F0FFBD7047044910B50A68024294
:109ED00002D00860FFF7F2FF10BD0000140401403B
:109EE0002DE9F84FDFF8B8910024A9F1040B2346BF
:109EF0000F2709F1040AABF1040EC9E00125A540C2
:109F00002A40AA427DD1674ED1F804C0ACEB0608C6
:109F1000B44532D014DCBCF1030F3AD009DCBCF1FB
:109F2000000F2AD0BCF1010F1CD0BCF1020F31D1BF
:109F30001DE0BCF1110F17D0BCF1120F2AD119E0AE
:109F4000B8F5881F19D006DCB8F5803F15D0B8F5F4
:109F5000801F1FD111E0B8F5001F0ED0B8F5041F07
:109F600018D10AE0CB6815E0CB681B1D12E0CB6866
:109F700008330FE0CB680C330CE08B682BB1012B5E
:109F80004FF0080303D0456104E0042302E00561BB
:109F900000E00023FF2A01D8064601E000F1040694
:109FA0004FEA840501D9A5F12005D6F8008007FA0B
:109FB00005FC28EA0C0803FA05F548EA0508C6F886
:109FC00000804D68ED0062D5374DAE6946F0010660
:109FD000AE61AD6924F0030605F001050095334D2F
:109FE00006EB050CDCF80850A607360F07FA06F852
:109FF00025EA0805DFF8B880404503D14FF0000896
:10A0000017E044E0DFF8AC80404502D14FF0010892
:10A010000FE0DFF8A480404502D14FF0020808E0CD
:10A02000DFF89880404502D14FF0030801E04FF07F
:10A03000040808FA06F848EA0508CCF808804D68D4
:10A04000D9F80060ED024D4601D5164300E0964375
:10A050002E604D68DAF80060AD02554601D5164312
:10A0600000E096432E604D68DBF80060AD035D466E
:10A0700001D5164300E096432E604D68DEF800607F
:10A08000ED03754601D5164300E096432E60641C2F
:10A090000D682A46E5407FF431AFBDE8F88F000037
:10A0A00008040140000011100010024000000140AF
:10A0B00000080140000C0140001001400014014064
:10A0C0008068084000D0012070470AB101617047E4
:10A0D0000904FBE701488068704700000400002085
:10A0E00002488168027811448160704704000020B2
:10A0F000074810B5016841F010010160032000F02D
:10A10000A7F80F2000F006F800F050F8002010BD6E
:10A110000020024030B505461F4887B0C16941F0B4
:10A120000401C161C06906A900F00400009001A803
:10A1300000F0FEF90498B0B100F01AFA4000174997
:10A14000174AB0FBF1F11748491E0260416040F226
:10A15000E7320021C0E903218160816100F002FF44
:10A16000040003D015E000F003FAE8E70D4800F022
:10A170007BFF04000DD11E2000F03CF8102D07D20B
:10A18000002229461E2000F043F80748056000E041
:10A19000012407B0204630BD0010024040420F00AD
:10A1A00000080040A4030020080000200F4808B564
:10A1B000816941F001018161816901F00101009132
:10A1C000C16941F08051C161C069002200F0805036
:10A1D00000900F21901E00F01BF80548416821F007
:10A1E000E06141F00071416008BD000000100240D4
:10A1F00000000140002809DB00F01F02012191400E
:10A200004009800000F1E020C0F800117047000014
:10A21000F0B40E4B1B680C46C3F30223C3F10705D1
:10A22000042D00D90425191D072901D2002300E0BF
:10A23000DB1E012606FA05F1491E214099409E4089
:10A24000761E16403143F0BC04F02CB80CED00E053
:10A25000064900F0070208684FF6FF03184040EA7D
:10A260000220034A10430860704700000CED00E034
:10A270000000FA0510B501460020234C012922D028
:10A28000022939D010291DD161682268D20119D55F
:10A290001E48C1F38342C903805C0AD561681B4A2A
:10A2A000C1F34041921E515C194AB2FBF1F148439F
:10A2B00001E0184948436168490203D44000032182
:10A2C000B0FBF1F010BD226AC2F30121012903D1D4
:10A2D000920701D5C80310BD022905D1626A920711
:10A2E00002D549F6404010BD0329FCD121688903FD
:10A2F000F9D54FF2244010BD00F04AF96168C1F36E
:10A300008131491C4900DBE700100240941C010820
:10A3100000127A0000093D002DE9F8430546007857
:10A32000354CC00754D0E0690026C00008D4E0696D
:10A3300040F08050E061E069012600F0805000901C
:10A340002E480168C90512D40168804641F4807125
:10A350000160FFF7BFFE074605E000BFFFF7BAFE4A
:10A36000C01B642823D8D8F80000C005F6D5206AA1
:10A3700010F4407021D0A98801F4407181421CD0B2
:10A38000206A1F49012220F440700A6000220A60FE
:10A390002062C00711D0FFF79DFE074641F28838C2
:10A3A00008E000BFFFF796FEC11B414502D903201C
:10A3B000BDE8F883206A8007F4D5206A696820F434
:10A3C0004070084320621EB1E06920F08050E061D7
:10A3D0002878800705D56068A96820F440400843C4
:10A3E00060602878C00605D56068E96820F48000C0
:10A3F000084360600020DBE700100240007000406E
:10A40000400442422DE9F0470F46050061D0434E1B
:10A41000306800F00700B84209D2306820F0070029
:10A4200038433060306800F00700B84251D12868E6
:10A430003B4C810712D5400703D5606840F4E060CB
:10A4400060602878000703D5606840F46050606061
:10A450006068A96820F0F000084360602878C007B1
:10A4600028D06868012810D02168022810D08907F8
:10A4700000292EDA616821F0030101436160FFF7D2
:10A4800029FE804641F288390DE021688903EFE713
:10A490008901EDE7FFF71EFEA0EB0801494502D94F
:10A4A0000320BDE8F0876068696800F00C00B0EB3D
:10A4B000810FEFD1306800F00700B8420BD9306847
:10A4C00020F0070038433060306800F00700B842E1
:10A4D00001D00120E5E72878400705D56068E968E4
:10A4E00020F4E060084360602878000706D56068C3
:10A4F000296920F4605040EAC100606000F058F81B
:10A500006168084AC1F30311515CC84006490860FC
:10A5100006480068FFF7FEFD0020C2E70020024069
:10A5200000100240A41C01081000002008000020B8
:10A530000F2202600C4A536803F003034360536820
:10A5400003F0F0038360536803F4E063C360526870
:10A550004FF4E06303EAD20202610448006800F0AD
:10A560000700086070470000001002400020024011
:10A570000448054900684968044AC1F30221515C56
:10A58000C84070471000002000100240B41C0108B1
:10A590000448054900684968044AC1F3C221515C76
:10A5A000C84070471000002000100240B41C010891
:10A5B0000E4A51680E4801F00C03042B11D0082BF1
:10A5C0000FD10C48C1F38343C903C05C0AD551685D
:10A5D000084AC1F34041921E515C054A5043B0FB0A
:10A5E000F1F07047044948437047000000100240F2
:10A5F00000127A00821C010800093D002DE9F84F85
:10A60000040070D02078C04DC00749D06868C0F3FE
:10A610008100012807D06868C0F38100022809D1B1
:10A620006868C00306D52868800339D560680028AB
:10A63000E7D035E06068B0F5803F0BD010B1B0F5E1
:10A64000A02F11D0286820F480302860286820F4DA
:10A65000802002E0286840F480302860606890B173
:10A66000FFF738FD06460AE0286840F4802028609D
:10A67000F0E700BFFFF72EFD801B642873D8286821
:10A680008003F7D50CE0FFF725FD064605E000BF87
:10A69000FFF720FD801B6428F0D828688003F7D4DA
:10A6A00020789A4E80074FF001094FF0000839D505
:10A6B000686810F00C0F07D06868C0F381000228AA
:10A6C00009D16868C00306D42868800714D52069BA
:10A6D000012808D110E02069B0B1C6F80090FFF75A
:10A6E000F9FC074605E00AE1FFF7F4FCC01B02286D
:10A6F000C4D828688007F7D52868616920F0F80079
:10A7000040EAC10028600DE0C6F80080FFF7E2FCD7
:10A71000074604E0FFF7DEFCC01B022823D82868A8
:10A720008007F7D4207800072CD57948A169D9B1E2
:10A73000C0F80090FFF7CEFC074604E0FFF7CAFC24
:10A74000C01B02280FD8686A8007F7D571484FF4FC
:10A75000FA510068B0FBF1F0009000BF0098411E74
:10A760000091FAD20EE080E0C0F80080FFF7B2FC62
:10A77000074604E0FFF7AEFCC01B022875D8686AE4
:10A780008007F7D42078400760D5E8690027C0002B
:10A7900008D4E86940F08050E861E869012700F0DA
:10A7A000805000905C480168C90513D40168834655
:10A7B00041F480710160FFF78DFC824606E000BF26
:10A7C000FFF788FCA0EB0A0064284ED8DBF80000F5
:10A7D000C005F5D5E06801280AD008B1052813D0D6
:10A7E000286A20F001002862286A20F0040002E0B4
:10A7F000286A40F001002862E06841F2883B98B185
:10A80000FFF768FC82460BE0286A40F004002862EB
:10A81000EEE700BFFFF75EFCA0EB0A0159455AD8EE
:10A82000286A8007F6D50CE0FFF754FC824605E065
:10A83000FFF750FCA0EB0A0159454CD8286A800765
:10A84000F6D41FB1E86920F08050E861E06988B370
:10A850006968C1F38101022944D00228C6F86080EA
:10A8600004D0FFF737FC044638E034E0FFF732FC51
:10A87000074604E0FFF72EFCC01B02282BD82868EF
:10A880008001F7D4206AB0F5803F05D16868A168DF
:10A8900020F4003008436860D4E90801084369687F
:10A8A00021F4741108436860C6F86090FFF712FC49
:10A8B000044606E025E000BFFFF70CFC001B022861
:10A8C00009D828688001F7D51BE000BFFFF702FC1C
:10A8D000001B022802D90320BDE8F88F28688001F8
:10A8E000F4D40EE00128F7D06868226A00F48031C1
:10A8F000914204D1616A00F47010884201D00120B5
:10A90000EAE70020E8E700000010024000004242B1
:10A9100080044242100000200070004070B5040026
:10A9200009D0606A002540B125616561A56294F88F
:10A93000510040B10CE0012070BD6068B0F5827F2D
:10A94000F4D0E561F2E784F85050204600F040F87A
:10A95000022084F851002068016821F04001016064
:10A96000A088218900F4827001F404410843A18980
:10A9700001F400610843217C01F002010843217DBC
:10A9800001F001010843218B01F400710843217F8C
:10A9900001F03801084394F8201001F080010843C9
:10A9A000218D01F40051084321680860A069042149
:10A9B00001EA1040216848602068C16921F4006103
:10A9C000C1616565012084F85100002070BD000060
:10A9D00030B585B00024009401940294039400687B
:10A9E0001549884225D11548C16941F48041C161AA
:10A9F000C16901F480410491816941F008018161DC
:10AA000080690F4D00F0080004904FF42040009042
:10AA1000022001900320039069462846FFF760FA60
:10AA20004FF48040CDE90004694628460294FFF7C0
:10AA300057FA05B030BD0000003800400010024059
:10AA4000000C01402DE9F84F044690F8510098465B
:10AA500016460F460025012801D0022598E06068BF
:10AA60004FF0040BB0F5827F01D1A068F8B194F8E3
:10AA70005000012826D04FF0010984F85090FFF7CC
:10AA800029FB8246002F7FD0002E7DD084F851B064
:10AA900000206065A763A687E6872063A086E0861E
:10AAA00020646064A068B0F5004F0DD016E084F813
:10AAB00051B013460A462046CDF8008000F024F934
:10AAC000BDE8F88F0220FBE72068016821F0400113
:10AAD00001602068016821F48041016020680168FC
:10AAE000490603D4016841F040010160E068D8B133
:10AAF0003BE020688168C90709D0007BA16B087022
:10AB0000A06B401CA063E08F401EE0870CE0FFF7C5
:10AB1000E1FAA0EB0A01414503D3B8F1FF3F03D0AE
:10AB200006E0B8F1000F03D0E08F0028E1D11FE06C
:10AB300003252BE020688168C90709D0C068A16B94
:10AB40000880A06B801CA063E08F401EE0870CE0B3
:10AB5000FFF7C0FAA0EB0A01414503D3B8F1FF3F6C
:10AB600003D0E5E7B8F1000FE2D0E08F0028E1D193
:10AB700052464146204602F099FE08B12020606509
:10AB8000606D00E000E008B1012501E084F851901B
:10AB9000002084F85000284692E72DE9F84F04463B
:10ABA00090F850000026984615468A4601280CD099
:10ABB000012784F85070FFF78DFA814694F8510010
:10ABC000B346012804D002269AE00220BDE8F88F9F
:10ABD000BAF1000F6FD0002D6DD0032084F8510022
:10ABE000C4F854B0C4F830A0A586E586C4F838B0DF
:10ABF000A4F83CB0A4F83EB0C4F844B0C4F840B0E7
:10AC0000A068B0F5004F09D12068016821F040012B
:10AC100001602068016841F480410160206801689A
:10AC2000490603D4016841F040010160E068B0F5D5
:10AC3000006F606803D058B3012D29D049E008B1F6
:10AC4000012D1FD1206B21680088C86006E02068B4
:10AC50008168890709D5216B0988C160206B801C38
:10AC60002063E08E401EE0860CE0FFF733FAA0EB95
:10AC70000901414503D3B8F1FF3F03D006E0B8F125
:10AC8000000F03D0E08E0028E1D125E0032635E057
:10AC9000206B21680078087306E0206881688907C6
:10ACA0000AD5216B09780173206B401C2063E08E6C
:10ACB000401EE0860DE01FE0FFF70CFAA0EB090153
:10ACC000414503D3B8F1FF3F03D0DFE7B8F1000FF0
:10ACD000DCD0E08E0028E0D14A464146204602F012
:10ACE00013FE08B120206065A06818B92068C1680B
:10ACF00080680090606D08B1012601E084F8517011
:10AD000084F850B0304661E72DE9FF4F81B004462A
:10AD100090F8500000260E9F1D4693464FF0010903
:10AD200001280FD04FF0010A84F850A0FFF7D2F9A4
:10AD3000804694F85100616801280DD0B1F5827FFA
:10AD400008D103E0022005B0BDE8F08FA16809B981
:10AD5000042801D00226C9E00298002865D0BBF182
:10AD6000000FFBD0002DF9D094F85100042802D038
:10AD7000052084F8510000206065C4F838B0E587EC
:10AD8000A58702992163E586A58620646064206812
:10AD90000168490603D4016841F040010160E068A0
:10ADA000B0F5006F606803D0F0B3012D47D081E0AB
:10ADB00008B1012D3CD1206B21680088C860206B50
:10ADC000801C2063E08E401EE08631E020688168B0
:10ADD00089070FD5E18E69B1B9F1010F0AD1216B55
:10ADE0000988C160206B801C2063E08E401EE086D5
:10ADF0004FF0000920688168C9070CD0E18F51B17C
:10AE0000C068A16B0880A06B801CA063E08F401E0F
:10AE1000E0874FF00109FFF75DF9A0EB0800B842A9
:10AE200006D3781C04D001E009E05BE003265BE078
:10AE3000E08E0028CAD1E08F0028C7D140E0206B07
:10AE4000216800780873206B401C2063E08E401E50
:10AE5000E0862FE02068816889070FD5E18E69B10F
:10AE6000B9F1010F0AD1216B09780173206B401CE5
:10AE70002063E08E401EE0864FF000092068816864
:10AE8000C9070CD0E18F51B1C068A16B0870A06BED
:10AE9000401CA063E08F401EE0874FF00109FFF7E0
:10AEA00019F9A0EB0800B84202D3781C02D0BAE727
:10AEB000002FB8D0E08E0028CCD1E08F0028C9D177
:10AEC00042463946204602F01FFD18B101262020D7
:10AED00060650BE0A06818B92068C16880680090C0
:10AEE000606D08B1012601E084F851A0002084F8CB
:10AEF0005000304627E770477047000070B590F863
:10AF00003C20012A26D0012480F83C40022280F80F
:10AF10003D2003685A689D6822F070060A68324333
:10AF20005A600D4B02689A4208D0B2F1804F05D0AA
:10AF30000A4B9A4202D00A4B9A4204D1496825F042
:10AF400080031943916080F83D40002180F83C1057
:10AF5000084670BD022070BD002C01400004004076
:10AF60000008004010B5040003D094F83D0010B173
:10AF700007E0012010BD002084F83C00204600F0CE
:10AF80001FF8022084F83D00211D206802F07EFD9C
:10AF9000012084F8460084F83E0084F83F0084F8DD
:10AFA000400084F8410084F8420084F8430084F8AB
:10AFB000440084F8450084F83D00002010BD0000E6
:10AFC00008B5124A01681248914207D1816941F4DB
:10AFD00000618161806900F4006014E0B1F1804F8C
:10AFE0000AD00C4A91420FD1C16941F00201C161FE
:10AFF000C06900F0020006E0C16941F00101C161D1
:10B00000C06900F00100009008BD0000002C014064
:10B01000001002400004004090F83D10012901D0CA
:10B0200001207047022180F83D1000680B498842DA
:10B0300008D0B0F1804F05D00949884202D00949B3
:10B04000884204D1816801F00701062903D0016814
:10B0500041F001010160002070470000002C014018
:10B06000000400400008004090F83D10012901D084
:10B0700001207047022180F83D100168CA6842F043
:10B080000102CA6000680B49884208D0B0F1804FC5
:10B0900005D00949884202D00849884204D1816814
:10B0A00001F00701062903D0016841F001010160A8
:10B0B00000207047002C01400004004000080040C0
:10B0C00070B5044690F83C000025012817D00126F1
:10B0D00084F83C60022084F83D002068826822F0F9
:10B0E000770222F47F4282600868502838D00DDC55
:10B0F00020284FD005DC90B3102811D14AE002205F
:10B1000070BD302846D040280AD13BE060282FD0BF
:10B1100070280DD0B0F5805F03D0B0F5005F12D07D
:10B12000012584F83D60002084F83C00284670BD6D
:10B13000CB68D1E90121206802F0EBFC206881682E
:10B1400041F0770109E0CB68D1E90121206802F0E4
:10B15000E0FC2068816841F480418160E1E719E00A
:10B16000CA684968206802F089FD5021206806E01D
:10B17000CA684968206802F092FD6021206802F0E8
:10B18000D2FCCEE7CA684968206802F077FD40210A
:10B190002068F4E7226801461046F0E7704770B572
:10B1A0000446006801694FF00005C943890715D4BA
:10B1B000C168C943890711D4E91E016101202077C4
:10B1C000206880698007204602D0FFF7E7FF04E08F
:10B1D00000F0E0F8204600F072F925772068016958
:10B1E000C943490717D4C168C943490713D46FF04D
:10B1F00004010161022020772068806910F4407FFB
:10B20000204602D0FFF7CAFF04E000F0C3F8204652
:10B2100000F055F9257720680169C943090716D45C
:10B22000C168C943090712D46FF008010161042005
:10B2300020772068C0698007204602D0FFF7AEFF64
:10B2400004E000F0A7F8204600F039F925772068DF
:10B250000169C943C90617D4C168C943C90613D4D3
:10B260006FF010010161082020772068C06910F498
:10B27000407F204602D0FFF791FF04E000F08AF8FB
:10B28000204600F01CF9257720680169C943C907E9
:10B2900008D1C168C943C90704D1891E016120468C
:10B2A00000F05CF920680169C943090609D4C16846
:10B2B000C943090605D46FF0800101612046FFF7FC
:10B2C0001AFE20680169C943490609D4C168C94307
:10B2D000490605D46FF040010161204600F048F9AD
:10B2E00020680169C94389060BD4C168C94389062E
:10B2F00007D46FF0200101612046BDE87040FFF7E0
:10B30000FBBD70BD10B586B0002100910191029186
:10B31000039102681B4902241B48B2F1804F23D0DD
:10B320001A4B9A421ED18A6942F004028A618A69E4
:10B3300002F0040204928A6942F008028A61896973
:10B34000039401F008010491C021CDE9001469467D
:10B35000FEF7C6FD0320CDE9000469460C480394BE
:10B36000FEF7BEFD06B010BD8A6942F004028A6194
:10B370008969009401F004010194CDE90341694613
:10B38000EEE7000000100240000801400004004009
:10B39000000C0140704770B5044690F83C00002650
:10B3A0000D4601280FD0012084F83C006AB1042A20
:10B3B0001DD0082A2FD00C2A3FD00126002084F867
:10B3C0003C00304670BD022070BD206802F0B4FB26
:10B3D0002068816941F0080181612068816921F05C
:10B3E00004018161206881692A69114311E02068A4
:10B3F00002F0CAFB2068816941F400618161206824
:10B40000816921F480618161206881692A6941EA4A
:10B4100002218161D2E7206802F0E2FB2068C16965
:10B4200041F00801C1612068C16921F00401C161D6
:10B430002068C1692A69114311E0206802F0FCFB11
:10B440002068C16941F40061C1612068C16921F4CB
:10B450008061C1612068C1692A6941EA0221C16134
:10B46000ACE710B5040003D094F83D0010B107E03C
:10B47000012010BD002084F83C00204600F01EF89A
:10B48000022084F83D00211D206802F0FFFA01200F
:10B4900084F8460084F83E0084F83F0084F84000B9
:10B4A00084F8410084F8420084F8430084F84400A2
:10B4B00084F8450084F83D00002010BD70477047B7
:10B4C00010B50446022249B104290ED0082913D030
:10B4D00094F84100012816D0012010BD94F83E00D8
:10B4E0000128F9D184F83E200FE094F83F000128AC
:10B4F000F2D184F83F2008E094F840000128EBD115
:10B5000084F8402001E084F841200122206802F004
:10B51000F3FA0F492068884203D1426C42F400429A
:10B5200042642068884208D0B0F1804F05D00949B4
:10B53000884202D00849884204D1816801F007019D
:10B54000062903D0016841F001010160002010BD0F
:10B55000002C01400004004000080040006803493E
:10B56000884201D1FEF7BCBD7047000000080040D2
:10B57000704738B5044690F84200202801D00220D8
:10B5800038BD61B15AB101202063002060632046BC
:10B5900002F008FD0028F3D1216B012901D0012020
:10B5A00038BD21680A684968009121680C3151E86A
:10B5B000002F42F0100241E80023002BF5D138BDE6
:10B5C00010B50C4600681449884223D1134800780E
:10B5D00068B11349224601F50060FCF730FE192CD2
:10B5E00012D210A11348FCF74EFE50B904E02146D8
:10B5F0000B48FEF7DFF807E00FA10E48FCF743FE0B
:10B6000010B1124901200870FDF71EFFBDE810407F
:10B61000FEF7B4B810BD000000440040AC000020AC
:10B62000C83C00205749464920444953434F4E4E99
:10B6300045435400C84400204D5154544449534399
:10B640004F4E4E454354454400000000AB000020DF
:10B6500070470000F8B5016804460868CA684B697D
:10B6600010F00F0F4FF0000559D003F0010602F45F
:10B670009077374365D0C10705D0D10503D5616CFC
:10B6800041F001016164410705D5D90703D0616C20
:10B6900041F002016164810705D5D90703D0616CCF
:10B6A00041F004016164010707D502F02001314334
:10B6B00003D0616C41F008016164616C00293AD0EB
:10B6C000800604D5900602D5204602F0AEFB206825
:10B6D0004069616CC0F38010090700D460B3204654
:10B6E00002F06EFB20684069400621D520681430C6
:10B6F00050E8001F21F0400140E80012002AF5D177
:10B70000E06BA8B16D494163E06BFEF713FB0028C5
:10B7100011D0E06B416B01B0BDE8F04008478306F3
:10B720000FD593060DD52046BDE8F84002F07DBB4D
:10B730002046FFF78DFFF8BD2046FFF789FF6564BF
:10B74000F8BD266B2023012E7CD1C6067AD5D606FD
:10B7500078D508684868009048694FF002064006AE
:10B7600040D5E16B086840680004000CE8D0A28D69
:10B770008242E5D9E085886920282DD020680C30E8
:10B7800050E8001F21F4807140E80012002AF5D132
:10B790002068143050E8001F21F0010140E8001239
:10B7A000002AF5D12068143050E8001F21F0400134
:10B7B00040E80012002AF5D184F842302563206861
:10B7C0000C3050E8001F21F0100140E80012002A60
:10B7D000F5D1E06BFEF78AFA6663A08DE18D401A21
:10B7E00081B22AE0A08DE18D401A81B2E08D00285F
:10B7F000A6D00029A4D022680C3252E8000F20F411
:10B80000907042E80007002FF5D12068143050E80E
:10B81000002F22F0010240E80027002FF5D184F824
:10B820004230256320680C3050E8002F22F01002CF
:10B8300040E80023002BF5D166632046FFF7C0FEE9
:10B84000F8BDFFE705062BD5150629D594F841006C
:10B850002128F5D1A068B0F5805F01D12069B0B191
:10B86000206A411C2162216800784860E08C401EFB
:10B870000004000CE084E3D12068C16821F080015D
:10B88000C1602068C16841F04001C160D8E7206A0A
:10B890000088C0F308004860206A801C2062E5E749
:10B8A0004006CDD55006CBD5CA68204622F04002CE
:10B8B000CA6084F8413000F002F9C1E7C3DC000837
:10B8C00070B5040004D094F84100002510B106E0E2
:10B8D000012070BD84F84050204600F023F8242059
:10B8E00084F841002068C16821F40051C1602046FD
:10B8F00002F0FCFA2068016921F49041016120689E
:10B90000416921F02A0141612068C16841F4005178
:10B91000C1606564202084F8410084F842006563BA
:10B92000002070BDF0B585B000240094019402940D
:10B9300003940646344F0368344902220320344DF1
:10B94000BB4221D18B6943F480438B618B6903F443
:10B95000804304938B6943F004038B6189690390EE
:10B9600001F0040104911102CDE900126946284654
:10B97000FEF7B6FA2815CDE9000469462846029478
:10B98000FEF7AEFA05B0F0BD224FBB42FAD1CB694B
:10B9900043F40033CB61CB6903F4003304938B6928
:10B9A00043F004038B618969039001F00401049161
:10B9B0000421CDE9001269462846FEF791FA0820D5
:10B9C000CDE90004694628460294FEF789FA134D32
:10B9D0001148C5E900048020C5E902402C618001BE
:10B9E0006C61C5E906402846FEF7F0F908B1FDF79D
:10B9F00031FFF5630022052126206E62FEF708FC68
:10BA00002620FEF7F7FBBDE700380140001002409A
:10BA100000080140004400406C0002406003002028
:10BA2000704770472DE9F843044690F841001F46DF
:10BA300016460D46202802D00220BDE8F8837DB1CD
:10BA400076B100206064212084F84100FEF742FBBB
:10BA5000A6848046E684A068B0F5805F02D003E04B
:10BA60000120EAE7206910B12E4600250EE00026ED
:10BA70000CE08021204602F0DDFAA0B9AEB116F844
:10BA8000010B21684860E08C401EE084E08C434656
:10BA90004FF0000200970028EBD14FF04001204604
:10BAA00002F0C8FA30B10320C7E735F8020BC0F343
:10BAB0000800E6E7202084F841000020BDE7704739
:10BAC000FEE700002DE9F043DFF840C1504A4FF097
:10BAD00001099CF800101268002011B3012925D03B
:10BAE000022921D1516A5062624640F2CC655278F7
:10BAF0000CF1040802F00703C3F107040123A3407B
:10BB0000541C4D1BE4B208EBD20270F1000534D393
:10BB100040F6B42700267F1A86412ED311781943A8
:10BB20003BE050628CF80090BDE8F083516A5062AF
:10BB300043F2C8228A1A70F1000207D343F2B064BC
:10BB40000022641A824101D302205BE042F6F8230E
:10BB5000CB1A70F100020DD342F6E06402460023D6
:10BB6000611A934106D38CF802908CF803908CF8FC
:10BB70000020D9E78CF80200D6E74FF41B754D1B67
:10BB8000064670F100050CD3354640F25467002696
:10BB9000791AAE4105D31178994311708CF80140A0
:10BBA0000CE08CF801008CF80200002108F801007C
:10BBB000491CC9B20429F9D38CF800009CF8011083
:10BBC0002029B1D398F8012098F80010D243D2B2BE
:10BBD00091420CD198F8032098F80210D243D2B2C7
:10BBE000914204D18CF802908CF8030008E0002107
:10BBF00008F80100491CC9B20429F9D38CF80200E5
:10BC00008CF801008CF800008EE70000A3000020F3
:10BC1000B40100200448817821B100218170001D09
:10BC20008078704700207047A30000200148C0784A
:10BC300070470000A30000200148FFF7EDB90000A5
:10BC4000B401002010B50120FDF740FAC0F5805086
:10BC500064214843C11700EB1150C0F3073010BDF9
:10BC600010B5FDF7E5FB2B4B2BA22FA130A0FDF764
:10BC70001DFD41F28834214637A0FDF7CBFD012898
:10BC800004D036A002F0D6FA012010BD39A002F08F
:10BC9000D1FAFDF7CDFB40F25B723CA141A0FDF76C
:10BCA00005FD21462CA0FDF7B5FD012804D043A0D9
:10BCB00002F0C0FA022010BD46A002F0BBFAFDF768
:10BCC000B7FB49A153A0FDF7F1FC214622A0FDF7E7
:10BCD000A1FD012804D054A002F0ACFA032010BD4D
:10BCE00056A002F0A7FAFDF7A3FB58A149A0FDF763
:10BCF000DDFC214618A0FDF78DFD012804D05EA0D3
:10BD000002F098FA042010BD60A002F093FA00201F
:10BD100010BD0000F42E010822326A4B77664F34C2
:10BD200076325822000000002274657374220000ED
:10BD300041542B4D515454555345524346473D3081
:10BD40002C312C25732C25732C25732C302C302C66
:10BD500022220D0A000000004F4B00004D515454A8
:10BD60002055534520434F4E464947204552524F98
:10BD7000520D0A004D5154542055534520434F4E07
:10BD8000464947204F4B0D0A00000000226D717498
:10BD900074732E6865636C6F7564732E636F6D22A8
:10BDA0000000000041542B4D515454434F4E4E3D22
:10BDB000302C25732C25642C300D0A004D51545421
:10BDC00020434F4E4E454354204552524F520D0A88
:10BDD000000000004D51545420434F4E4E454354F3
:10BDE000204F4B0D0A00000022247379732F326A12
:10BDF0004B77664F347632582F746573742F74689E
:10BE0000696E672F70726F70657274792F706F73BF
:10BE10007422000041542B4D5154545355423D302F
:10BE20002C25732C300D0A004D51545420504F5383
:10BE300054204552524F520D0A0000004D515454A7
:10BE400020504F5354204F4B0D0A00002224737989
:10BE5000732F326A4B77664F347632582F7465737E
:10BE6000742F7468696E672F70726F706572747961
:10BE70002F736574220000004D51545420534554D3
:10BE8000204552524F520D0A000000004D515454AB
:10BE900020534554204F4B0D0A00000080210148DB
:10BEA000FCF7E6B9C844002001480078704700005C
:10BEB000AB00002070B50D46064601460A48FCF767
:10BEC000E2F904000ED03046FCF7EFF920442A4690
:10BED00006A1401CFCF7FEF9002802D0FFF7DEFFA8
:10BEE000012070BD002070BDC84400202568687521
:10BEF0000000000070B50C4605460FA11048FCF785
:10BF0000C2F9002816D02A460EA1C01DFCF7E2F99E
:10BF100000280FD00DA10A48FCF7B5F9002809D078
:10BF2000224608A1C01DFCF7D5F9002802D0FFF772
:10BF3000B5FF012070BD00002274656D3122000044
:10BF4000C844002025686875000000002274656DF3
:10BF50003222000070B50C4605460FA11148FCF7CF
:10BF600092F9002816D02A460FA10A30FCF7B2F940
:10BF700000280FD00EA10B48FCF785F9002809D046
:10BF8000224609A10A30FCF7A5F9002802D0FFF7E4
:10BF900085FF012070BD000022766F6C756D6531E4
:10BFA00022000000C84400202568687500000000D9
:10BFB00022766F6C756D6532220000002DE9F0412C
:10BFC0000F4F00263E70FDF747FA0E4D012430B1A9
:10BFD0000DA002F02FF92C700120BDE8F081FFF7D1
:10BFE0003FFE28B10DA002F025F92C700220F4E7E5
:10BFF00010A002F01FF92E703C700020EDE7000049
:10C00000AC000020AB000020455350303153204994
:10C010004E4954204552524F520D0A004D5154542E
:10C0200020434F4E4E454354204552524F520D0A25
:10C03000000000004D51545420494E4954204F4BAC
:10C040000D0A000010B50B46024604A10E48FDF78C
:10C050002DFBBDE810400A2004F0FEBC22247379B9
:10C06000732F326A4B77664F347632582F7465736C
:10C07000742F7468696E672F70726F70657274794F
:10C080002F706F7374220000A82E010830B587B09E
:10C090000DA5059309A40295CDE903240CA2CDE9D1
:10C0A000002103460CA20EA11848FDF7FFFA07B0C5
:10C0B0000A20BDE8304004F0CFBC00005C22737061
:10C0C0006565645C220000005C226272745C220080
:10C0D0005C2274656D5C22005C2268756D5C2200D8
:10C0E00022247379732F326A4B77664F3476325835
:10C0F0002F746573742F7468696E672F70726F7018
:10C10000657274792F706F7374220000C02D01085E
:10C110001CB507A2CDE90021034608A20AA11548D3
:10C12000FDF7C4FABDE81C400A2004F095BC0000ED
:10C130005C2274656D325C22000000005C22746534
:10C140006D315C220000000022247379732F326A63
:10C150004B77664F347632582F746573742F74683A
:10C16000696E672F70726F70657274792F706F735C
:10C1700074220000482E01081CB507A2CDE9002159
:10C18000034608A20AA11548FDF790FABDE81C4035
:10C190000A2004F061BC00005C22766F6C756D654E
:10C1A000325C22005C22766F6C756D65315C22001A
:10C1B00022247379732F326A4B77664F3476325864
:10C1C0002F746573742F7468696E672F70726F7047
:10C1D000657274792F706F7374220000482E010805
:10C1E000FEB500241648009401941449029401609D
:10C1F00089158160012505730475022606614FF4D7
:10C2000060214460C161FDF715FC08B172B6FEE71C
:10C21000CDE900450524694609480294FDF788FBED
:10C2200008B172B6FEE7CDE9004669460448FDF75D
:10C230007FFB002801D072B6FEE7FEBD002401405E
:10C240002C0100202DE9F04786B0002432480094EC
:10C25000019402940394816941F004018161816930
:10C2600001F004010491816941F008018161806954
:10C27000DFF8A89000F00800049001221021484641
:10C28000FDF723FFDFF898A001224FF498515046A4
:10C29000FDF71BFF4FF4C058002241464846FDF70A
:10C2A00014FF10201127CDE90007032569464846F1
:10C2B000CDE90245FDF714FE4FF480600090194867
:10C2C0000126CDE9010669465046FDF709FE300317
:10C2D000CDE9000669465046CDE90245FDF700FE6E
:10C2E000CDE9008669464846CDE90245FDF7F8FDEF
:10C2F0002802CDE9000769465046CDE90245FDF721
:10C30000EFFD002205212820FDF782FF2820FDF700
:10C3100071FF06B0BDE8F087001002400008014040
:10C32000000C0140000021100E4810B50C490160BE
:10C330004FF48271416000218160C1604FF400724E
:10C340000161C0E90512C1610162416281620A2195
:10C35000C162FEF7E3FA002801D072B6FEE710BD15
:10C36000003800405C01002010B586B00024184859
:10C370000094019402940394049414490594016078
:10C380000721C0E901144FF6FF71C0E903148021B1
:10C39000C0E90541FEF7E6FD08B172B6FEE74FF4CD
:10C3A0008050009069460A48FEF78AFE08B172B6CE
:10C3B000FEE7049404A906480594FEF79FFD0028B3
:10C3C00001D072B6FEE706B010BD0000002C01409F
:10C3D000B401002010B58EB000240794089409948D
:10C3E0000A940B941C2168460C94FBF741FF1E48ED
:10C3F0004FF0804101600721C0E901146321C0E9C9
:10C40000031480218161FEF7ADFD08B172B6FEE72D
:10C410004FF48050079007A91348FEF751FE08B16A
:10C4200072B6FEE71048FFF71CF808B172B6FEE7D7
:10C430000B940BA90C480C94FEF760FD08B172B682
:10C44000FEE76020CDE90004022002900422694644
:10C4500004940548FEF79FFF08B172B6FEE7024854
:10C46000FEF750FF0EB010BDFC01002010B58EB0DD
:10C4700000240794089409940A940B941C2168469C
:10C480000C94FBF7F5FE2B48294901601E21C0E9F9
:10C490000114FE21C0E9031480218161FEF762FDD1
:10C4A00008B172B6FEE74FF48050079007A9214803
:10C4B000FEF706FE08B172B6FEE71E48FEF7D1FF92
:10C4C00008B172B6FEE70B940BA91A480C94FEF75C
:10C4D00015FD08B172B6FEE76020CDE90004022028
:10C4E00002900022694604941248FEF754FF08B1F6
:10C4F00072B6FEE7042269460E48FEF74CFF08B10B
:10C5000072B6FEE7082269460A48FEF744FF08B102
:10C5100072B6FEE70C22694606480294FEF73BFF1E
:10C5200008B172B6FEE70348FEF7ECFE0EB010BD90
:10C530000004004044020020FEE700000C210148F6
:10C54000FEF7BEBF4402002070B5642800D9642005
:10C55000C0EB00206421B0FBF1F010F0FF020C48AA
:10C56000006802640B4C4FF400614FF480554FF0AB
:10C570000002204603D0FDF7A8FD012202E0FDF7EE
:10C58000A4FD002229462046BDE87040FDF79DBD70
:10C590004402002000080140FEE7000010B5002121
:10C5A000074C0A46002004EBC1131A54401CC0B2C9
:10C5B0008028FAD3491CC9B20829F3D310BD000062
:10C5C000C8300020F0B50B4424E0044685181DE077
:10C5D0007F2C19D8002917DB3F2915DCCE1701EB7A
:10C5E00056764FEAE60C0D4F26F0070607EBCC1700
:10C5F0002744A1EB060E97F800C0012606FA0EF6B6
:10C600002CEA060C87F800C0641C24B2A542DFDCCB
:10C61000491C09B28B42D8DCF0BD0000C8300020B4
:10C620002DE9FF4F804687B0C2F101001446039008
:10C630000D46081901B200264746404600F090F822
:10C64000281B01B2384600F08BF808EB040000B25A
:10C65000294600F085F8A8EB040000B2294600F056
:10C660007FF80A98002875D0674206E0E81901B201
:10C67000404600F075F87F1C3FB2A742F6DB69E048
:10C68000761C039836B2002802DA00EB460004E07C
:10C69000641E24B2311B00EB4100401C00B2039029
:10C6A000281901B208EB060000B2814602910690FB
:10C6B00000F056F8A81901B208EB040000B2834656
:10C6C000059100F04DF8281B01B2A8EB060000B25E
:10C6D0000F460190009000F043F8A81B01B2A8EBB0
:10C6E000040000B28246049100F03AF83946484608
:10C6F00000F036F85846049900F032F80299009894
:10C7000000F02EF85046059900F02AF80A9808B370
:10C71000604207B20BE0E81901B28946069800F0C2
:10C720001FF84946019800F01BF87F1C3FB2A74252
:10C73000F1DB704207B20BE0E81901B289465046BE
:10C7400000F00EF84946584600F00AF87F1C3FB248
:10C75000B742F1DBA64293DB0BB0BDE8F08F0000DF
:10C7600010B57F2813D8002911DB3F290FDCCA1729
:10C7700001EB5272D410064B22F0070203EBC413F4
:10C7800018448A1A0378012191400B43037010BDAD
:10C79000C830002070B500240646802525FA04F034
:10C7A000304000D0012000F0D3F9012000F0C8F99A
:10C7B000002000F0C5F9641CE4B2082CEED301207F
:10C7C00000F0BEF9BDE87040002000F0B9B910B526
:10C7D000012000F0BDF9012000F0B2F9002000F0C6
:10C7E000B7F9BDE81040002000F0AAB910B500204C
:10C7F00000F0AEF9012000F0A3F9BDE810400120DF
:10C8000000F0A6B910B5AE2000F0AAF9D52000F0CE
:10C81000A7F9802000F0A4F9A82000F0A1F93F209A
:10C8200000F09EF9D32000F09BF9002000F098F969
:10C83000402000F095F9A12000F092F9C82000F006
:10C840008FF9DA2000F08CF9122000F089F98120AC
:10C8500000F086F9CF2000F083F9D92000F080F9AC
:10C86000F12000F07DF9DB2000F07AF9302000F0B3
:10C8700077F9A42000F074F9A62000F071F98D205A
:10C8800000F06EF9142000F06BF9AF2000F068F9A9
:10C89000FFF784FEBDE8104000F03EB90FB470B55C
:10C8A000C0B014460D46064648AA6846479901F0AE
:10C8B000E7FC23466A462946304600F0BFF840B000
:10C8C00070BC5DF814FB0000F0B50B4423E0044697
:10C8D00085181CE07F2C18D8002916DB3F2914DCB2
:10C8E000CE1701EB567C4FEAEC070C4E2CF0070CF0
:10C8F00006EBC7162644A1EB0C0E37784FF0010C5F
:10C900000CFA0EFC87EA0C073770641C24B2A542AF
:10C91000E0DC491C09B28B42D9DCF0BDC8300020F4
:10C9200010B50C4640F0B00000F01AF9102040EAB3
:10C93000141000F015F904F00F00BDE8104000F0ED
:10C940000FB9000008B5082B0DD0062B0AD10A4BF1
:10C9500002EB420203EB4202C03A00920823062295
:10C9600000F00EF808BD054B03EB0212A2F50072B1
:10C97000102300920822F3E7AC220108BC1C010836
:10C980002DE9F04F1F4616460D4682460024FFF75C
:10C9900019FE7F1EF81707EB50700121DFF898B0E1
:10C9A00001EBE00743E000203DE000BF0AEB00039D
:10C9B0007F2B36D8E91705EB5171CA1021F007011A
:10C9C000691A002D03DA521E083112B209B202EBC5
:10C9D0000409B9F1070F0ED8099A04FB06F80244BE
:10C9E0000BEBC91E18F802201EF803C08A404CEA5F
:10C9F000020C0EF803C009F10102072A11D80BEB53
:10CA0000C91202EB0308099A04FB06FC024498F8D9
:10CA100080301CF80220C1F10801CA40134388F895
:10CA20008030401CC0B2B042C0D3641CE4B2A74204
:10CA3000B9DCBDE8F08F0000C83000202DE9FF4FC1
:10CA4000002583B09B4690462C46AA46DFF8C0904E
:10CA500056E010068DF8042005F101050DD4039869
:10CA6000ADB220448DF805A000B25B460499FFF7F3
:10CA700069FF04EB0B0084B242E0A8B218F8001082
:10CA8000002941D0401C8DF8051085B28DF806A014
:10CA9000002606E0384601A9FBF70EFC68B1761CBB
:10CAA000B6B2C6EBC60000EB800101EB09000746F9
:10CAB00018A1FBF701FC0028ECD1BBF1080F03D053
:10CAC000BBF1060F1CD111E0C6EBC60000EB8001E4
:10CAD00001EB0900C01C009003981023204400B211
:10CAE0001A460499FFF74CFF103408E00398062318
:10CAF000204400B23F220499FFF724FFA41DA4B2F2
:10CB000018F80520002AA4D107B0BDE8F08F000076
:10CB1000E62401080000000070B5084D0024002143
:10CB20002046FFF7FDFE05EBC410802100F029F838
:10CB3000641CE4B2082CF2D370BD0000C8300020A1
:10CB400002464FF480710148FDF7BFBA000C014066
:10CB500002464FF400710148FDF7B7BA000C0140DE
:10CB600010B50446FFF733FE7820FFF713FE0020D0
:10CB7000FFF710FE2046FFF70DFEBDE81040FFF75F
:10CB800035BE70B50D460646FFF721FE7820FFF74B
:10CB900001FE4020FFF7FEFD002404E0305DFFF7BA
:10CBA000F9FD641CE4B2AC42F8D3BDE87040FFF775
:10CBB0001DBE000038B51848D0E90410814228D1C4
:10CBC0000020042200906946900301F0A9FA9DF824
:10CBD0000300009C042260F31F6469460F4801F0C3
:10CBE0009FFA9DF80310009861F31F604FF4005105
:10CBF000B1EB144F01D00AA005E00F490844B0F58D
:10CC0000C03F04D90DA001F015FB002038BD012064
:10CC100038BD11A0F7E70000B800002004000100B3
:10CC20004150505F537461636B5F70747220455262
:10CC3000524F520D0A0000000080FFF74150505F34
:10CC400052657365745F48616E646C65722045520D
:10CC5000524F520D0A0000004150505F4C454E208B
:10CC60004552524F520D0A0010B5FCF7E1FB04A0EB
:10CC7000FCF71CFDBDE810404FF47A70FDF70CB9CD
:10CC80002B2B2B001CB5FCF7D3FB0948074AB0F946
:10CC90000410CDE90012B0F9023006A207A10A483B
:10CCA000FCF704FDBDE81C4000F0B4B92C310108CC
:10CCB000B80000207465737400000000326A4B777E
:10CCC000664F347632580000E42F01082DE9FE4FFC
:10CCD00000F088F99D48002441F2883B018A8905CB
:10CCE00003D04FF00109824621E1804667E02146EA
:10CCF00097A001F09FFAA602002506F2FF39B84678
:10CD0000FCF796FB944995A28DE8420295A19848BC
:10CD1000D8F80C30FCF7CAFC594696A0FCF77AFD0F
:10CD2000002844D097A19B48FBF7ADFA00283ED0DD
:10CD30001030FBF791FB87B2D8F81400C119C8F87E
:10CD40001410394694A001F075FA98A0D8F8141080
:10CD500001F070FA4FF47A719AA0FCF75BFD30B3E2
:10CD60000020DFF868C29A499A4A09E00B881CF84B
:10CD700003505B1C1554C3F30A03401C0B8080B2A4
:10CD8000B842F3D300254FF4807A91460BE000BF00
:10CD900006EB052009EB0521524600F5803001F035
:10CDA00019FA6D1CADB2B5EB172FF1D305E0042DC8
:10CDB0000CD06D1CADB2052DA2D3641CA4B2D8F862
:10CDC00010004746B4EB902F91D3B8E00020BDE8A7
:10CDD000FE8F21465EA001F02DFAA8460027A5028D
:10CDE000FCF726FBD8F81010B4EB912F06D05A4967
:10CDF00005F2FF300091CDE9015004E0564A491E8A
:10CE00000092CDE9015155A256A15948D8F80C30ED
:10CE1000FCF74CFC594657A0FCF7FCFC00287DD0E1
:10CE200058A15C48FBF72FFA002877D01030FBF7A9
:10CE300013FB86B2D8F814008119C8F814103146D3
:10CE400055A001F0F7F959A0D8F8141001F0F2F943
:10CE50004FF47A715BA0FCF7DDFC98B300205B4BCC
:10CE60005B490BE00A885B4F13F802C0521C07F8BD
:10CE700000C0C2F30A02401C0A8080B2B042F1D363
:10CE8000D8F81000B4EB902F14D00027DFF84481BD
:10CE90000CE000BF05EB072008EB07214FF4807280
:10CEA00000F5803001F096F97F1CBFB2B7EB162F6A
:10CEB000F0D33AE016F0FF0F4FF0000703D009EB74
:10CEC000162828E02AE0DFF80C810BE005EB0720AC
:10CED00008EB07214FF4807200F5803001F07AF9F9
:10CEE0007F1CBFB2B7EB162FF0D31EE0B7EB162FA7
:10CEF00005EB072005D037494FF4807201EB07217D
:10CF000003E03449F2B201EB072100F5803001F073
:10CF100061F97F1CBFB2B845E8D806E0042F10D0F5
:10CF20007F1CBFB2052FFFF45BAF641CA4B2DAF81C
:10CF30001010554609EB9120A0423FF64AAF012060
:10CF400045E725A001F076F940E70000B800002091
:10CF5000693D25640D0A00002C3101087465737465
:10CF600000000000326A4B77664F3476325800007A
:10CF7000742F01084F74612D4572726E6F3A203024
:10CF800000000000436F6E74656E742D4C656E6713
:10CF900074680000C8420020636F6E74656E745F31
:10CFA0006C656E3D25640D0A000000004150505F25
:10CFB0005265616C4765745F53697A653D25640D00
:10CFC0000A0000000D0A0D0A00000000C83400200D
:10CFD000B00000204845002035206572726F720D48
:10CFE0000A00000070B500244FF4803505EB0430D2
:10CFF00001F063F8641CE4B2202CF7D3BDE8704064
:10D0000001A001F017B900006572617365206F6BB4
:10D010000D0A00007CB541F2883139A0FCF7FAFB1B
:10D0200000286BD039A13E48FBF72DF920B93DA16E
:10D030003B48FBF728F908B13FA014E041A138486C
:10D04000FBF721F9002854D042A13548FBF71BF922
:10D0500000284CD00830FBF7FFF9404CC0B2012843
:10D06000607004D03EA001F0E5F802207CBD41A133
:10D070002B48FBF708F9050012D005F10A00FBF771
:10D08000EBF9E08005F10C00FBF7E6F900B2208136
:10D09000B4F90610002901DB002801DA37A029E0E5
:10D0A0003BA11F48FBF7EFF820B1401DFBF7D4F977
:10D0B000E060D0B137A11A48FBF7E5F820B1801D38
:10D0C000FBF7CAF9206180B134A001F0B3F8D4E9CC
:10D0D0000301CDE900016378B4F90820B4F9061022
:10D0E00031A001F0A7F801207CBD3CA002E03FA0E8
:10D0F00000E043A001F09EF800207CBD44A0F9E7C9
:10D10000726571756573745F69640000226D736781
:10D11000223A227461736B207375636322000000EE
:10D12000C8420020226D7367223A226E6F74206518
:10D1300078697374220000004E4F205550444154CA
:10D14000450D0A00226D7367223A227375636322CC
:10D15000000000007374617475730000B800002053
:10D160006E6F207570646174652073746174650DF1
:10D170000A0000007461726765740000474554201E
:10D1800056455253494F4E204552524F520D0A00B8
:10D190007469640073697A65000000005550444169
:10D1A00054450D0A0000000076657273696F6E3A8F
:10D1B0005625642E25642C7570646174655F7374E4
:10D1C000617475733A25642C7469643D25642C730D
:10D1D000697A653D25640D0A00000000474554202A
:10D1E000544944204552524F520D0A00474554209D
:10D1F000535441545553204552524F520D0A00008A
:10D2000044617461204572726F720D0A0000000063
:10D210006E6F20726571756573745F69640D0A00C5
:10D2200010B5FCF719F920B108A001F003F80120AE
:10D2300010BD00F0D3F920B109A000F0FBFF0220DF
:10D2400010BD0DA000F0F6FF002010BD455350307A
:10D25000315320494E4954204552524F520D0A0035
:10D260004F54412054435020434F4E4E4543542089
:10D270004552524F520D0A004F544120494E4954D5
:10D28000204F4B0D0A00000038B50020009004220A
:10D29000694641F2040000F043FF9DF80310009836
:10D2A0000A4C61F31F6004226080694641F2080065
:10D2B00000F036FF9DF80310009861F31F6001B283
:10D2C000A180B4F9020000F087FA38BDB800002050
:10D2D0007FB5344C4FF4805520698DF80000010A69
:10D2E0008DF80110010C8DF80210000E8DF803006E
:10D2F000B4F906008DF80400010A8DF80510010C40
:10D300008DF80610000E8DF80700B4F908008DF8AE
:10D310000800010A8DF80910010C8DF80A10000EA2
:10D320008DF80B00284600F0C8FE0C2269462846FE
:10D3300000F050FF5FF00005B4F90810B4F90600E2
:10D3400000F04AFA28B9022D28D06D1CEDB2032D49
:10D35000F2D3002400F000FA28B1022C1ED0641C85
:10D36000E4B2032CF6D310A000680390002000F074
:10D37000A4FE032203A9002000F02CFF0BA000F064
:10D3800059FFBFF34F8F0D4801680D4A01F4E0616A
:10D3900011430160BFF34F8F00BFFDE704B00020D1
:10D3A00070BD0000B8000020016B5A0073746172F8
:10D3B000742072657365740D0A0000000CED00E0C6
:10D3C0000400FA052DE9F047494C0025DFF82491C7
:10D3D000207807274FF001082E46082826D2DFE8DC
:10D3E00000F0041930455E6B757BFCF773FED4E9E1
:10D3F0000621821A66EB01003F49511A70F10000C4
:10D4000014D33E49404681F800803D4989F80060C8
:10D410000E700AE0FFF704FF30B10DE0FFF700FFE8
:10D4200010B1022D08D103E002202070BDE8F08782
:10D43000277034A000F0FEFE6D1CEDB2032DEDD37D
:10D44000F4E7FFF721FF20B90BE000BFFFF71CFF57
:10D4500008B10320E9E7022D03D127702EA000F0C8
:10D46000E9FE6D1CEDB2032DF0D3DFE7FFF70AFCF8
:10D47000012804D0022807D0022D07D00AE02DA0F1
:10D4800000F0D8FE0420D0E730A011E0277035A0CE
:10D4900000F0D0FE6D1CEDB2032DE7D3C6E7FFF719
:10D4A00015FC20B136A000F0C5FE0520BDE738A070
:10D4B00000F0C0FE2770B9E7FFF77CFB20B139A070
:10D4C00000F0B8FE0620B0E73AA0F1E7FFF700FF52
:10D4D0000028ABD13CA0EBE700F03EF9666189F88B
:10D4E0000080FCF7F7FDC4E9060626709EE7000001
:10D4F000B8000020B4000020C0D40100AB00002020
:10D50000AC0000204F544120494E4954204552520E
:10D510004F520D0A000000004F5441205265706FB9
:10D5200072742056657273696F6E204552524F5265
:10D530000D0A00004F544120434845434B205550AD
:10D5400044415445204F4B0D0A0000004F544120E8
:10D55000434845434B204E4F205550444154450DC0
:10D560000A0000004F544120436865636B205570EA
:10D5700064617465204552524F520D0A000000004C
:10D5800041505020444F574E204F4B0D0A00000091
:10D5900041505020444F574E204552524F520D0A91
:10D5A0000000000041505020434845434B204F4B62
:10D5B0000D0A000041505020434845434B2045523E
:10D5C000524F520D0A000000415050205245534521
:10D5D00054204552524F520D0A00000010B5FBF77F
:10D5E00027FF50221DA123A0FCF760F841F28834E8
:10D5F000214627A0FCF70EF9012804D026A000F050
:10D6000019FE012010BD2AA000F014FEFBF710FF48
:10D610002DA0FCF74BF821462FA0FCF7FBF80128C2
:10D6200004D02EA000F006FE022010BD33A000F0B2
:10D6300001FEFBF7FDFE38A0FCF738F821463AA0C2
:10D64000FCF7E8F8012804D038A000F0F3FD03202F
:10D6500010BD3CA000F0EEFD002010BD22696F74EB
:10D660002D6170692E6865636C6F7564732E636FCE
:10D670006D22000041542B43495053544152543DB4
:10D6800022544350222C25732C25640D0A000000DF
:10D69000434F4E4E454354004F544120434F4E4E4E
:10D6A00045435420544350204552524F520D0A00D6
:10D6B0004F544120434F4E4E454354205443502035
:10D6C0004F4B0D0A0000000041542B4349504D4F71
:10D6D00044453D310D0A00004F4B00004F5441209E
:10D6E0005354415254205452414E53504152454E8E
:10D6F00054204552524F520D0A0000004F54412011
:10D700005354415254205452414E53504152454E6D
:10D7100054204F4B0D0A000041542B4349505345B0
:10D720004E440D0A000000003E0000004F5441200E
:10D7300053544152542053454E44204552524F5267
:10D740000D0A00004F544120535441525420534578
:10D750004E44204F4B0D0A0010B5FFF785FAFBF73A
:10D7600067FE0AA0FBF7A2FF41F288310BA0FCF78D
:10D7700051F8012804D00BA000F05CFD012010BD81
:10D780000FA000F057FD002010BD000041542B43B6
:10D790004950434C4F53450D0A000000434C4F5332
:10D7A000454400004F544120444953434F4E4E4599
:10D7B000435420544350204552524F520D0A00000A
:10D7C0004F544120444953434F4E4E4543542054F7
:10D7D0004350204F4B0D0A003EB50C460546FBF763
:10D7E00027FEA8B201F036FB0246A0B201F032FBE0
:10D7F00010442730CDE900050E4B0FA210A1029472
:10D800001248FBF753FF41F2883111A0FCF702F8F0
:10D8100070B112A11548FAF736FD20B114A000F03E
:10D8200009FD01203EBD17A000F004FD00203EBD13
:10D830001AA0F9E72C310108746573740000000028
:10D84000326A4B77664F34763258000070300108E8
:10D85000726571756573745F69640000226D73672A
:10D86000223A22737563632200000000C842002040
:10D870005245504F52542056455253494F4E204F17
:10D880004B0D0A005245504F5254205645525349B1
:10D890004F4E204552524F520D0A00006E6F2072BB
:10D8A0006571756573745F69640D0A00F8B50446A7
:10D8B00040684FF48273984217D1A0684FF4806596
:10D8C000B0F5004F01D0A8420FD12068066826F0BD
:10D8D000400606606068984207D1A068A84204D15B
:10D8E00000920B460022012103E000920B46002229
:10D8F0008021204600F018F8002804D0606D40F028
:10D90000200060650320F8BD38B50B460092044640
:10D910000022802100F008F8002804D0606D40F05B
:10D9200020006065032038BD2DE9F8431E4691466E
:10D9300088460446089DFCF7CDFB401B351AFCF7D2
:10D94000C9FB074625480068C0F3CB30684338E080
:10D95000701C37D0FCF7BEFBC01BA84203D215B128
:10D96000009860B32CE02068416821F0E00141603C
:10D970006068B0F5827F0BD1A068B0F5004F02D08F
:10D98000B0F5806F04D12068016821F0400101608A
:10D99000A06AB0F5005F09D12068016821F4005148
:10D9A00001602068016841F400510160012084F8A1
:10D9B0005100002084F850000320BDE8F8830025C2
:10D9C000401E00902068816838EA010004D00021E0
:10D9D0004945BDD10020F0E70121F9E71000002002
:10D9E000012001F0CDFAFBE710B5502080F311883B
:10D9F000BFF34F8FBFF36F8F03F00CFF18B10449D3
:10DA00004FF080500860002080F3118810BD0000A6
:10DA100004ED00E030B593B028216846FAF728FC01
:10DA200014210AA8FAF724FC002401200F940225EF
:10DA3000049000951020119405901094129407946E
:10DA40006846FCF7DBFD08B172B6FEE70F20CDE9B2
:10DA50000A040C940D9400210AA80E94FCF7D2FC41
:10DA600008B172B6FEE70FA80F951194FCF754FCAD
:10DA7000002801D072B6FEE713B030BD7047000039
:10DA80000148FDF78CBB0000A4030020F0B502683C
:10DA9000164B174C174D4FF08047984205D0B842AF
:10DAA00003D0A04201D0A84203D122F070064A68F8
:10DAB0003243984205D0B84203D0A04201D0A842D8
:10DAC00003D122F44074CA6822434C6922F08002D8
:10DAD000224302608A68C2620A688262984201D167
