:020000040800F2
:100000002805002001010008171B0008D51800086A
:10001000151B00085D040008132200080000000002
:10002000000000000000000000000000611F000848
:100030005F04000800000000151E0008631F000890
:100040001B0100081B0100081B0100081B01000820
:100050001B0100081B0100081B0100081B01000810
:100060001B0100081B0100081B0100081B01000800
:100070001B0100081B0100081B0100081B010008F0
:100080001B0100081B0100081B0100081B010008E0
:100090001B0100081B0100081B0100081B010008D0
:1000A0001B0100081B0100081B0100081B010008C0
:1000B0001B0100081B0100081B0100081B010008B0
:1000C0001B0100081B0100081B0100081B010008A0
:1000D0001B0100081B0100081B0100081B01000890
:1000E000610400081B0100081B010008DFF80CD0A8
:1000F00000F050F800480047592500082805002066
:100100000648804706480047FEE7FEE7FEE7FEE7B1
:10011000FEE7FEE7FEE7FEE7FEE7FEE7B71F0008A3
:10012000ED000008202A04DB203A21FA02F0002129
:10013000704721FA02F3D040C2F1200291400843F7
:1001400019467047D2B201E000F8012B491EFBD2DC
:1001500070470022F6E710B513460A4604461946D2
:10016000FFF7F0FF204610BD30B50B4601460020DA
:100170002022012409E021FA02F59D4205D303FA69
:1001800002F5491B04FA02F52844151EA2F10102EA
:10019000F1DC30BD064C074D06E0E06840F001039D
:1001A00094E8070098471034AC42F6D3FFF7A2FF5B
:1001B000E02B0008002C000808B503226946002047
:1001C00002F05AF8BDF80100A0F5B4416B3911D026
:1001D00002208DF800006B208DF801005A208DF868
:1001E0000200002002F016F803226946002002F007
:1001F0009DF808BD02499DF80000087008BD000088
:100200001000002000B585B000200121CDE90001DB
:10021000064902916021CDE9031004A9684600F067
:10022000CFF903A002F0B2F805B000BD00800008CD
:10023000657261736520666C617368206F6B0D0A6F
:100240000000000070B50568044646680C494FF48C
:100250008070C1F88001BFF34F8FBFF36F8F4FF0F5
:10026000E020002101614161816100F087F972B6EF
:1002700085F3088803480460B446BDE870406047D1
:1002800004E000E008ED00E038B540F6B83000F0DA
:1002900085F91E4C207803282AD0FFF78DFF21789E
:1002A0001B4C022929D0012921D11AA002F06EF895
:1002B00000F024FAFFF7A6FF00F04AF800F0D4F9A6
:1002C00002208DF800006B208DF801005A208DF877
:1002D0000200002001F09EFF03226946002002F088
:1002E00025F80FA002F052F82046FFF7ABFF38BD0B
:1002F00011A002F04BF8124803E012A002F046F8F9
:100300002046BDE83840FFF79DBF000010000020E8
:10031000008000087570646174610D0A00000000BF
:100320007374617274206A756D7020746F206E65CD
:1003300077206170700D0A0072657365740D0A0094
:10034000004000086E6F207570646174610D0A00D2
:100350002DE9F043C1B02DA002F018F800200422CE
:10036000409040A9900201F087FF9DF80301409E54
:1003700060F31F6631462AA002F008F8002401202D
:1003800000EB16273AE001212AA2084601F00DFDF4
:10039000B4EB162F06D064206043310AB0FBF1F2B3
:1003A000032301E0032364220821012001F0DCFC87
:1003B00025220B21012001F0A3FC4FF4803000EB3B
:1003C00004204FF48072694601F056FFDFF86C900C
:1003D0000025E84608EB050005EB042102884944A6
:1003E0000023012000F04AF9AD1CADB2FF2DF1D978
:1003F000214613A001F0CAFF641CA4B2A742C2D8D0
:1004000011A001F0C3FF41B0BDE8F08373746172C5
:100410007420777269746520666C6173680D0A00D8
:100420006E657720617070206C656E3D25640D0AE5
:10043000000000005570646174653A000080000897
:10044000693D25640D0A0000656E64207772697449
:100450006520666C6173680D0A000000FEE7704756
:100460004FF4806000F064B906490020C861064876
:10047000016941F004010161016941F0400101613C
:10048000704700000801002000200240064A0021B9
:10049000D16106490A6942F002020A6148610869AD
:1004A00040F0400008617047080100200020024031
:1004B000044B0022DA61044A136943F0010313611B
:1004C00001807047080100200020024014480022EB
:1004D000C168CB06134904D5CA6942F00202CA6159
:1004E0001022C3685B0705D5CB6943F00103CB61DC
:1004F00042F00402C369DB0707D0CB6943F0040371
:10050000CB61C16921F00101C161A2F5807101399E
:1005100001D0C2607047C16921F00101C16170471B
:10052000002002400801002070B5054600F002FAE4
:100530000646114C09E0681C07D025B100F0FAF915
:10054000801BA84201D9032070BDE068C007F2D12A
:10055000E068800601D52020E060E068C00605D490
:10056000E069C00702D1E068400703D5FFF7AEFF9E
:10057000012070BD002070BD00200240064810B56B
:100580004FF0FF31016100220261C160C26000F0E2
:1005900011FA002010BD00000010024070B50446A2
:1005A00000F0C8F90546601C02D0044800780444F5
:1005B00000F0C0F9401BA042FAD370BD000000203B
:1005C0002DE9F047054626480F460126017E012900
:1005D0000FD00121814601762868DFF888804CF22F
:1005E0005034022808D0A2462046FFF79DFFA8B14C
:1005F00031E00220BDE8F0872046FFF795FF08BBF9
:100600000120FFF731FF2046FFF78EFFD8F81010CA
:10061000064621F00401C8F810101CE04FF0FF302E
:100620003860AC6811E02046FFF730FF5046FFF716
:100630007BFFD8F81010060021F00201C8F8101056
:1006400001D03C6007E004F58064D5E9020100EBCD
:100650008120A042E7D8002189F818103046C9E768
:1006600008010020002002400348016941F0800198
:100670000161002070470000002002402DE9F05F7A
:1006800007461C4888460024017E15461E4601295F
:1006900009D00121814601764CF2503A5046FFF7CD
:1006A00043FF18B122E00220BDE8F09F012F02D0E5
:1006B000022F00D00427D346DFF83CA022012846B1
:1006C0003146FFF72FFD81B208EB4400FFF7F0FE43
:1006D0005846FFF729FFDAF8102022F00102CAF885
:1006E000102018B9641CE4B2BC42E7D3002289F898
:1006F0001820D9E708010020002002400649002008
:100700000A69120607D5054A4A60054A4A6009691E
:10071000090600D5012070470020024023016745EB
:10072000AB89EFCDB0F5806F01D101F0D5B870473E
:10073000044910B50A68024202D00860FFF7F2FFD0
:1007400010BD0000140401402DE9F84FDFF8B89106
:100750000024A9F1040B23460F2709F1040AABF189
:10076000040EC9E00125A5402A40AA427DD1674E6A
:10077000D1F804C0ACEB0608B44532D014DCBCF1AF
:10078000030F3AD009DCBCF1000F2AD0BCF1010FF5
:100790001CD0BCF1020F31D11DE0BCF1110F17D0FC
:1007A000BCF1120F2AD119E0B8F5881F19D006DC68
:1007B000B8F5803F15D0B8F5801F1FD111E0B8F50E
:1007C000001F0ED0B8F5041F18D10AE0CB6815E061
:1007D000CB681B1D12E0CB6808330FE0CB680C33ED
:1007E0000CE08B682BB1012B4FF0080303D045615F
:1007F00004E0042302E0056100E00023FF2A01D8A1
:10080000064601E000F104064FEA840501D9A5F18E
:100810002005D6F8008007FA05FC28EA0C0803FA40
:1008200005F548EA0508C6F800804D68ED0062D578
:10083000374DAE6946F00106AE61AD6924F003069E
:1008400005F001050095334D06EB050CDCF808506A
:10085000A607360F07FA06F825EA0805DFF8B8807C
:10086000404503D14FF0000817E044E0DFF8AC80CA
:10087000404502D14FF001080FE0DFF8A480404569
:1008800002D14FF0020808E0DFF89880404502D11D
:100890004FF0030801E04FF0040808FA06F848EAB0
:1008A0000508CCF808804D68D9F80060ED024D4687
:1008B00001D5164300E096432E604D68DAF80060DB
:1008C000AD02554601D5164300E096432E604D68B3
:1008D000DBF80060AD035D4601D5164300E09643AA
:1008E0002E604D68DEF80060ED03754601D51643B5
:1008F00000E096432E60641C0D682A46E5407FF4B4
:1009000031AFBDE8F88F000008040140000011106D
:10091000001002400000014000080140000C0140AE
:1009200000100140001401400AB101617047090440
:10093000FBE70000014880687047000000000020CD
:1009400002488168027811448160704700000020ED
:10095000074810B5016841F010010160032000F064
:1009600077F80F2000F006F800F026F8002010BD00
:100970000020024070B50D4D04464FF47A7128787E
:10098000B1FBF0F00A490968B1FBF0F000F0C7FDD7
:1009900048B9102C07D200222146501E00F038F82A
:1009A00000206C6070BD012070BD000000000020C0
:1009B0000C000020704700000C4808B5816941F028
:1009C00001018161816901F001010091C16941F07A
:1009D0008051C161C06900F08050009004484168B6
:1009E00021F0E06141F00071416008BD001002405B
:1009F00000000140002809DB00F01F0201219140A6
:100A00004009800000F1E020C0F8001170470000AC
:100A1000F0B40E4B1B680C46C3F30223C3F1070569
:100A2000042D00D90425191D072901D2002300E057
:100A3000DB1E012606FA05F1491E214099409E4021
:100A4000761E16403143F0BC01F0B0BC0CED00E066
:100A5000064900F0070208684FF6FF03184040EA15
:100A60000220034A10430860704700000CED00E0CC
:100A70000000FA052DE9F0470F46050061D0434E0E
:100A8000306800F00700B84209D2306820F0070053
:100A900038433060306800F00700B84251D1286810
:100AA0003B4C810712D5400703D5606840F4E060F5
:100AB00060602878000703D5606840F4605060608B
:100AC0006068A96820F0F000084360602878C007DB
:100AD00028D06868012810D02168022810D0890722
:100AE00000292EDA616821F0030101436160FFF7FC
:100AF00021FF804641F288390DE021688903EFE744
:100B00008901EDE7FFF716FFA0EB0801494502D97F
:100B10000320BDE8F0876068696800F00C00B0EB66
:100B2000810FEFD1306800F00700B8420BD9306870
:100B300020F0070038433060306800F00700B8420A
:100B400001D00120E5E72878400705D56068E9680D
:100B500020F4E060084360602878000706D56068EC
:100B6000296920F4605040EAC100606000F038F864
:100B70006168084AC1F30311515CC8400649086026
:100B800006480068FFF7F6FE0020C2E7002002409A
:100B900000100240D62500080C00002004000020B0
:100BA0000448054900684968044AC1F30221515CC0
:100BB000C84070470C00002000100240E6250008E5
:100BC0000448054900684968044AC1F3C221515CE0
:100BD000C84070470C00002000100240E6250008C5
:100BE0000E4A51680E4801F00C03042B11D0082B5B
:100BF0000FD10C48C1F38343C903C05C0AD55168C7
:100C0000084AC1F34041921E515C054A5043B0FB73
:100C1000F1F070470449484370470000001002405B
:100C200000127A00C625000800093D002DE9F84FA2
:100C3000040070D02078C04DC00749D06868C0F368
:100C40008100012807D06868C0F38100022809D11B
:100C50006868C00306D52868800339D56068002815
:100C6000E7D035E06068B0F5803F0BD010B1B0F54B
:100C7000A02F11D0286820F480302860286820F444
:100C8000802002E0286840F480302860606890B1DD
:100C9000FFF750FE06460AE0286840F480202860EE
:100CA000F0E700BFFFF746FE801B642873D8286872
:100CB0008003F7D50CE0FFF73DFE064605E000BFD8
:100CC000FFF738FE801B6428F0D828688003F7D42B
:100CD00020789A4E80074FF001094FF0000839D56F
:100CE000686810F00C0F07D06868C0F38100022814
:100CF00009D16868C00306D42868800714D5206924
:100D0000012808D110E02069B0B1C6F80090FFF7C3
:100D100011FE074605E00AE1FFF70CFEC01B0228A2
:100D2000C4D828688007F7D52868616920F0F800E2
:100D300040EAC10028600DE0C6F80080FFF7FAFD28
:100D4000074604E0FFF7F6FDC01B022823D82868F9
:100D50008007F7D4207800072CD57948A169D9B14C
:100D6000C0F80090FFF7E6FD074604E0FFF7E2FD5C
:100D7000C01B02280FD8686A8007F7D571484FF466
:100D8000FA510068B0FBF1F0009000BF0098411EDE
:100D90000091FAD20EE080E0C0F80080FFF7CAFDB3
:100DA000074604E0FFF7C6FDC01B022875D8686A35
:100DB0008007F7D42078400760D5E8690027C00095
:100DC00008D4E86940F08050E861E869012700F044
:100DD000805000905C480168C90513D401688346BF
:100DE00041F480710160FFF7A5FD824606E000BF77
:100DF000FFF7A0FDA0EB0A0064284ED8DBF8000046
:100E0000C005F5D5E06801280AD008B1052813D03F
:100E1000286A20F001002862286A20F0040002E01D
:100E2000286A40F001002862E06841F2883B98B1EE
:100E3000FFF780FD82460BE0286A40F0040028623C
:100E4000EEE700BFFFF776FDA0EB0A0159455AD83F
:100E5000286A8007F6D50CE0FFF76CFD824605E0B6
:100E6000FFF768FDA0EB0A0159454CD8286A8007B6
:100E7000F6D41FB1E86920F08050E861E06988B3DA
:100E80006968C1F38101022944D00228C6F8608054
:100E900004D0FFF74FFD044638E034E0FFF74AFD89
:100EA000074604E0FFF746FDC01B02282BD8286840
:100EB0008001F7D4206AB0F5803F05D16868A16849
:100EC00020F4003008436860D4E9080108436968E9
:100ED00021F4741108436860C6F86090FFF72AFD9A
:100EE000044606E025E000BFFFF724FD001B0228B2
:100EF00009D828688001F7D51BE000BFFFF71AFD6D
:100F0000001B022802D90320BDE8F88F2868800161
:100F1000F4D40EE00128F7D06868226A00F480312A
:100F2000914204D1616A00F47010884201D001201E
:100F3000EAE70020E8E7000000100240000042421B
:100F4000800442420C0000200070004070B5040094
:100F500009D0606A002540B125616561A56294F8F9
:100F6000510040B10CE0012070BD6068B0F5827F97
:100F7000F4D0E561F2E784F85050204600F040F8E4
:100F8000022084F851002068016821F040010160CE
:100F9000A088218900F4827001F404410843A189EA
:100FA00001F400610843217C01F002010843217D26
:100FB00001F001010843218B01F400710843217FF6
:100FC00001F03801084394F8201001F08001084333
:100FD000218D01F40051084321680860A0690421B3
:100FE00001EA1040216848602068C16921F400616D
:100FF000C1616565012084F85100002070BD0000CA
:1010000030B585B0002400940194029403940068E4
:101010001549884225D11548C16941F48041C16113
:10102000C16901F480410491816941F00801816145
:1010300080690F4D00F0080004904FF420400090AC
:10104000022001900320039069462846FFF77CFBAD
:101050004FF48040CDE90004694628460294FFF72A
:1010600073FB05B030BD00000038004000100240A6
:10107000000C01402DE9F84F044690F851001D4640
:1010800016460F46012838D160684FF00408B0F5C5
:10109000827F01D1A06830B3FFF74CFC8246002F5D
:1010A00075D0002E73D094F85000012825D04FF051
:1010B000010984F8509084F851804FF00008C4F87A
:1010C0005480A763A687E687C4F83080A4F83480EC
:1010D000A4F83680C4F84080C4F84480A068B0F515
:1010E000004F0CD015E084F85180009313460A4657
:1010F000204600F01CF9BDE8F88F0220FBE72068CD
:10110000016821F0400101602068016821F48041FC
:10111000016020680168490603D4016841F040017C
:101120000160E068C0B134E020688168C90709D077
:10113000007BA16B0870A06B401CA063E08F401E79
:10114000E08709E0FFF7F6FBA0EB0A00A84202D314
:10115000681C01D032E085B3E08F0028E4D11BE0A9
:1011600020688168C90709D0C068A16B0880A06B9E
:10117000801CA063E08F401EE0870AE0FFF7DAFBE7
:10118000A0EB0A00A84203D3681C02D016E012E0CC
:101190009DB1E08F0028E3D152462946204600F059
:1011A0003AFE08B12020606584F8519084F85080A0
:1011B000606D00289FD001209DE7FFE784F85190E3
:1011C00084F85080032096E72DE9F84F984616469C
:1011D0008A460446FFF7AEFB814694F85100012889
:1011E0001ED1BAF1000F73D0002E71D094F85000C8
:1011F000012815D0012784F85070032084F851008D
:1012000000256565C4F830A0A686E686A563A58797
:10121000E58765642564A068B0F5004F03D00CE055
:101220000220BDE8F88F2068016821F040010160CC
:101230002068016841F48041016020680168490626
:1012400003D4016841F040010160E068B0F5006F2F
:10125000606803D048B3012E27D047E008B1012EC3
:101260001FD1206B21680088C86006E02068816873
:10127000890709D5216B0988C160206B801C206318
:10128000E08E401EE0860CE0FFF754FBA0EB090166
:10129000414503D3B8F1FF3F03D035E0B8F1000F6B
:1012A00032D0E08E0028E1D123E0206B2168007865
:1012B000087306E02068816889070AD5216B0978E0
:1012C0000173206B401C2063E08E401EE0860DE021
:1012D0002BE0FFF72FFBA0EB0901414503D3B8F149
:1012E000FF3F03D010E0B8F1000F0DD0E08E0028D2
:1012F000E0D14A464146204600F0BBFD08B120201F
:101300006065A06830B109E084F8517084F85050ED
:10131000032086E72068C1688068009084F85170D7
:1013200004F8505F60680028F3D0012079E72DE9C8
:10133000FF4F81B01D46934604464FF001090E9EB3
:10134000FFF7F8FA074694F851006168012806D0C3
:10135000B1F5827F3CD1A168C9BB042838D102987D
:10136000002871D0BBF1000FFBD0002DF9D094F80C
:10137000500001282CD04FF0010A84F850A094F8B6
:101380005100042802D0052084F851004FF00008D5
:10139000C4F85480C4F838B0E587A5870299216362
:1013A000E586A586C4F84080C4F8448020680168BA
:1013B000490603D4016841F040010160E068B0F5DE
:1013C000006F606808D0F0B3012D49D081E0FFE7DD
:1013D000022005B0BDE8F08F08B1012D39D1206B96
:1013E00021680088C860206B801C2063E08E401E4E
:1013F000E0862EE02068816889070FD5E18E69B10B
:10140000B9F1010F0AD1216B0988C160206B801CE2
:101410002063E08E401EE0864FF00009206881685E
:10142000C9070CD0E18F51B1C068A16B0880A06BD7
:10143000801CA063E08F401EE0874FF00109FFF79A
:1014400079FAC01B01E00BE067E0B04201D3701CE9
:1014500050D1E08E0028CDD1E08F0028CAD13EE0E7
:10146000206B216800780873206B401C2063E08E9D
:10147000401EE0862DE02068816889070FD5E18E47
:1014800069B1B9F1010F0AD1216B09780173206BA1
:10149000401C2063E08E401EE0864FF0000920686B
:1014A0008168C9070CD0E18F51B1C068A16B087089
:1014B000A06B401CA063E08F401EE0874FF0010945
:1014C000FFF738FAC01BB04202D3701C01D011E004
:1014D00086B1E08E0028CED1E08F0028CBD13A46ED
:1014E0003146204600F0C5FC50B12020606584F8EC
:1014F000508012E084F851A084F85080032068E7FF
:10150000A06818B92068C1688068009084F851A06C
:1015100084F85080606D0028F1D0012059E710B5A3
:10152000401EB0F1807F01D3012010BD4FF0E024B8
:1015300060610F21601700F039FF0020A0610720D3
:101540002061002010BD000070B590F83C20012AF9
:1015500026D0012480F83C40022280F83D20036818
:101560005A689D6822F070060A6832435A600D4B33
:1015700002689A4208D0B2F1804F05D00A4B9A42D5
:1015800002D00A4B9A4204D1496825F080031943DE
:10159000916080F83D40002180F83C10084670BD05
:1015A000022070BD002C01400004004000080040F3
:1015B00010B5040003D094F83D0010B107E00120FD
:1015C00010BD002084F83C00204600F01FF80220E7
:1015D00084F83D00211D206800F0EEFC012084F815
:1015E000460084F83E0084F83F0084F8400084F808
:1015F000410084F8420084F8430084F8440084F8F1
:10160000450084F83D00002010BD000008B50068CA
:101610000649884208D10648816941F40061816128
:10162000806900F40060009008BD0000002C0140BB
:101630000010024090F83D10012901D001207047B0
:10164000022180F83D1000680B49884208D0B0F1B3
:10165000804F05D00949884202D00949884204D107
:10166000816801F00701062903D0016841F00101FA
:101670000160002070470000002C01400004004081
:101680000008004070B5044690F83C000025012891
:1016900017D0012684F83C60022084F83D002068C1
:1016A000826822F0770222F47F4282600868502824
:1016B00038D00DDC20284FD005DC90B3102811D194
:1016C0004AE0022070BD302846D040280AD13BE0D5
:1016D00060282FD070280DD0B0F5805F03D0B0F512
:1016E000005F12D0012584F83D60002084F83C00A2
:1016F000284670BDCB68D1E90121206800F098FC34
:101700002068816841F0770109E0CB68D1E90121C7
:10171000206800F08DFC2068816841F48041816080
:10172000E1E719E0CA684968206800F093FC50219D
:10173000206806E0CA684968206800F09CFC6021C7
:10174000206800F07FFCCEE7CA684968206800F096
:1017500081FC40212068F4E7226801461046F0E74A
:1017600070B5040004D094F84100002510B106E0E3
:10177000012070BD84F84050204600F023F824205A
:1017800084F841002068C16821F40051C1602046FE
:1017900000F0AAFC2068016921F4904101612068F1
:1017A000416921F02A0141612068C16841F400517A
:1017B000C1606564202084F8410084F842006563BC
:1017C000002070BD30B585B00024009401940294CF
:1017D000039400681449884224D11448816941F473
:1017E00080418161816901F480410491816941F006
:1017F0000401816180690E4D00F0040004904FF4F3
:101800000070009002200190032003906946284652
:10181000FEF79AFF2815CDE9000469462846029490
:10182000FEF792FF05B030BD0038014000100240C5
:10183000000801402DE9F843044690F8410098461D
:1018400016460D46202802D00220BDE8F88385B157
:101850007EB100206064212084F84100FFF76AF81F
:10186000A6848146E684A0682027B0F5805F02D078
:1018700003E00120E9E7206910B12E4600250EE0C3
:1018800000260CE08021204600F08AFCA8B9C6B1F1
:1018900016F8010B21684860E08C401EE084E08C63
:1018A0004B464FF00002CDF800800028EAD14FF0FF
:1018B0004001204600F074FC40B184F841700320E0
:1018C000C3E735F8020BC0F30800E3E784F8417082
:1018D0000020BAE7FEE70000F0B53748374A012597
:1018E000037812680021E3B14FF47A7E012B1BD0FC
:1018F000022B18D1536A51629CB2024601265378DA
:10190000A4F2CC6C03F00702C2F1070296405A1C05
:10191000D7B2021D02EBD303F4451AD81C78344326
:101920001DE051620570F0BD536A51629BB2A3F590
:101930004852C83A724501D8022106E0A3F528535F
:10194000F83B734503D88570C5700170F0BD817098
:10195000F0BDA4F51B74744504D81C78B4431C7006
:10196000477008E0417081700023D1545B1CDBB2EA
:10197000042BFAD301704378202BE9D354781378E1
:10198000E443E4B2A3420DD1D4789378E443E4B2C3
:10199000A34207D18570C170382B0AD1084B0322AE
:1019A0001A7006E00023D1545B1CDBB2042BFAD37F
:1019B00081704170C9E7000011000020780000200C
:1019C000100000200148FFF735BE0000780000201D
:1019D00070B586B0002422480094019402940394C8
:1019E000816941F008018161816901F00801049178
:1019F000816941F00401816180691A4E00F00400A0
:101A0000049001224FF498513046FEF78DFF3015B7
:101A1000009015480125CDE9010569463046FEF7DD
:101A200093FE2803CDE90005032569463046CDE93C
:101A30000245FEF789FE2802009001AA112082E8E3
:101A4000310069463046FEF77FFE0022114628200D
:101A5000FEF7DEFF2820FEF7CDFF06B070BD0000C8
:101A600000100240000C0140000021100E4810B58B
:101A70000C4901604FF48271416000218160C160B6
:101A80004FF400720161C0E90512C1610162416257
:101A900081620A21C162FFF759FA002801D072B6AB
:101AA000FEE710BD003800402000002010B586B0D1
:101AB0000024174800940194029403940494134959
:101AC000059401600721C0E901144FF6FF71C0E9D8
:101AD000031444618461FFF76BFD08B172B6FEE741
:101AE0004FF48050009069460948FFF7CBFD08B1DC
:101AF00072B6FEE7049404A905480594FFF724FD97
:101B0000002801D072B6FEE706B010BD002C0140DF
:101B100078000020FEE7FEE770B500240021204693
:101B200000F0DDF80025002000F063F96D1CEDB237
:101B3000802DF8D3641CE4B2082CEFD370BD0000F4
:101B400010B5064C012211022046FEF7EDFE20469C
:101B50000122BDE810405102FEF7E6BE000C014034
:101B60002DE9F047144E002407464FF080084FF44B
:101B70000079B51528FA04F23A4049463046FEF796
:101B8000D3FE012229463046FEF7CEFE002229462A
:101B90003046FEF7C9FE641CE4B2082CEAD30122E9
:101BA00029463046FEF7C0FE29463046BDE8F047DC
:101BB0000022FEF7B9BE0000000C014070B5012202
:101BC0000B4D540221462846FEF7AEFE01221602B6
:101BD00031462846FEF7A8FE002221462846FEF799
:101BE000A3FE31462846BDE870400022FEF79CBEA9
:101BF000000C014070B50A4D4FF4007400222146DC
:101C00002846FEF791FE012211022846FEF78CFEBF
:101C100021462846BDE870400122FEF785BE00003F
:101C2000000C014010B500204FF47A720021491CCD
:101C30009142FCD3401C9042F8D3FFF781FFAE20C5
:101C400000F0C6F8D52000F0C3F8802000F0C0F8FE
:101C5000A82000F0BDF83F2000F0BAF8D32000F033
:101C6000B7F8002000F0B4F8402000F0B1F8A1204F
:101C700000F0AEF8C82000F0ABF8DA2000F0A8F8C9
:101C8000122000F0A5F8812000F0A2F8CF2000F08B
:101C90009FF8D92000F09CF8F12000F099F8DB20A3
:101CA00000F096F8302000F093F8A42000F090F8AF
:101CB000A62000F08DF88D2000F08AF8142000F0A6
:101CC00087F8AF2000F084F8BDE81040FFF724BF8C
:101CD0000246012000E05043491EFCD2704710B577
:101CE0000C4640F0B00000F073F8102040EA1410E9
:101CF00000F06EF804F00F00BDE8104000F068B886
:101D00002DE9F0410746CE004000083E801E1546F2
:101D10004FF0FF38F1B2C0B2FFF7E1FF11480024E5
:101D200000EB05152819A0F5805090F8000E00F082
:101D300060F8641CE4B2082CF4D308EB4700F1B25D
:101D4000C0B2FFF7CCFF00242819A0F5805090F80E
:101D5000080E00F04EF8641CE4B2082CF4D3BDE881
:101D6000F0810000EE2500082DE9F04700241D4613
:101D70001646884681460A2713E0291B0A20491E79
:101D8000FFF7A6FFB6FBF0F0B0FBF7F107FB11027F
:101D900008EB0400C1B248463032FFF7B1FF641CC3
:101DA000E4B2AC42E9D3BDE8F0872DE9F041154635
:101DB0000E460746002406E03019C1B23846FFF748
:101DC0009FFF641CE4B22A5D002AF5D1BDE8F081D2
:101DD00010B50446FFF7F2FE7820FFF7C1FE0020A1
:101DE000FFF7BEFE2046FFF7BBFEBDE81040FFF741
:101DF00001BF10B50446FFF7E1FE7820FFF7B0FE03
:101E00004020FFF7ADFE2046FFF7AAFEBDE81040D8
:101E1000FFF7F0BE7047F8B5044640684FF4827390
:101E2000984217D1A0684FF48065B0F5004F01D0FB
:101E3000A8420FD12068066826F040060660606858
:101E4000984207D1A068A84204D100920B46002214
:101E5000012103E000920B4600228021204600F081
:101E600023F8002804D0606D40F020006065032056
:101E7000F8BDF8B515460E460B4600920446012201
:101E8000022100F011F840B933460022802120469B
:101E9000009500F009F8002804D0606D40F02000A3
:101EA00060650320F8BD00002DE9F8431E46914609
:101EB00088460446089DFEF73DFD401B351AFEF797
:101EC00039FD074625480068C0F3CB30684338E049
:101ED000701C37D0FEF72EFDC01BA84203D215B1EF
:101EE000009860B32CE02068416821F0E001416077
:101EF0006068B0F5827F0BD1A068B0F5004F02D0CA
:101F0000B0F5806F04D12068016821F040010160C4
:101F1000A06AB0F5005F09D12068016821F4005182
:101F200001602068016841F400510160012084F8DB
:101F30005100002084F850000320BDE8F8830025FC
:101F4000401E00902068816838EA010004D000211A
:101F50004945BDD10020F0E70121F9E70C00002040
:101F60007047FEF7EDBC10B590B028216846FEF72B
:101F7000F0F814210AA8FEF7ECF8022000900120E6
:101F8000049010200024059007946846FEF74EFE4A
:101F900008B172B6FEE70F20CDE90A040C940D9447
:101FA00000210AA80E94FEF765FD002801D072B644
:101FB000FEE710B010BD7047F0B50268194B1A4C1F
:101FC0001A4D4FF08047984205D0B84203D0A04246
:101FD00001D0A84203D122F070064A6832439842E9
:101FE00005D0B84203D0A04201D0A84203D122F4C8
:101FF0004074CA6822434C6922F080022243026086
:102000008A68C2620A688262984201D109690163E2
:10201000012141610169C90703D0016921F0010172
:102020000161F0BD002C01400004004000080040A8
:1020300010B5846842EA032224F47F440A43224311
:10204000826010BD826822F070020A4342F00701EC
:102050008160704710B5036A046A24F001040462C9
:10206000846924F0F00444EA021423F00A020A43CB
:102070008461026210BD10B5036A046A24F0100482
:102080000462846923F0A00324F4704444EA023219
:1020900043EA01118261016210BD01680C3151E80F
:1020A000002F22F4907241E80023002BF5D1016843
:1020B000143151E8002F22F0010241E80023002BE7
:1020C000F5D1016B012909D101680C3151E8002FCC
:1020D00022F0100241E80023002BF5D1202180F8E6
:1020E000421000210163704770B504460068016921
:1020F000E26821F44051114301612169A06808435D
:10210000616908432168CA6841F20C639A4302433B
:10211000CA6020684169A26921F44071114341619C
:102120001E492068884202D1FEF74AFD01E0FEF711
:1021300037FD00EBC00101EB0012606864218000F4
:10214000B2FBF0F3B3FBF1F36FF018067343B2FB8D
:10215000F0F5B2FBF0F605EB8305322303EB051532
:10216000B5FBF1F5B6FBF1F605F0F00505EB06154C
:10217000B2FBF0F6B2FBF0F0B0FBF1F06FF018023A
:10218000504306EB800003EB0010B0FBF1F0216838
:1021900000F00F002844886070BD00000038014046
:1021A0002DE9F843984617460D460446089E24E05C
:1021B000701C22D0FEF7BEFBA0EB0800B0421AD87C
:1021C000CEB12068C168490717D5802D15D0402DA4
:1021D00013D00168C94309070FD40168002540687E
:1021E00000902046FFF759FF0820606484F84050B3
:1021F0000120BDE8F8830320FBE72068006835EA8A
:10220000000004D00020B842D2D00020F1E7012025
:10221000F9E7FEE770B5054600F07EF800F05EF8DD
:10222000202000F04FF80024C4F10200C00025FA7D
:1022300000F0C0B200F046F8641CE4B2032CF3D303
:1022400000F054F8BDE8704000F058B808B54FF001
:10225000FF33012269460348FEF70CFF9DF800009A
:1022600008BD000020000020012211030148FEF7F4
:102270005BBB0000000C01402DE9F04115460E4605
:10228000074600F02BF8032000F01CF85FF0000474
:10229000C4F10200C00027FA00F0C0B200F012F84A
:1022A000641CA4B2032CF3D3002404E0FFF7CEFF98
:1022B0003055641CA4B2AC42F8D3BDE8F04100F044
:1022C00015B8000001B54FF0FF33012269460248FE
:1022D000FEF77AFF08BD00002000002000224FF426
:1022E00080510148FEF720BB000C01400122110380
:1022F0000148FEF719BB0000000C014010B5FFF7C4
:10230000EDFF0520FFF7DEFFFFF7A0FFC007FBD1C1
:10231000BDE81040FFF7EABF10B5FFF7DFFF06206A
:10232000FFF7D0FFBDE81040FFF7E0BF2DE9F04117
:1023300014460E460746FFF7EFFFFFF7CFFF0220D8
:10234000FFF7C0FF5FF00005C5F10200C00027FAEB
:1023500000F0C0B2FFF7B6FF6D1CADB2032DF3D392
:102360004FF48070844202D90446002501E0002524
:1023700004E0705DFFF7A6FF6D1CADB2A542F8D377
:10238000FFF7B4FFBDE8F041FFF7B8BF0FB4054B4E
:1023900010B503A9044A029800F028F810BC5DF8B3
:1023A00014FB0000412500081C0000200907090E4D
:1023B000002804DB00F1E02080F80014704700F0F2
:1023C0000F0000F1E02080F8141D704702E008C8FB
:1023D000121F08C1002AFAD170477047002001E09F
:1023E00001C1121F002AFBD1704700002DE9FF4FE9
:1023F00089B09B460446002506E025280BD05A46A6
:102400000B999047641C6D1C20780028F5D10DB005
:102410002846BDE8F08F0027B8460122474900E072
:10242000074314F8013F203B02FA03F00842F7D1BA
:1024300020782E2819D114F8010F47F004072A2814
:102440000ED06FF02F022078A0F1300109290CD8AE
:1024500008EB880102EB410100EB0108641CF2E784
:102460000A98641C50F8048B0A9020780028CED07B
:10247000642808D0692806D075281ED05A460B99C2
:1024800090476D1C58E00A994FF00A0901C90A915A
:10249000002802DA40422D2102E0390504D52B2123
:1024A0008DF82010012103E0F90704D02021F7E77F
:1024B0008A4608AE0DE00021FAE70A994FF00A09B2
:1024C00001C90A91F7E74946FDF74EFE303106F89B
:1024D000011D0028F7D1ADEB060000F120097807B7
:1024E00001D44FF00108C84502DDA8EB090000E067
:1024F00000208046002706E008A85A46C05D0B99D8
:1025000090476D1C7F1C5745F6DB04E030205A468F
:102510000B9990476D1CB8F10001A8F10108F5DC9A
:1025200005E016F8010B5A460B9990476D1CB9F15E
:102530000001A9F10109F4DC641C65E70928010028
:1025400013B54FF0FF33012269460248FFF772F9D5
:1025500000981CBDC0000020FEF7FAF9FFF703FD4C
:10256000FFF736FA134812490C2201604FF4E131AB
:10257000416000218160C160C0E904128161C161D4
:10258000FFF7EEF808B172B6FEE7FFF76FFAFFF754
:102590008DFAFFF769FEFFF715FAFFF743FB0121FC
:1025A00005A20846FFF701FCFDF76EFEFCE7000000
:1025B00000380140C000002068656C6C6F20776FA8
:1025C000726C6400010202030405060708090A0B85
:1025D0000C0D0E0F101000000000000000000102A2
:1025E00003040607080900000000010203040000BC
:1025F00000000000000000000000000000000000DB
:1026000000F800000000000000333000000000105F
:102610000C06100C0600000000000000000040C086
:102620007840C0784000043F04043F040400007078
:1026300088FC08300000001820FF211E0000F00870
:10264000F000E018000000211C031E211E0000F015
:102650000888700000001E2123241927211010165D
:102660000E0000000000000000000000000000005C
:1026700000E01804020000000007182040000002DB
:102680000418E0000000004020180700000040404F
:1026900080F0804040000202010F010202000000B1
:1026A00000F0000000000101011F01010100000015
:1026B00000000000000080B070000000000000007A
:1026C0000000000000000001010101010101000003
:1026D000000000000000003030000000000000009A
:1026E000000080601804006018060100000000E08F
:1026F00010080810E000000F102020100F0000103C
:1027000010F8000000000020203F20200000007092
:10271000080808887000003028242221300000308A
:102720000888884830000018202020110E00000082
:10273000C02010F8000000070424243F240000F803
:102740000888880808000019212020110E0000E0E8
:10275000108888180000000F112020110E0000388A
:102760000808C83808000000003F000000000070A2
:10277000880808887000001C222121221C0000E02B
:1027800010080810E0000000312222110F000000A4
:1027900000C0C00000000000003030000000000059
:1027A00000800000000000008060000000000000C9
:1027B0008040201008000001020408102000404062
:1027C00040404040400004040404040404000008A5
:1027D000102040800000002010080402010000705A
:1027E00048080808F0000000003036010000C03042
:1027F000C828E810E0000718272423140B00000065
:10280000C038E0000000203C23020227382008F8EE
:10281000888888700000203F202020110E00C030E2
:10282000080808083800071820202010080008F8B9
:1028300008080810E000203F202020100F0008F8B2
:102840008888E8081000203F20202320180008F87E
:102850008888E8081000203F200003000000C030F6
:1028600008080838000007182020221E020008F877
:1028700008000008F808203F210101213F2000083E
:1028800008F8080800000020203F20200000000079
:102890000808F8080800C08080807F00000008F861
:1028A00088C028180800203F20012638200008F89A
:1028B000080000000000203F20202020300008F801
:1028C000F800F8F80800203F003F003F200008F81B
:1028D00030C00008F808203F200007183F00E01033
:1028E00008080810E0000F10202020100F0008F842
:1028F00008080808F000203F210101010000E01055
:1029000008080810E0000F18242438504F0008F879
:10291000888888887000203F2000030C30200070D9
:102920008808080838000038202121221C001808D7
:1029300008F8080818000000203F2000000008F8F0
:1029400008000008F808001F202020201F00087839
:10295000880000C83808000007380E010000F80899
:1029600000F80008F800033C0700073C03000818C3
:1029700068808068180820302C03032C3020083829
:10298000C800C83808000000203F200000001008E0
:102990000808C83808002038262120201800000028
:1029A00000FE020202000000007F40404000000CD8
:1029B00030C000000000000000010638C000000226
:1029C0000202FE000000004040407F0000000000C6
:1029D00004020202040000000000000000000000E9
:1029E00000000000000080808080808080800002E5
:1029F00002040000000000000000000000000000D1
:102A00008080808000000019242222223F2008F8C4
:102A1000008080000000003F112020110E00000007
:102A2000008080800000000E112020201100000096
:102A300000808088F800000E112020103F20000048
:102A4000808080800000001F22222222130000804C
:102A500080F0888888180020203F20200000000097
:102A6000808080808000006B94949493600008F8CC
:102A7000008080800000203F210000203F20008057
:102A80009898000000000020203F20200000000057
:102A900000809898000000C08080807F000008F8C7
:102AA000000080808000203F24022D30200000089C
:102AB00008F8000000000020203F20200000808057
:102AC000808080808000203F20003F20003F808069
:102AD000008080800000203F210000203F20000077
:102AE000808080800000001F202020201F00808028
:102AF00000808000000080FFA12020110E00000057
:102B0000008080808000000E112020A0FF80808047
:102B100080008080800020203F21200001000000F4
:102B200080808080800000332424242419000080C9
:102B300080E0808000000000001F202000008080D6
:102B4000000000808000001F202020103F20808097
:102B500080000080808000010E3008060100808027
:102B60000080008080800F300C030C300F0000804C
:102B70008000808080000020312E0E312000808077
:102B800080000080808080818E70180601000080A7
:102B90008080808080000021302C222130000000C5
:102BA0000000807C020200000000003F4040000066
:102BB0000000FF00000000000000FF000000000215
:102BC000027C800000000040403F00000000000642
:102BD00001010202040400000000000000000000E7
:102BE000002C00080000002020000000CC2300087A
:102BF000202C00082000002008050000DC2300082D
:102C000001000000100000000000000000127A0027
:102C100002000000000000000000000000000000B2
:04000005080000ED02
:00000001FF
